:020000040800F2
:100000000050002079290008850D0008870D0008A0
:10001000890D00088B0D00088D0D00080000000000
:100020000000000000000000000000008F0D00082C
:10003000910D000800000000930D0008950D0008C8
:10004000C1290008C1290008C1290008C1290008E8
:10005000C1290008C1290008C1290008C1290008D8
:10006000C1290008C1290008C1290008C1290008C8
:10007000C1290008C1290008C1290008C1290008B8
:10008000C1290008C1290008C1290008C1290008A8
:10009000C1290008C1290008C1290008C129000898
:1000A0009D0D0008AD0D0008C1290008C1290008F8
:1000B000C1290008C1290008C1290008C129000878
:1000C000C1290008C1290008C1290008C129000868
:1000D000C1290008C1290008C1290008C129000858
:1000E000C1290008C1290008C1290008000000003A
:1000F0000000000000000000000000000000000000
:0C01000000000000000000005FF808F1A3
:10010C0010B5054C237833B9044B13B10448AFF345
:10011C0000800123237010BD780000200000000037
:10012C005432000808B5034B1BB103490348AFF325
:10013C00008008BD000000007C0000205432000844
:10014C00034613F8012B002AFBD1181A013870470B
:10015C00074B984207D803889BB24FF6FF72934225
:10016C0003D10430F4E7012070470020704700BF32
:10017C00FF830008114B1B889BB2114A128892B264
:10018C0078B1012811D12AB94EF6EE618B420FD10C
:10019C0013460BE073B94EF6EE618A4206D140234A
:1001AC0004E01BB142B9402300E00023184670471D
:1001BC004023FBE7AB23F9E7AB23F7E7008000080C
:1001CC000080010870B505460E460120FFF7D2FFEE
:1001DC00AB2821D000F500342034A402431C0F4876
:1001EC0000EB8320844216D22368B3F1FF3F01D089
:1001FC000434F7E7B2B200232146012001F0A6FA3D
:10020C0008B180B208E0AAB20023A11C012001F0C1
:10021C009DFA80B200E0802070BD00BFFF7F000817
:10022C0010B586B000230593019312480390012367
:10023C000493FFF78DFF28B905A901A801F0F8FA7E
:10024C00044638B9002200230A49012001F07EFA45
:10025C00044610B1204606B010BD07480390FFF7C6
:10026C0077FF0028F6D105A901A801F0E1FA0446B0
:10027C00F0E700BF008000080080010838B5044694
:10028C000D460020FFF776FFAB2816D000F50032A4
:10029C0020329202431C094800EB8320931C8342BA
:1002AC000AD203889BB2A34201D00438F6E730F897
:1002BC00023C2B80002000E0012038BDFE7F0008AE
:1002CC00F0B587B0002205928F4B1E88B6B28F49CD
:1002DC000C88A4B201920393012304934EF6EE63AF
:1002EC009E4240D04FF6FF739E420BD0002E00F082
:1002FC009D80FFF795FF002800F0048184B2204612
:10030C0007B0F0BD54B14EF6EE639C4215D0FFF72A
:10031C0087FF002800F0EE8084B2F0E77A48FFF700
:10032C0017FF05460028EAD105A901A801F080FABB
:10033C00002800F0DB8084B2E1E77348FFF708FF88
:10034C0020B905A901A801F073FA50B900220023C5
:10035C006E49012001F0FAF9002800F0C98084B23E
:10036C00CDE784B2CBE75CB34FF6FF739C4247D02A
:10037C00FFF756FF002800F0C38084B2BFE72FB20E
:10038C000CE00135ADB2022D1ED8614B1B889BB21F
:10039C002E46604A32F815008342F0D0BE42F0D0AF
:1003AC005D49FFF76BFF0128EBD05B4B1988594B6C
:1003BC0033F81600FFF706FF0028E2D004469EE74C
:1003CC0025464FF0FF37DEE7002200234E4901207F
:1003DC0001F0BCF908B184B291E7002301934B48BA
:1003EC00039001230493FFF7B3FE0546002886D142
:1003FC0005A901A801F01CFA00287DD084B27EE783
:10040C0042480390FFF7A4FE20B905A901A801F00A
:10041C000FFA48B9002200233B49012001F096F95C
:10042C0000286BD084B26AE784B268E73CB14FF61F
:10043C00FF739C420AD035464FF0FF371BE0FFF7A5
:10044C00EFFE00283FF45BAF84B258E72F480390CF
:10045C00FFF77EFE044608B1344650E705A901A813
:10046C0001F0E6F900283FF44AAF84B247E72FB217
:10047C000CE00135ADB2022D1AD8284B1B889BB26B
:10048C002C46244A32F815008342F0D0BC42F0D0FE
:10049C002149FFF7F3FE0128EBD01F4B19881D4BA8
:1004AC0033F81400FFF78EFE04460028E1D026E74F
:1004BC00002200231549012001F048F908B184B24B
:1004CC001DE7002301931048039001230493FFF7C9
:1004DC003FFE044608B1344611E705A901A801F016
:1004EC00A7F900283FF40BAF84B208E72C4606E7C7
:1004FC00002404E7002402E72C4600E70024FEE673
:10050C000024FCE60024FAE60080000800800108C4
:10051C0006800008000000209400002006800108DE
:10052C002DE9F04186B006460D4600200590FFF7F8
:10053C0021FE402811D000284BD1DFF8A080264F97
:10054C004EF6EE6200233946012001F0FFF840B16F
:10055C0084B2204606B0BDE8F081DFF87C801F4FE6
:10056C00EEE729463046FFF72DFE044610B1F0E7C2
:10057C000134A4B2022C14D8194B33F81400B04235
:10058C00F6D01849FFF77AFE0128F1D0154B1988DF
:10059C00134B33F81400FFF715FE0028E8D004467F
:1005AC00D7E700230193CDF80C800123049305A910
:1005BC0001A801F03DF908B184B2CAE7002200237A
:1005CC003946012001F0C2F808B984B2C1E784B2FF
:1005DC00BFE7AB24BDE700BF008001080080000826
:1005EC00000000209400002038B504460D46FFF7AB
:1005FC00E9FD802800D038BD29462046FFF790FF42
:10060C00F9E700002DE9F04188B00024049405942A
:10061C00069407942D4B9A6942F010029A619A69DC
:10062C0002F010020092009A9A6942F020029A613C
:10063C009A6902F020020192019A9A6942F004022E
:10064C009A619A6902F004020292029A9A6942F043
:10065C0008029A619B6903F008030393039B1C4FE8
:10066C0022463E21384601F028FA1A4E2246022133
:10067C00304601F022FA3E2304934FF00108CDF8E6
:10068C00148006940225079504A9384601F022F936
:10069C00402304930594069504A9384601F01AF9F1
:1006AC0040F6014304930594069504A9304601F0E5
:1006BC0011F90495CDF814800694079504A93046D9
:1006CC0001F008F908B0BDE8F08100BF001002404D
:1006DC0000080140000C014010B50446FFF730FD46
:1006EC004FF47A7382B22146014802F0D1F810BD62
:1006FC00D800002072B6FEE700B585B00023019348
:10070C00029303930F48104A0260836003730375CE
:10071C004FF46022C26143600123036100F0F8FDD5
:10072C0060B90023019301220292039301A90548A9
:10073C0000F076FC20B905B05DF804FBFFF7DAFF9A
:10074C00FFF7D8FFA80000200024014000B587B0B7
:10075C00002302930393049305930093019315488C
:10076C00154A026040F21F324260836042F20F72FF
:10077C00C26003614361836101F008FF98B906A967
:10078C004FF4805341F8103D0A4801F035FF60B931
:10079C000023009301936946064801F09BFF30B992
:1007AC0007B05DF804FBFFF7A5FFFFF7A3FFFFF70A
:1007BC00A1FF00BF18010020002C014008B50A4819
:1007CC000A4B03604FF41653436000238360C360ED
:1007DC0003610C2242618361C36102F02AF800B903
:1007EC0008BDFFF787FF00BFD8000020003801408C
:1007FC0000B595B0242200210BA802F02BF90023A0
:10080C00059306930793089309930193029303931B
:10081C00049302230A9301230E9310230F930AA827
:10082C0001F068F9A8B90F230593002106910791EF
:10083C000891099105A801F09DFB60B90223019371
:10084C000023039301A801F06FFC30B915B05DF8DB
:10085C0004FBFFF74FFFFFF74DFFFFF74BFF0000C7
:10086C002DE9F04F89B008AC40F6B83324F8023DBE
:10087C0000F0E2FAFFF7BCFF00F018FFFFF720FDD5
:10088C00FFF7C0FEFFF738FFFFF760FFFFF796FF9B
:10089C002146B54B1888FFF7F1FCB44B049308279D
:1008AC004FF001084FF0060A002495E04FF0020AC1
:1008BC0092E004274FF0020A8EE003274FF0010A62
:1008CC008AE00227BA4687E005274FF0000A83E04A
:1008DC000127BA4680E004274FF0020A7CE0A44EC0
:1008EC00304600F0BBFD304600F076FC012130466E
:1008FC0000F0DAFA304600F08FFB81B2ADF81E1032
:10090C00994B1888FFF770FE4FF4967000F0B8FA08
:10091C000121984801F0CAF80028F9D1AFE088F01D
:10092C0001064FF4967000F0ABFA4FF40061914859
:10093C0001F0BCF80028F8D1B8F1000F02D1B04694
:10094C0006279CE0B046072799E0002DAED04FF06B
:10095C00010A41E0002DACD0B8F1000F3CD0BDF83D
:10096C001E30A34238D24FF0040A35E0002DA4D13A
:10097C00B8F1000F30D0BDF81E30A3422CD34FF08D
:10098C00030A29E0012202217B4801F096F8002697
:10099C00284616E0784D01220821284601F08DF8F2
:1009AC00322000F06DFA00220821284601F085F86B
:1009BC00322000F065FA4FF480616E4801F076F851
:1009CC0001361D2E01DC0028E4D0002202216A48E9
:1009DC0001F073F84FF0050A654D284600F0FCFB5A
:1009EC000121284600F060FA04EB440404EB4414A3
:1009FC00284600F011FB04446048A0FB0434630952
:100A0C0005939CB2284600F00BFD012000F038FA4B
:100A1C004FF48061574801F049F80546BDF81E9027
:100A2C00A14594BF4FF000094FF0010900F022FAE4
:100A3C00049BA0EB030B4FF480614E4801F036F899
:100A4C004D4E02460821304601F037F8424610213F
:100A5C00304601F032F84A462021304601F02DF89C
:100A6C000121444801F022F800287FF438AF4FF4FC
:100A7C000061404801F01AF800287FF450AF1FB114
:100A8C0041F64C539B4502D83D4B9B451AD9CDF8AA
:100A9C000CA0CDF80880BDF81E300193BDF81400F1
:100AAC0000902B463A46374906A801F085FF069878
:100ABC00FFF712FE4FF47A7000F0E2F900F0DAF969
:100ACC0004900027BAF1060F86D801A353F82AF038
:100ADC00950B0008610900087909000891090008C4
:100AEC00F90A00084F0B00085709000801220421DD
:100AFC00214800F0E2FF0026284616E01E4D012298
:100B0C000821284600F0D9FF322000F0B9F9002264
:100B1C000821284600F0D1FF322000F0B1F94FF443
:100B2C008061144800F0C2FF0136132E01DC00284E
:100B3C00E4D100220421104800F0BFFF4FF0050A59
:100B4C004AE725B9BDF81E30A342FFF4BAAE002D1A
:100B5C003FF4BAAEBDF81E30A342BFF4B9AE0527C0
:100B6C004FF0000A38E700BF00000020B4E2FFFF9E
:100B7C00A8000020000C0140000801401F85EB512B
:100B8C00B0710B00AC3200081F4E01220821304618
:100B9C0000F093FF01221021304600F08EFF01225D
:100BAC002021304600F089FF642000F069F9002212
:100BBC000821304600F081FF00221021304600F061
:100BCC007CFF00222021304600F077FF642000F0EB
:100BDC0057F9B8F1000F04D055B9BDF81E30A34237
:100BEC0006D2B8F1000F3FF476AE0227BA46F3E610
:100BFC00002D3FF4F1AEBDF81E30A342FFF4ECAE75
:100C0C000127BA46E8E600BF0008014082B00E4B4F
:100C1C009A6942F001029A619A6902F0010200920B
:100C2C00009ADA6942F08052DA61DB6903F0805392
:100C3C000193019B054A536823F0E06343F0007372
:100C4C00536002B0704700BF00100240000001402A
:100C5C0000B587B0002302930393049305930268B5
:100C6C00114B9A4202D007B05DF804FB03F56C43BC
:100C7C009A6942F400729A619A6902F400720092C5
:100C8C00009A9A6942F004029A619B6903F004038A
:100C9C000193019B012302930323039302A90348AD
:100CAC0000F018FEDFE700BF0024014000080140FF
:100CBC000268124B9A4200D0704700B583B003F51E
:100CCC0064439A6942F400629A619B6903F400637D
:100CDC000193019B00221146182000F047FC1820BC
:100CEC0000F078FC00221146192000F03FFC19207E
:100CFC0000F070FC03B05DF804FB00BF002C014059
:100D0C0010B586B0002302930393049305930268F5
:100D1C00174B9A4201D006B010BD03F558439A699F
:100D2C0042F480429A619A6902F480420092009ADD
:100D3C009A6942F004029A619B6903F004030193DF
:100D4C00019B4FF400730293022303930323059337
:100D5C00084C02A9204600F0BDFD4FF480630293BD
:100D6C0000230393049302A9204600F0B3FDD2E7BD
:100D7C000038014000080140FEE7FEE7FEE7FEE711
:100D8C00FEE770477047704708B500F067F808BD7C
:100D9C0008B5024801F002FB08BD00BF1801002095
:100DAC0008B5024801F0FAFA08BD00BF180100208E
:100DBC0008B503460B4A126842B10A4A106803444C
:100DCC006A46934206D8074A136008BD054A06498D
:100DDC001160F2E701F014FE0C2303604FF0FF30BA
:100DEC00F3E700BF9800002090010020704700003E
:100DFC0010B504460E4B18784FF47A73B3FBF0F32E
:100E0C000C4A1068B0FBF3F000F0F2FB68B90F2C41
:100E1C0001D901200AE0002221464FF0FF3000F0FA
:100E2C00A5FB034B5C60002000E0012010BD00BF5F
:100E3C000C0000200800002008B5074A136843F096
:100E4C0010031360032000F07FFB0020FFF7D0FF9E
:100E5C00FFF7DCFE002008BD00200240034A1168A9
:100E6C00034B1B780B441360704700BF60010020DC
:100E7C000C000020014B1868704700BF6001002077
:100E8C0038B50446FFF7F6FF0546B4F1FF3F02D034
:100E9C00044B1B781C44FFF7EDFF401BA042FAD318
:100EAC0038BD00BF0C000020F0B583B005460C46E1
:100EBC0000230193FFF7DEFF2B689A6812F4807F02
:100ECC0023D106465A6812F4807F03D1DB6A13F4EF
:100EDC00700F24D04B4B1F68022001F0AFF9B7FB09
:100EEC00F0F02B681969484A11422FD1D96802F1E8
:100EFC005C4211422AD11969444A114239D1DA684B
:100F0C00434B1A4237D029273AE0AB6A43F020030F
:100F1C00AB62002385F82430012003B0F0BD2B68B0
:100F2C001B6813F0020F48D1B4F1FF3FF7D024B186
:100F3C00FFF7A0FF801BA042F1D9AB6A43F004037A
:100F4C00AB62002385F824300320E6E719692F4AA9
:100F5C00114204D1D96802F16E4211420DD01969C7
:100F6C002C4A0A405AB9DA682A4B13405BB1FC2769
:100F7C0006E0292704E0142702E0542700E0FC27B0
:100F8C0007FB00F704E05427FAE7019B01330193B8
:100F9C00019BBB4211D2B4F1FF3FF6D024B1FFF755
:100FAC0069FF801BA042F0D9AB6A43F00403AB622B
:100FBC00002385F824300320AFE72B686FF0120272
:100FCC001A60AB6A43F40073AB622B689B6803F442
:100FDC006023B3F5602F01D000209EE72B7B6BB90B
:100FEC00AB6A23F48073AB62AB6A13F4805F07D1F6
:100FFC00AB6A43F00103AB6200208EE700208CE764
:10100C0000208AE7080000202449922492244912E7
:10101C0092244900499224000368D86C7047000060
:10102C0030B482B00023019390F82430012B00F0EF
:10103C008B800246012380F824304B68062B29D87C
:10104C000568686B03EB8303053B1F249C4020EA77
:10105C0004000C6804FA03F303436B630B68092B5D
:10106C0038D91568E86803EB43031E3B07249C4002
:10107C0020EA04008C6804FA03F30343EB600B686A
:10108C00103B012B34D90020002382F8243002B00D
:10109C0030BC70470C2B0ED80568286B03EB830310
:1010AC00233B1F249C4020EA04000C6804FA03F341
:1010BC0003432B63D2E70568E86A03EB8303413BE8
:1010CC001F249C4020EA04000C6804FA03F3034339
:1010DC00EB62C3E71568286903EB430307249C40C4
:1010EC0020EA04008C6804FA03F303432B61C6E77F
:1010FC0013681648834205D0936A43F02003936229
:10110C000120C1E7986810F4000F1BD1986840F4D7
:10111C00000098600B68102B01D00020B4E70C4B3A
:10112C001B680C49A1FB03139B0C03EB83035900B5
:10113C00019102E0019B013B0193019B002BF9D132
:10114C000020A1E700209FE70220A0E70024014037
:10115C000800002083DE1B4330B583B000230193CD
:10116C0003689A6812F0010F2ED19A6842F00102BE
:10117C009A60174B1B68174AA2FB03239B0C019325
:10118C0002E0019B013B0193019B002BF9D104462A
:10119C00FFF770FE054623689B6813F0010F11D111
:1011AC00FFF768FE401B0228F5D9A36A43F0100331
:1011BC00A362E36A43F00103E362002384F8243062
:1011CC00012002E0002000E0002003B030BD00BF91
:1011DC000800002083DE1B4390F82430012B6AD0DA
:1011EC0010B50446012380F82430FFF7B5FF024602
:1011FC0000285BD1A36A23F4407323F0010343F46A
:10120C008073A36223682D498B4227D0A16A21F4F5
:10121C008011A162596811F4806F05D0A16A21F484
:10122C00405141F48051A162A16A11F4805F2BD02E
:10123C00E16A21F00601E162002184F824106FF0CC
:10124C00020119602368996801F46021B1F5602FDF
:10125C001DD0996841F4801199602AE0A1F5806154
:10126C00496811F4702FD1D0A16A41F48011A162A8
:10127C001349496811F4806FD6D0A16A21F440510A
:10128C0041F48051A162CFE70021E162D4E70B4920
:10129C008B4204D0996841F4A001996009E0A1F552
:1012AC008061496811F4702FD3D1F3E7002384F8DF
:1012BC002430104610BD0222104670470028014011
:1012CC000024014038B503689A6812F0010F01D16F
:1012DC00002038BD04469A6822F001029A60FFF79C
:1012EC00C9FD054623689B6813F0010F0ED0FFF76C
:1012FC00C1FD401B0228F5D9A36A43F01003A36279
:10130C00E36A43F00103E3620120E2E70020E0E737
:10131C0000287FD038B50446836A002B33D0204692
:10132C00FFF7D0FFA36A13F010036DD100286BD127
:10133C00A26A22F4885222F0020242F00202A26255
:10134C006268E1690A43257B42EA4502A168B1F56E
:10135C00807F21D001291CD0217D01291FD0256837
:10136C00696821F469410B436B6021688D682A4BD5
:10137C002B4013438B60A368B3F5807F20D0012BE7
:10138C001ED000211FE0C36280F82430FFF760FC00
:10139C00C5E74FF48073DFE74FF48073DCE735B9B2
:1013AC00A169013943EA413343F40063D7E7A16AE9
:1013BC0041F02001A162E16A41F00101E162CEE756
:1013CC002369013B19052568EB6A23F470030B4371
:1013DC00EB6223689968114B0B409A420BD0A36ABD
:1013EC0023F0120343F01003A362E36A43F00103FA
:1013FC00E36201200DE00023E362A36A23F0030300
:10140C0043F00103A36204E0A36A43F01003A36258
:10141C00012038BD01207047FDF7E1FFFE0E1FFFD4
:10142C0090F82430012B15D010B50446012380F818
:10143C002430FFF747FF024638B9A36A23F48853D8
:10144C0023F0010343F00103A362002384F824304A
:10145C00104610BD022210467047000070B582B0D5
:10146C000023019390F82430012B68D0044601230B
:10147C0080F82430FFF726FF054628B1002384F8B6
:10148C002430284602B070BDA36A23F4885323F09D
:10149C00020343F00203A3622A4B1E68022000F0F1
:1014AC00CDFEB6FBF0F04000019002E0019B013B49
:1014BC000193019B002BF9D12046FFF74DFE2268CA
:1014CC00936843F008039360FFF7D4FC0646236847
:1014DC009A6812F0080F0FD0FFF7CCFC801B0A287B
:1014EC00F5D9A36A23F0120343F01003A36200237F
:1014FC0084F824300125C4E79A6842F004029A600B
:10150C00FFF7B8FC064623689B6813F0040F0FD056
:10151C00FFF7B0FC801B0A28F5D9A36A23F012034D
:10152C0043F01003A362002384F824300125A8E7BC
:10153C00A36A23F0030343F00103A3629EE7022591
:10154C009FE700BF08000020074AD36823F4E0633C
:10155C001B041B0C000200F4E060184340F0BF6059
:10156C0040F40030D060704700ED00E030B4174B11
:10157C00DB68C3F30223C3F10704042C28BF042443
:10158C001D1D062D18D9033B4FF0FF3505FA04F449
:10159C0021EA0401994005FA03F322EA03031943F3
:1015AC0000280BDB0901C9B200F1604000F5614075
:1015BC0080F8001330BC70470023E5E700F00F0003
:1015CC000901C9B2024B1954F4E700BF00ED00E069
:1015DC0014ED00E0002807DB00F01F024009012396
:1015EC009340024A42F82030704700BF00E100E00F
:1015FC000138B0F1807F0AD2064B5860064AF021C0
:10160C0082F823100020986007221A60704701208E
:10161C00704700BF10E000E000ED00E0044B00223A
:10162C00DA61044A136943F00103136101807047C6
:10163C0068010020002002401A4BDB6813F0100FE9
:10164C0027D0194AD36943F00203D3611023154AFA
:10165C00D26812F0040F06D01349CA6942F0010295
:10166C00CA6143F004030F4AD26912F0010F09D08A
:10167C000D49CA6942F00402CA610A49CA6922F0DA
:10168C000102CA6140F20112934204D0054AD360B0
:10169C0070470023DBE7034AD36923F00103D361CE
:1016AC00704700BF00200240680100200A4B1B69F4
:1016BC0013F0800F0DD0084B084A5A6002F18832A3
:1016CC005A601B6913F0800F01D001207047002075
:1016DC0070470020704700BF00200240230167457F
:1016EC0038B50446FFF7C6FB0546174BDB6813F00D
:1016FC00010F0AD0B4F1FF3FF7D00CB3FFF7BAFBE0
:10170C00401BA042F1D9032019E00F4BDB6813F00A
:10171C00200F02D00C4B2022DA600B4BDB6813F04D
:10172C00100F09D1084BDB6913F0010F04D1064BE4
:10173C00DB6813F0040F05D0FFF77EFF012038BDE6
:10174C000320FCE70020FAE7002002402DE9F843D3
:10175C00234C247E012C41D01E4690460F46044655
:10176C001F4B01221A764CF25030FFF7B9FF03469B
:10177C0070BB012C29D0022C24D04FF0040900247A
:10178C004C4525D22101C1F12002A1F1200328FAF8
:10179C0001F106FA02F2114326FA03F3194389B256
:1017AC0007EB4400FFF73AFF4CF25030FFF798FF7D
:1017BC000C4B1D6925F001051D61034640B9013430
:1017CC00E4B2DDE74FF00209D9E74FF00109D6E7A3
:1017DC00034A002111761846BDE8F8830223FAE784
:1017EC006801002000200240064B0022DA61064B03
:1017FC001A6942F004021A611A6942F040021A6135
:10180C00704700BF6801002000200240064B0022F8
:10181C00DA61064B1A6942F002021A6158611A69C0
:10182C0042F040021A61704768010020002002401B
:10183C00264B1B7E012B46D070B50E460446234B1F
:10184C0001221A760368022B20D04CF25030FFF79D
:10185C0047FF90BB4FF0FF333360A5680122E1686E
:10186C00A36803EB8123AB4228D92846FFF7CEFFB0
:10187C004CF25030FFF734FF154A136923F0020382
:10188C0013610246B8B905F58065E8E74CF25030B3
:10189C00FFF726FF08B1012210E00120FFF7A4FF9B
:1018AC004CF25030FFF71CFF024609490B6923F03C
:1018BC0004030B6102E0356000E00122034B0021C0
:1018CC001976104670BD0222104670476801002040
:1018DC0000200240F0B482B000263246A2E0002D77
:1018EC005AD0012D00D1CE68FF2B69D88446FF2B2E
:1018FC0069D89500DCF800400F27AF4024EA0704B4
:10190C0006FA05F52C43CCF800404C6814F0805FC7
:10191C0000F087805F4CA56945F00105A561A469BD
:10192C0004F001040194019C9508AF1C5A4C54F826
:10193C00274002F00307BF004FF00F0C0CFA07FC16
:10194C0024EA0C0C554CA04243D004F58064A04210
:10195C0000F0818004F58064A0427ED004F58064A0
:10196C00A04234D0042435E04D4FBD4214D00BD9E5
:10197C004C4FBD4210D007F58037BD420CD0A7F5B7
:10198C008017BD42B0D107E0A7F58017BD4203D048
:10199C0007F58037BD42A7D18D687DB1012D08D0E8
:1019AC0044610826A0E7CE6808369DE7CE680C3661
:1019BC009AE70461082697E7002695E7042693E743
:1019CC0000F1040C93E7A2F10805AD0092E70324A3
:1019DC0000E00024BC4044EA0C0402352E4F47F8CA
:1019EC0025404C6814F4803F39D02F4D2C681C4393
:1019FC002C604C6814F4003F37D02B4D6C681C43A2
:101A0C006C604C6814F4801F35D0274DAC681C43B7
:101A1C00AC604C6814F4001F33D0234DEC682343A6
:101A2C00EB6001320B6833FA02F430D0012494409D
:101A3C0023409C42F5D14D68122DB7D094D8022D7D
:101A4C00B1D07FF64CAF032DB6D0112D7FF44CAF37
:101A5C00CE68043648E70124BCE70224BAE7124DED
:101A6C002C6824EA03042C60C3E70F4D6C6824EA4D
:101A7C0003046C60C5E70C4DAC6824EA0304AC604D
:101A8C00C7E7094DEC6824EA0303EB60C9E702B031
:101A9C00F0BC7047001002400000014000080140FB
:101AAC00000021100000311000040140836819422D
:101ABC0001D1002070470120704712B9090401615F
:101ACC00704701617047000082B0084B1B68084AE0
:101ADC00A2FB03235B0A00FB03F0019000BF019BF8
:101AEC005A1E0192002BF9D102B070470800002059
:101AFC00D34D6210002800F0F58170B582B0044619
:101B0C00036813F0010F2CD0AB4B5B6803F00C0394
:101B1C00042B1DD0A84B5B6803F00C03082B12D0D0
:101B2C006368B3F5803F41D0002B55D103F180435E
:101B3C0003F504331A6822F480321A601A6822F40E
:101B4C0080221A6037E09C4B5B6813F4803FE7D02F
:101B5C00994B1B6813F4003F03D06368002B00F013
:101B6C00C381236813F0020F76D0934B5B6813F09C
:101B7C000C0F5FD0904B5B6803F00C03082B54D018
:101B8C002369002B00F08A808C4B01221A60FFF72E
:101B9C0071F90546884B1B6813F0020F75D1FFF7DE
:101BAC0069F9401B0228F5D90320A0E1824A136889
:101BBC0043F480331360636843B3FFF75BF9054666
:101BCC007D4B1B6813F4003FCBD1FFF753F9401B3F
:101BDC006428F5D903208AE1B3F5A02F09D0764B00
:101BEC001A6822F480321A601A6822F480221A6071
:101BFC00E1E703F18043A3F53C331A6842F48022F9
:101C0C001A601A6842F480321A60D4E7FFF732F98E
:101C1C000546694B1B6813F4003FA2D0FFF72AF965
:101C2C00401B6428F5D9032061E1634B5B6813F416
:101C3C00803FA5D1604B1B6813F0020F04D02369C1
:101C4C00012B01D0012052E15B4A136823F0F80309
:101C5C00616943EAC1031360236813F0080F32D0A3
:101C6C00A369002B5BD0564B01221A60FFF702F9D7
:101C7C000546514B5B6A13F0020F21D1FFF7FAF8BE
:101C8C00401B0228F5D9032031E14B4A136823F09D
:101C9C00F803616943EAC1031360DDE7474B002297
:101CAC001A60FFF7E7F80546434B1B6813F0020F69
:101CBC00D2D0FFF7DFF8401B0228F5D9032016E13C
:101CCC000120FFF701FF236813F0040F00F0988048
:101CDC00394BDB6913F0805F33D1374BDA6942F053
:101CEC008052DA61DB6903F080530193019B01257B
:101CFC00344B1B6813F4807F25D0E368012B36D05E
:101D0C00002B4CD103F1804303F504331A6A22F003
:101D1C0001021A621A6A22F004021A622CE0284BA1
:101D2C0000221A60FFF7A6F80546234B5B6A13F0F6
:101D3C00020FC8D0FFF79EF8401B0228F5D90320EC
:101D4C00D5E00025D4E71F4A136843F48073136071
:101D5C00FFF790F806461B4B1B6813F4807FCCD121
:101D6C00FFF788F8801B6428F5D90320BFE0124ADE
:101D7C00136A43F001031362E3687BB3FFF77AF84D
:101D8C0006460D4B1B6A13F0020F38D1FFF772F8A1
:101D9C00801B41F288339842F3D90320A7E0052B2E
:101DAC0012D0054B1A6A22F001021A621A6A22F04A
:101DBC0004021A62E0E700BF001002400000424239
:101DCC0080044242007000404C4B1A6A42F00402FC
:101DDC001A621A6A42F001021A62CDE7FFF74AF85A
:101DEC000646464B1B6A13F0020F08D0FFF742F869
:101DFC00801B41F288339842F3D9032077E0E5B990
:101E0C00E369002B72D03D4A526802F00C02082A9A
:101E1C0056D0022B17D03A4B00221A60FFF72AF843
:101E2C000446364B1B6813F0007F47D0FFF722F8AF
:101E3C00001B0228F5D9032059E0304AD36923F05E
:101E4C008053D361DCE72E4B00221A60FFF712F8A7
:101E5C0005462A4B1B6813F0007F06D0FFF70AF8E3
:101E6C00401B0228F5D9032041E0236AB3F5803FDB
:101E7C001AD022494B6823F47413226A606A024315
:101E8C0013434B601E4B01221A60FEF7F3FF04460E
:101E9C001A4B1B6813F0007F0ED1FEF7EBFF001BF3
:101EAC000228F5D9032022E0144A536823F40033A6
:101EBC00A1680B435360DCE7002018E0002016E01B
:101ECC00012B16D00D4B5B6803F48031226A9142D2
:101EDC0001D001200BE003F47013626A93420AD024
:101EEC00012004E001207047012000E0002002B036
:101EFC0070BD0120FBE70020F9E700BF0010024095
:101F0C006000424210B487B0164C94E80F000DF1FB
:101F1C00180C0CE90F00238AADF80430124B5B68E7
:101F2C0003F00C02082A1AD1C3F38342624412F85C
:101F3C00102C13F4803F05D10C4800FB02F007B0C5
:101F4C0010BC7047084B5B68C3F34043634413F801
:101F5C00143C074800FB02F0B0FBF3F0EFE7044839
:101F6C00EDE700BF843200080010024000093D007C
:101F7C0000127A00002800F0A38070B50446524B82
:101F8C001B6803F007038B420CD24F4A136823F0F3
:101F9C0007030B431360136803F007038B4201D054
:101FAC00012070BD236813F0020F17D013F0040F3B
:101FBC0004D0464A536843F4E0635360236813F03B
:101FCC00080F04D0414A536843F4605353603F4AAE
:101FDC00536823F0F003A068034353600D46236855
:101FEC0013F0010F31D06368012B20D0022B25D0C8
:101FFC00364A126812F0020F64D034494A6822F053
:10200C00030213434B60FEF735FF06462F4B5B680C
:10201C0003F00C036268B3EB820F16D0FEF72AFFB5
:10202C00801B41F288339842F0D90320B9E7274A44
:10203C00126812F4003FE0D10120B2E7234A126883
:10204C0012F0007FD9D10120ABE71F4B1B6803F0C6
:10205C000703AB420CD91C4A136823F007032B432C
:10206C001360136803F00703AB4201D0012098E71B
:10207C00236813F0040F06D0144A536823F4E0636A
:10208C00E1680B435360236813F0080F07D00F4A25
:10209C00536823F46053216943EAC1035360FFF78B
:1020AC0031FF0A4B5B68C3F30313094AD35CD84076
:1020BC00084B1860084B1868FEF79AFE002070E772
:1020CC000120704701206CE7002002400010024004
:1020DC006C3200080800002010000020014B18682A
:1020EC00704700BF0800002008B5FFF7F7FF044B4E
:1020FC005B68C3F30223034AD35CD84008BD00BF1E
:10210C00001002407C32000808B5FFF7E7FF044BD3
:10211C005B68C3F3C223034AD35CD84008BD00BF3D
:10212C00001002407C32000870B582B0044603688F
:10213C0013F0010F34D03E4BDB6913F0805F48D1B4
:10214C003B4BDA6942F08052DA61DB6903F0805371
:10215C000193019B0125374B1B6813F4807F3AD008
:10216C00334B1B6A13F4407311D0626802F4407253
:10217C009A420CD02E4A136A23F440702E49012641
:10218C000E6000260E60106213F0010F37D1284A42
:10219C00136A23F4407361680B431362002D3FD123
:1021AC00236813F0020F06D0214A536823F44043EE
:1021BC00A1680B435360236813F0100F35D01C4AF1
:1021CC00536823F48003E1680B435360002002B092
:1021DC0070BD0025BFE7174A136843F48073136082
:1021EC00FEF748FE0646134B1B6813F4807FB7D1ED
:1021FC00FEF740FE801B6428F5D90320E7E7FEF7C5
:10220C0039FE06460A4B1B6A13F0020FBFD1FEF7CC
:10221C0031FE801B41F288339842F3D90320D6E774
:10222C00D36923F08053D361BAE70020CFE700BF16
:10223C0000100240007000404004424230B587B0AC
:10224C000546384C94E80F000DF1180C0CE90F0002
:10225C00238AADF80430022D50D0102D03D0012D5F
:10226C002BD0002054E0304B5A681B6813F0807F51
:10227C0050D0C2F3834306A90B4413F8100C12F48C
:10228C00803F16D0284B5B68C3F340430B4413F8D4
:10229C00142C264BB3FBF2F300FB03F0224B5B68D0
:1022AC0013F4800F34D14000214BA3FB00304008C5
:1022BC002EE0204B03FB00F0F0E71B4B1B6A40F2B7
:1022CC0002321A40B2F5817F26D003F44073B3F585
:1022DC00007F04D0B3F5407F09D0002018E0124AEB
:1022EC00526A12F0020FF5D049F6404010E00E4B46
:1022FC001B6813F4003F12D1002009E0FFF704FF24
:10230C00094B5B68C3F3813301335B00B0FBF3F023
:10231C0007B030BD0020FBE74FF40040F8E74FF268
:10232C002440F5E7983200080010024000127A00B1
:10233C00ABAAAAAA00093D0010B4036A046A24F0EF
:10234C0001040462846924F0F00444EA021223F0CC
:10235C000A030B438261036210BC704710B4036A1A
:10236C0023F0100303628469036A24F4704444EA82
:10237C00023223F0A00343EA01138261036210BC12
:10238C007047836823F07003194341F007018160A3
:10239C0070477047704770477047704710B50446D8
:1023AC0003681A6912F0020F11D0DA6812F0020FEA
:1023BC000DD06FF002021A610123037703689B6949
:1023CC0013F0030F70D0FFF7E6FF00232377236889
:1023DC001A6912F0040F12D0DA6812F0040F0ED042
:1023EC006FF004021A610223237723689B6913F4AC
:1023FC00407F5FD02046FFF7CEFF00232377236872
:10240C001A6912F0080F12D0DA6812F0080F0ED009
:10241C006FF008021A61042323772368DB6913F039
:10242C00030F4ED02046FFF7B6FF00232377236817
:10243C001A6912F0100F12D0DA6812F0100F0ED0C9
:10244C006FF010021A61082323772368DB6913F4F9
:10245C00407F3DD02046FFF79EFF00232377236863
:10246C001A6912F0010F03D0DA6812F0010F36D19D
:10247C0023681A6912F0800F03D0DA6812F0800F0B
:10248C0034D123681A6912F0400F03D0DA6812F0C5
:10249C00400F32D123681A6912F0200F03D0DA688A
:1024AC0012F0200F30D110BDFFF774FF2046FFF75C
:1024BC0073FF8AE72046FFF76DFF2046FFF76CFF9E
:1024CC009BE72046FFF766FF2046FFF765FFACE76A
:1024DC002046FFF75FFF2046FFF75EFFBDE76FF07A
:1024EC0001021A612046FFF754FFC1E76FF080022A
:1024FC001A61204600F023F9C3E76FF040021A611D
:10250C002046FFF74AFFC5E76FF020021A6120460C
:10251C0000F014F9C7E7000003681B4A90420AD088
:10252C00B0F1804F07D0A2F59432904203D002F55F
:10253C008062904203D123F070034A681343124A1D
:10254C0090420AD0B0F1804F07D0A2F5943290425D
:10255C0003D002F58062904203D123F44073CA6821
:10256C00134323F080034A69134303608B68C362EF
:10257C000B688362044B984202D00123436170477D
:10258C000B690363F9E700BF002C014038B310B5A9
:10259C00044690F83D30EBB1022384F83D30211D08
:1025AC002068FFF7B9FF012384F8463084F83E30E9
:1025BC0084F83F3084F8403084F8413084F842305D
:1025CC0084F8433084F8443084F8453084F83D3046
:1025DC00002010BD80F83C30FEF76AFBDCE70120E0
:1025EC00704710B4846824F47F4442EA03230B43FD
:1025FC002343836010BC704790F83C30012B66D0AD
:10260C0010B50446012380F83C30022380F83D309D
:10261C000268936823F47F4323F0770393600B687D
:10262C00402B4AD013D9602B3DD01ED9702B28D00B
:10263C00B3F5005F30D1CB684A6889680068FFF752
:10264C00D0FF2268936843F48043936024E0102BFE
:10265C0006D004D9202B03D0302B01D01CE0DBB9E1
:10266C0019462068FFF78DFE16E0502B14D1CA686E
:10267C0049680068FFF760FE50212068FFF781FE73
:10268C000AE0CB684A6889680068FFF7AAFF2268ED
:10269C00936843F077039360012384F83D30002066
:1026AC0084F83C0010BDCA6849680068FFF756FE04
:1026BC0060212068FFF765FEEEE7CA68496800688C
:1026CC00FFF73AFE40212068FFF75BFEE4E70220AB
:1026DC007047000090F83C30012B2BD030B4012314
:1026EC0080F83C30022380F83D3003685C689D68BC
:1026FC0024F070040A6822435A6003680E4A93421D
:10270C000AD0B3F1804F07D0A2F59432934203D094
:10271C0002F58062934204D125F080054A68154386
:10272C009D60012380F83D30002380F83C30184632
:10273C0030BC704702207047002C01407047704736
:10274C0038B504460268136923F44053C1680B433F
:10275C00136183680269134342691A430168CB68A9
:10276C0023F4B05323F00C031343CB60026853697A
:10277C0023F4407381690B4353610268124B9A42F4
:10278C001FD0FFF7B1FC00EB800000EB800063680A
:10279C009B00B0FBF3F00D4DA5FB003251096422F8
:1027AC0002FB110213013233A5FB03235B0903F077
:1027BC00F00202EB011203F00F03216813448B604B
:1027CC0038BDFFF7A1FCDEE7003801401F85EB5157
:1027DC002DE9F04105460F4616469846069C2B6897
:1027EC001B6837EA03030CBF01230023B3421DD13E
:1027FC00B4F1FF3FF3D02CB1FEF73CFBA0EB08008B
:10280C00A042ECD92A68D36823F4D073D3602A6829
:10281C00536923F001035361202385F8393085F87F
:10282C003A30002385F83830032000E00020BDE862
:10283C00F08158B310B5044690F839300BB324230B
:10284C0084F839302268D36823F40053D3602046CF
:10285C00FFF776FF2268136923F490431361226813
:10286C00536923F02A0353612268D36843F400535D
:10287C00D3600020E063202384F8393084F83A30A8
:10288C0010BD80F83830FEF73BFAD8E701207047CE
:10289C002DE9F04182B01E4690F83930DBB2202B86
:1028AC0054D104460D469046002954D0002A54D0E9
:1028BC0090F83830012B52D0012380F838300023A7
:1028CC00C363212380F83930FEF7D4FA0746A4F805
:1028DC002480A4F82680A368B3F5805F05D04FF060
:1028EC000008002384F8383011E0236913B14FF04D
:1028FC000008F6E7A8460025F3E738F8023B226803
:10290C00C3F308035360E38C013B9BB2E384E38C79
:10291C009BB273B100963B46002280212046FFF704
:10292C0057FFF0B9002DE8D015F8012B23685A6039
:10293C00E9E700963B46002240212046FFF748FF7E
:10294C00034680B9202284F8392000E0022318467F
:10295C0002B0BDE8F0810123F9E70123F7E7022378
:10296C00F5E70323F3E70323F1E70000002103E07D
:10297C000B4B5B58435004310A480B4B42189A429C
:10298C00F6D30A4A02E0002342F8043B084B9A4271
:10299C00F9D3FEF72BFA00F039F8FDF761FF704719
:1029AC00043300080000002078000020780000208C
:1029BC008C010020FEE700000EB430B500249CB062
:1029CC001FAB05460C490D4853F8042BCDE90514F3
:1029DC00006802A9019302940494079400F09CF8F7
:1029EC000028A1BF029B1C70069B2B601CB0BDE88D
:1029FC00304003B0704700BF8802FFFF1400002076
:102A0C00014B1868704700BF1400002070B50025FA
:102A1C000C4E0D4CA41BA410A54209D100F014FCC3
:102A2C0000250A4E0A4CA41BA410A54205D170BD6A
:102A3C0056F8253098470135EEE756F8253098477B
:102A4C000135F2E7FC320008FC320008FC320008C9
:102A5C000033000803460244934200D1704703F848
:102A6C00011BF9E72DE9F0478E6882469E420C4621
:102A7C009046994637D88A8912F4906F31D0022348
:102A8C00256809696F1A656905EB450595FBF3F532
:102A9C0009F101033B449D4238BF1D46530530D517
:102AAC00294600F037FB064650B90C234FF0FF3097
:102ABC00CAF80030A38943F04003A381BDE8F08736
:102ACC003A46216900F0B6FAA38923F4906343F0E7
:102ADC008003A38126613E4426604E466561ED1B52
:102AEC00A5604E4500D94E4632464146206800F05E
:102AFC00ACFAA36800209B1BA36023681E442660CD
:102B0C00DCE72A4600F060FB06460028E2D121698A
:102B1C00504600F0B3FAC8E72DE9F04F1D468B89FB
:102B2C009DB01F0680460C4616460FD50B696BB937
:102B3C00402100F0EFFA2060206128B90C23C8F87E
:102B4C0000304FF0FF30C8E040236361002309934D
:102B5C0020238DF8293030234FF0010B8DF82A30CB
:102B6C00039537463D4615F8013B0BB1252B3ED15D
:102B7C00B7EB060A0BD05346324621464046FFF7C8
:102B8C0071FF013000F0A480099B534409933B78FA
:102B9C00002B00F09D8000234FF0FF32CDE9052380
:102BAC00049307938DF853301A932F46052217F888
:102BBC00011B504800F030FA049BD0B9D90644BF31
:102BCC0020228DF853201A0744BF2B228DF8532056
:102BDC002A782A2A15D02F4600200A25079A39462A
:102BEC0011F8013B303B092B4DD9B8B10FE02F4602
:102BFC00B8E7404A3D46801A0BFA00F0184304909F
:102C0C00D3E7039A111D12680391002A01DB079286
:102C1C0004E0524243F00203079204933B782E2BBC
:102C2C000CD17B782A2B33D1039B02371A1D1B68DE
:102C3C000392002BB8BF4FF0FF3305932E4D0322A8
:102C4C003978284600F0E8F938B14023401B03FAE4
:102C5C0000F0049B0137034304933978062227487C
:102C6C007E1C8DF8281000F0D7F9002838D0244BA2
:102C7C0013BB039B073323F0070308330393099B10
:102C8C004B4409936DE705FB023201200F46A6E782
:102C9C0000230A25194601370593384610F8012BF5
:102CAC00303A092A03D9002BC8D00591C6E705FB99
:102CBC00012101230746F0E703AB00932246114B99
:102CCC0004A94046AFF30080B0F1FF3F8146D6D156
:102CDC00A3895B063FF535AF09981DB0BDE8F08FB1
:102CEC0003AB00932246074B04A9404600F082F840
:102CFC00EAE700BFC8320008CE320008D232000822
:102D0C0000000000712A00082DE9F04791461F468B
:102D1C008A680B6906469342B8BF1346C9F800305F
:102D2C0091F843200C46DDF8208012B10133C9F82C
:102D3C0000302368990642BFD9F800300233C9F835
:102D4C000030256815F0060507D104F1190AE3686F
:102D5C00D9F800209B1AAB4229DC94F84330226846
:102D6C00003318BF012392062ED404F143023946D6
:102D7C003046C047013021D02368E56803F00603D4
:102D8C00042B18BF0025D9F800204FF0000908BF0C
:102D9C00AD1AA368226908BF25EAE5759342C4BF42
:102DAC009B1AED181A344D451AD1002008E0012366
:102DBC00524639463046C047013003D14FF0FF3000
:102DCC00BDE8F0870135C2E73020E11881F84300F7
:102DDC005A1C94F845102244023382F84310C4E77D
:102DEC000123224639463046C0470130E6D009F16E
:102DFC000109D8E72DE9F04301F1430C0C46097E9B
:102E0C0085B06E291746064698460C9A00F0B3809A
:102E1C0022D8632936D00AD8002900F0B980582965
:102E2C0000F0838004F1420584F8421032E06429FA
:102E3C0001D06929F6D120681368050603F1040155
:102E4C002AD51B681160002B03DA2D225B4284F813
:102E5C0043206F480A2239E0732900F09D8008D87E
:102E6C006F2920D07029DDD1236843F02003236023
:102E7C0003E0752917D07829D4D17823654884F8D4
:102E8C00453055E0136804F14205191D1B681160AB
:102E9C0084F8423001238CE01B6810F0400F116065
:102EAC0018BF1BB2CFE713682568181D10602806E1
:102EBC0001D51B6802E06806FBD51B886F2914BF7F
:102ECC000A2208225248002184F843106568002D1C
:102EDC00A560C0F29580216821F004012160002BCF
:102EEC003DD1002D40F08E806546082A0BD1236819
:102EFC00DB0708D5236962689A42DEBF302305F8E8
:102F0C00013C05F1FF35ACEB05032361CDF80080E6
:102F1C003B4603AA21463046FFF7F6FE01304DD161
:102F2C004FF0FF3005B0BDE8F083394884F8451008
:102F3C00136821681D1D1B6815600A060BD5CA078E
:102F4C0044BF41F0200121601BB9226822F020020D
:102F5C0022601022B7E74D0648BF9BB2EFE76546EB
:102F6C00B3FBF2F102FB1133C35C05F8013D0B46D8
:102F7C000029F5D1B9E713682568181D616910603F
:102F8C0028061B6801D5196002E06A06FBD519807A
:102F9C00002365462361B9E71368191D11601D688C
:102FAC0062680021284600F037F808B1401B6060C9
:102FBC0063682361002384F84330A7E723692A461A
:102FCC0039463046C0470130AAD023689B0713D43A
:102FDC00E068039B9842B8BF1846A3E701234A4612
:102FEC0039463046C04701309AD00135E368039A20
:102FFC009B1AAB42F2DCEBE7002504F11909F5E76B
:10300C00002BACD1037804F1420584F842306CE714
:10301C00D9320008EA32000810B5C9B20244904215
:10302C00034601D1002303E01C7801308C42F6D119
:10303C00184610BD10B5431E0A44914200D110BD74
:10304C0011F8014B03F8014FF7E7884210B501EB7B
:10305C00020307D8421E99420AD011F8014B02F81C
:10306C00014FF8E78342F5D98118D21AD34200D127
:10307C0010BD13F8014D01F8014DF7E738B50546C1
:10308C00002943D051F8043C0C1F002BB8BFE418A6
:10309C0000F0D0F81E4A1368104633B96360146010
:1030AC002846BDE8384000F0C6B8A3420BD92168C9
:1030BC006218934201BF1A685B6852182260636001
:1030CC000460EDE713465A680AB1A242FAD91968AE
:1030DC005818A0420BD1206801445818824219603C
:1030EC00DED110685268014419605A60D8E702D9E1
:1030FC000C232B60D4E7206821188A4201BF116889
:10310C0052680918216062605C60C9E738BD00BF75
:10311C00A000002070B5CD1C25F0030508350C2D42
:10312C0038BF0C25002D064601DBA94203D90C2320
:10313C003360002070BD00F07DF8214A14682146F0
:10314C0091B9204C23681BB9304600F063F820601D
:10315C002946304600F05EF8431C24D10C2330463F
:10316C00336000F068F8E4E70B685B1B18D40B2B9A
:10317C000FD90B60CC18CD50304600F05CF804F140
:10318C000B00231D20F00700C31AD3D05A42E25083
:10319C00D0E74B688C4216BF636013600C46EBE7BC
:1031AC000C464968CCE7C41C24F00304A04205D0AB
:1031BC00211A304600F02EF80130CFD02560DBE725
:1031CC00A0000020A4000020F8B5074614460E46C7
:1031DC0021B9BDE8F8401146FFF79CBF22B9FFF7B3
:1031EC004DFF25462846F8BD00F026F8A0420FD228
:1031FC0021463846FFF78EFF05460028F2D03146AF
:10320C002246FFF717FF31463846FFF737FFE9E74D
:10321C003546E7E738B50023054C054608462360DC
:10322C00FDF7C6FD431C02D1236803B12B6038BDEA
:10323C00880100207047704751F8043C181F002B80
:10324C00BCBF0B58C0187047F8B500BFF8BC08BC21
:10325C009E467047F8B500BFF8BC08BC9E46704748
:10326C00000000000000000001020304060708092A
:10327C00000000000102030402030405060708090C
:10328C000A0B0C0D0E0F10100102000002030405B6
:10329C00060708090A0B0C0D0E0F10100102000096
:1032AC00204D6F746F72312C25692C25692C256982
:1032BC002C25692C25692C2569200000232D302B09
:1032CC002000686C4C00656667454647003031321B
:1032DC003334353637383941424344454600303172
:1032EC0032333435363738396162636465660000D1
:0432FC003101000894
:043300000D010008B3
:1033040055550000000000000024F40001000000F6
:103314001000000018000020000000000000000061
:103324000000000000000000000000000000000099
:103334000000000000000000000000000000000089
:103344000000000000000000000000000000000079
:103354000000000000000000000000000000000069
:103364000000000000000000000000000000000059
:08337400000000000000000051
:04000005080029794D
:00000001FF
