:020000040800F2
:1000000000500020C1670008852A0008872A0008E0
:10001000892A00088B2A00088D2A000800000000A9
:100020000000000000000000000000004163000824
:100030008F2A000800000000E16300082564000822
:1000400009680008096800080968000809680008CC
:100050000968000809680008912A00080968000872
:1000600009680008096800080968000809680008AC
:10007000096800080968000809680008096800089C
:10008000096800080968000809680008096800088C
:10009000096800080968000809680008096800087C
:1000A0009D2A0008AD2A00080968000809680008B0
:1000B0000968000809680008BD2A000809680008E6
:1000C000096800080968000809680008096800084C
:1000D000096800080968000809680008096800083C
:1000E000CD2A00080968000809680008000000001F
:1000F0000000000000000000000000000000000000
:0C01000000000000000000005FF808F1A3
:1001100010B5054C237833B9044B13B10448AFF341
:1001200000800123237010BD980000200000000013
:100130009870000808B5034B1BB103490348AFF39F
:10014000008008BD000000009C000020987000089E
:1001500081F0004102E000BF83F0004330B54FEA78
:1001600041044FEA430594EA050F08BF90EA020FE5
:100170001FBF54EA000C55EA020C7FEA645C7FEA78
:10018000655C00F0E2804FEA5454D4EB5555B8BF9B
:100190006D420CDD2C4480EA020281EA030382EA0C
:1001A000000083EA010180EA020281EA0303362D9E
:1001B00088BF30BD11F0004F4FEA01314FF4801C71
:1001C0004CEA113102D0404261EB410113F0004F83
:1001D0004FEA03334CEA133302D0524263EB43033A
:1001E00094EA050F00F0A780A4F10104D5F1200ED8
:1001F0000DDB02FA0EFC22FA05F2801841F1000133
:1002000003FA0EF2801843FA05F359410EE0A5F106
:1002100020050EF1200E012A03FA0EFC28BF4CF037
:10022000020C43FA05F3C01851EBE37101F00045ED
:1002300007D54FF0000EDCF1000C7EEB00006EEBFA
:100240000101B1F5801F1BD3B1F5001F0CD3490884
:100250005FEA30004FEA3C0C04F101044FEA4452DB
:1002600012F5800F80F09A80BCF1004F08BF5FEA62
:10027000500C50F1000041EB045141EA050130BD42
:100280005FEA4C0C404141EB010111F4801FA4F1E5
:100290000104E9D191F0000F04BF01460020B1FA3A
:1002A00081F308BF2033A3F10B03B3F120020CDA72
:1002B0000C3208DD02F1140CC2F10C0201FA0CF050
:1002C00021FA02F10CE002F11402D8BFC2F1200CB5
:1002D00001FA02F120FA0CFCDCBF41EA0C0190406B
:1002E000E41AA2BF01EB0451294330BD6FEA0404B4
:1002F0001F3C1CDA0C340EDC04F11404C4F120029F
:1003000020FA04F001FA02F340EA030021FA04F3B0
:1003100045EA030130BDC4F10C04C4F1200220FA07
:1003200002F001FA04F340EA0300294630BD21FA45
:1003300004F0294630BD94F0000F83F4801306BF0B
:1003400081F480110134013D4EE77FEA645C18BFFF
:100350007FEA655C29D094EA050F08BF90EA020F96
:1003600005D054EA000C04BF1946104630BD91EA8E
:10037000030F1EBF0021002030BD5FEA545C05D191
:100380004000494128BF41F0004130BD14F58004D0
:100390003CBF01F5801130BD01F0004545F0FE4144
:1003A00041F470014FF0000030BD7FEA645C1ABF79
:1003B000194610467FEA655C1CBF0B46024650EAB0
:1003C000013406BF52EA033591EA030F41F40021DC
:1003D00030BD00BF90F0000F04BF0021704730B562
:1003E0004FF4806404F132044FF000054FF0000137
:1003F00050E700BF90F0000F04BF0021704730B5F8
:100400004FF4806404F1320410F0004548BF4042CC
:100410004FF000013EE700BF42004FEAE2014FEA21
:1004200031014FEA02701FBF12F07F4393F07F4FFC
:1004300081F06051704732F07F4208BF704793F0FF
:100440007F4F04BF41F40021704730B54FF4607412
:1004500001F0004521F000411CE700BF50EA010215
:1004600008BF704730B54FF000050AE050EA0102BE
:1004700008BF704730B511F0004502D5404261EB2E
:1004800041014FF4806404F132045FEA915C3FF46F
:10049000D8AE4FF003025FEADC0C18BF03325FEA0C
:1004A000DC0C18BF033202EBDC02C2F1200300FABD
:1004B00003FC20FA02F001FA03FE40EA0E0021FAE2
:1004C00002F11444BDE600BF70B54FF0FF0C4CF4D0
:1004D000E06C1CEA11541DBF1CEA135594EA0C0F82
:1004E00095EA0C0F00F0DEF82C4481EA030621EABD
:1004F0004C5123EA4C5350EA013518BF52EA0335F8
:1005000041F4801143F4801338D0A0FB02CE4FF0A9
:100510000005E1FB02E506F00042E0FB03E54FF0D9
:100520000006E1FB03569CF0000F18BF4EF0010ED1
:10053000A4F1FF04B6F5007F64F5407404D25FEACD
:100540004E0E6D4146EB060642EAC62141EA555180
:100550004FEAC52040EA5E504FEACE2EB4F1FD0CC2
:1005600088BFBCF5E06F1ED8BEF1004F08BF5FEA40
:10057000500E50F1000041EB045170BD06F00046F2
:1005800046EA010140EA020081EA0301B4EB5C049F
:10059000C2BFD4EB0C0541EA045170BD41F4801197
:1005A0004FF0000E013C00F3AB8014F1360FDEBFBC
:1005B000002001F0004170BDC4F10004203C35DA98
:1005C0000C341BDC04F11404C4F1200500FA05F31B
:1005D00020FA04F001FA05F240EA020001F00042BC
:1005E00021F0004110EBD37021FA04F642EB060132
:1005F0005EEA430E08BF20EAD37070BDC4F10C045C
:10060000C4F1200500FA04F320FA05F001FA04F21F
:1006100040EA020001F0004110EBD37041F100010B
:100620005EEA430E08BF20EAD37070BDC4F1200516
:1006300000FA05F24EEA020E20FA04F301FA05F27E
:1006400043EA020321FA04F001F0004121FA04F226
:1006500020EA020000EBD3705EEA430E08BF20EAF6
:10066000D37070BD94F0000F0FD101F00046400030
:1006700041EB010111F4801F08BF013CF7D041EAB2
:10068000060195F0000F18BF704703F000465200B6
:1006900043EB030313F4801F08BF013DF7D043EA87
:1006A0000603704794EA0C0F0CEA135518BF95EA3D
:1006B0000C0F0CD050EA410618BF52EA4306D1D1C4
:1006C00081EA030101F000414FF0000070BD50EAE3
:1006D000410606BF1046194652EA430619D094EA6D
:1006E0000C0F02D150EA013613D195EA0C0F05D157
:1006F00052EA03361CBF104619460AD181EA0301AB
:1007000001F0004141F0FE4141F470014FF0000062
:1007100070BD41F0FE4141F4780170BD70B54FF0FD
:10072000FF0C4CF4E06C1CEA11541DBF1CEA13557D
:1007300094EA0C0F95EA0C0F00F0A7F8A4EB05045F
:1007400081EA030E52EA03354FEA013100F0888056
:100750004FEA03334FF0805545EA131343EA12631F
:100760004FEA022245EA111545EA10654FEA0026D4
:100770000EF000419D4208BF964244F1FD0404F58D
:10078000407402D25B084FEA3202B61A65EB0305E9
:100790005B084FEA32024FF480104FF4002CB6EBA6
:1007A000020E75EB030E22BFB61A754640EA0C0026
:1007B0005B084FEA3202B6EB020E75EB030E22BF66
:1007C000B61A754640EA5C005B084FEA3202B6EBA7
:1007D000020E75EB030E22BFB61A754640EA9C0066
:1007E0005B084FEA3202B6EB020E75EB030E22BF36
:1007F000B61A754640EADC0055EA060E18D04FEAF4
:10080000051545EA16754FEA06164FEAC30343EA93
:1008100052734FEAC2025FEA1C1CC0D111F4801F60
:100820000BD141EA00014FF000004FF0004CB6E759
:1008300011F4801F04BF01430020B4F1FD0C88BFF8
:10084000BCF5E06F3FF6AFAEB5EB030C04BFB6EB03
:10085000020C5FEA500C50F1000041EB045170BDF6
:100860000EF0004E4EEA113114EB5C04C2BFD4EB23
:100870000C0541EA045170BD41F480114FF0000EA7
:10088000013C90E645EA060E8DE60CEA135594EA23
:100890000C0F08BF95EA0C0F3FF43BAF94EA0C0F26
:1008A0000AD150EA01347FF434AF95EA0C0F7FF49B
:1008B00025AF104619462CE795EA0C0F06D152EAEF
:1008C00003353FF4FDAE1046194622E750EA4106D3
:1008D00018BF52EA43067FF4C5AE50EA41047FF4E4
:1008E0000DAF52EA43057FF4EBAE12E74FF0FF3C49
:1008F00006E000BF4FF0010C02E000BF4FF0010C1A
:100900004DF804CD4FEA410C7FEA6C5C4FEA430C92
:1009100018BF7FEA6C5C1BD001B050EA410C0CBFE1
:1009200052EA430C91EA030F02BF90EA020F002043
:10093000704710F1000F91EA030F58BF994208BFAA
:1009400090422CBFD8176FEAE37040F00100704767
:100950004FEA410C7FEA6C5C02D150EA013C07D1BE
:100960004FEA430C7FEA6C5CD6D152EA033CD3D009
:100970005DF8040B704700BF8446104662468C4603
:100980001946634600E000BF01B5FFF7B7FF002836
:1009900048BF10F1000F01BD4DF808EDFFF7F4FF5F
:1009A0000CBF012000205DF808FB00BF4DF808EDEA
:1009B000FFF7EAFF34BF012000205DF808FB00BF0D
:1009C0004DF808EDFFF7E0FF94BF012000205DF82F
:1009D00008FB00BF4DF808EDFFF7CEFF94BF0120E4
:1009E00000205DF808FB00BF4DF808EDFFF7C4FFDD
:1009F00034BF012000205DF808FB00BF4A0011D27F
:100A000012F5001211D20DD56FF47873B3EB625268
:100A10000ED44FEAC12343F0004343EA505323FA74
:100A200002F070474FF00000704750EA013002D1E9
:100A30004FF0FF3070474FF0000070474FEA41021F
:100A4000B2F1E04324BFB3F5001CDCF1FE5C0DD92C
:100A500001F0004C4FEAC0024CEA5070B2F1004F76
:100A600040EB830008BF20F00100704711F0804F79
:100A700021D113F13872BCBF01F00040704741F43E
:100A800080114FEA5252C2F11802C2F1200C10FA42
:100A90000CF320FA02F018BF40F001004FEAC12326
:100AA0004FEAD32303FA0CFC40EA0C0023FA02F3CA
:100AB0004FEA4303CCE77FEA625307D150EA0133A0
:100AC0001EBF4FF0FE4040F44000704701F0004070
:100AD00040F0FE4040F40000704700BF80F000404E
:100AE00002E000BF81F0004142001FBF5FEA410306
:100AF00092EA030F7FEA226C7FEA236C6AD04FEA06
:100B00001262D2EB1363C1BFD2184140484041404A
:100B1000B8BF5B42192B88BF704710F0004F40F4FC
:100B2000000020F07F4018BF404211F0004F41F418
:100B3000000121F07F4118BF494292EA030F3FD0E4
:100B4000A2F1010241FA03FC10EB0C00C3F12003F7
:100B500001FA03F100F0004302D5494260EB400086
:100B6000B0F5000F13D3B0F1807F06D340084FEAF1
:100B7000310102F10102FE2A51D2B1F1004F40EBE6
:100B8000C25008BF20F0010040EA0300704749004E
:100B900040EB000010F4000FA2F10102EDD1B0FA19
:100BA00080FCACF1080CB2EB0C0200FA0CF0AABF0E
:100BB00000EBC25052421843BCBFD04018437047AC
:100BC00092F0000F81F4000106BF80F400000132B2
:100BD000013BB5E74FEA41037FEA226C18BF7FEA89
:100BE000236C21D092EA030F04D092F0000F08BFCB
:100BF0000846704790EA010F1CBF0020704712F0B2
:100C00007F4F04D1400028BF40F00040704712F1F0
:100C100000723CBF00F50000704700F0004343F055
:100C2000FE4040F4000070477FEA226216BF08468B
:100C30007FEA23630146420206BF5FEA412390EA4E
:100C4000010F40F4800070474FF0000304E000BF44
:100C500010F0004348BF40425FEA000C08BF7047F5
:100C600043F0964301464FF000001CE050EA0102B9
:100C700008BF70474FF000030AE000BF50EA0102CE
:100C800008BF704711F0004302D5404261EB4101BB
:100C90005FEA010C02BF84460146002043F0B643E0
:100CA00008BFA3F18053A3F50003BCFA8CF2083A05
:100CB000A3EBC25310DB01FA02FC634400FA02FC0E
:100CC000C2F12002BCF1004F20FA02F243EB020015
:100CD00008BF20F00100704702F1200201FA02FC77
:100CE000C2F1200250EA4C0021FA02F243EB02006A
:100CF00008BF20EADC7070474FF0FF0C1CEAD052AE
:100D00001EBF1CEAD15392EA0C0F93EA0C0F6FD06E
:100D10001A4480EA010C400218BF5FEA41211ED04C
:100D20004FF0006343EA501043EA5111A0FB013138
:100D30000CF00040B1F5000F3EBF490041EAD3710D
:100D40005B0040EA010062F17F02FD2A1DD8B3F189
:100D5000004F40EBC25008BF20F00100704790F0F8
:100D6000000F0CF0004C08BF49024CEA502040EA4A
:100D700051207F3AC2BFD2F1FF0340EAC250704710
:100D800040F400004FF00003013A5DDC12F1190F4E
:100D9000DCBF00F000407047C2F10002410021FAC0
:100DA00002F1C2F1200200FA02FC5FEA310040F1D8
:100DB000000053EA4C0308BF20EADC70704792F051
:100DC000000F00F0004C02BF400010F4000F013A89
:100DD000F9D040EA0C0093F0000F01F0004C02BF84
:100DE000490011F4000F013BF9D041EA0C018FE7F3
:100DF0000CEAD15392EA0C0F18BF93EA0C0F0AD0F9
:100E000030F0004C18BF31F0004CD8D180EA01001E
:100E100000F00040704790F0000F17BF90F0004FB7
:100E2000084691F0000F91F0004F14D092EA0C0F99
:100E300001D142020FD193EA0C0F03D14B0218BF2C
:100E4000084608D180EA010000F0004040F0FE4072
:100E500040F40000704740F0FE4040F4400070470E
:100E60004FF0FF0C1CEAD0521EBF1CEAD15392EA8D
:100E70000C0F93EA0C0F69D0A2EB030280EA010C7D
:100E800049024FEA402037D04FF0805343EA111116
:100E900043EA10130CF000408B4238BF5B0042F174
:100EA0007D024FF4000C8B4224BF5B1A40EA0C0019
:100EB000B3EB510F24BFA3EB510340EA5C00B3EB4B
:100EC000910F24BFA3EB910340EA9C00B3EBD10F39
:100ED00024BFA3EBD10340EADC001B0118BF5FEA8B
:100EE0001C1CE0D1FD2A3FF650AF8B4240EBC250B4
:100EF00008BF20F0010070470CF0004C4CEA502075
:100F00007F32C2BFD2F1FF0340EAC250704740F4C3
:100F100000004FF00003013A37E792F0000F00F0B5
:100F2000004C02BF400010F4000F013AF9D040EA33
:100F30000C0093F0000F01F0004C02BF490011F4C7
:100F4000000F013BF9D041EA0C0195E70CEAD153BF
:100F500092EA0C0F08D142027FF47DAF93EA0C0FA6
:100F60007FF470AF084676E793EA0C0F04D14B028A
:100F70003FF44CAF08466EE730F0004C18BF31F03C
:100F8000004CCAD130F000427FF45CAF31F0004336
:100F90007FF43CAF5FE700BF4FEA4002B2F1FE4F83
:100FA0000FD34FF09E03B3EB12620DD94FEA00232B
:100FB00043F0004310F0004F23FA02F018BF404204
:100FC00070474FF00000704712F1610F01D14202EB
:100FD00005D110F0004008BF6FF0004070474FF09F
:100FE00000007047074B984207D803889BB24FF622
:100FF000FF72934203D10430F4E7012070470020D0
:10100000704700BFFF830008114B1B889BB2114A39
:10101000128892B278B1012811D12AB94EF6EE6148
:101020008B420FD113460BE073B94EF6EE618A4244
:1010300006D1402304E01BB142B9402300E0002365
:10104000184670474023FBE7AB23F9E7AB23F7E7EC
:10105000008000080080010870B505460E4601209A
:10106000FFF7D2FFAB2821D000F500342034A402D2
:10107000431C0F4800EB8320844216D22368B3F14F
:10108000FF3F01D00434F7E7B2B20023214601202C
:1010900002F02EF908B180B208E0AAB20023A11C28
:1010A000012002F025F980B200E0802070BD00BF71
:1010B000FF7F000810B586B0002305930193124806
:1010C000039001230493FFF78DFF28B905A901A818
:1010D00002F080F9044638B9002200230A490120B1
:1010E00002F006F9044610B1204606B010BD0748CC
:1010F0000390FFF777FF0028F6D105A901A802F0B9
:1011000069F90446F0E700BF00800008008001088C
:1011100038B504460D460020FFF776FFAB2816D001
:1011200000F5003220329202431C094800EB832074
:10113000931C83420AD203889BB2A34201D0043895
:10114000F6E730F8023C2B80002000E0012038BD9B
:10115000FE7F0008F0B587B0002205928F4B1E88F5
:10116000B6B28F490C88A4B2019203930123049371
:101170004EF6EE639E4240D04FF6FF739E420BD078
:10118000002E00F09D80FFF795FF002800F00481FD
:1011900084B2204607B0F0BD54B14EF6EE639C42D7
:1011A00015D0FFF787FF002800F0EE8084B2F0E74B
:1011B0007A48FFF717FF05460028EAD105A901A8DC
:1011C00002F008F9002800F0DB8084B2E1E7734800
:1011D000FFF708FF20B905A901A802F0FBF850B9F4
:1011E000002200236E49012002F082F8002800F05E
:1011F000C98084B2CDE784B2CBE75CB34FF6FF730E
:101200009C4247D0FFF756FF002800F0C38084B20D
:10121000BFE72FB20CE00135ADB2022D1ED8614BF5
:101220001B889BB22E46604A32F815008342F0D0EC
:10123000BE42F0D05D49FFF76BFF0128EBD05B4B5E
:101240001988594B33F81600FFF706FF0028E2D043
:1012500004469EE725464FF0FF37DEE700220023D5
:101260004E49012002F044F808B184B291E700230E
:1012700001934B48039001230493FFF7B3FE054607
:10128000002886D105A901A802F0A4F800287DD085
:1012900084B27EE742480390FFF7A4FE20B905A977
:1012A00001A802F097F848B9002200233B49012029
:1012B00002F01EF800286BD084B26AE784B268E7B7
:1012C0003CB14FF6FF739C420AD035464FF0FF37D2
:1012D0001BE0FFF7EFFE00283FF45BAF84B258E756
:1012E0002F480390FFF77EFE044608B1344650E7CE
:1012F00005A901A802F06EF800283FF44AAF84B2B5
:1013000047E72FB20CE00135ADB2022D1AD8284BB9
:101310001B889BB22C46244A32F815008342F0D039
:10132000BC42F0D02149FFF7F3FE0128EBD01F4B60
:1013300019881D4B33F81400FFF78EFE0446002871
:10134000E1D026E7002200231549012001F0D0FF5B
:1013500008B184B21DE700230193104803900123D4
:101360000493FFF73FFE044608B1344611E705A990
:1013700001A802F02FF800283FF40BAF84B208E771
:101380002C4606E7002404E7002402E72C4600E789
:101390000024FEE60024FCE60024FAE600800008B3
:1013A00000800108068000081C000020B400002016
:1013B000068001082DE9F04186B006460D46002062
:1013C0000590FFF721FE402811D000284BD1DFF80F
:1013D000A080264F4EF6EE6200233946012001F030
:1013E00087FF40B184B2204606B0BDE8F081DFF847
:1013F0007C801F4FEEE729463046FFF72DFE04465E
:1014000010B1F0E70134A4B2022C14D8194B33F810
:101410001400B042F6D01849FFF77AFE0128F1D047
:10142000154B1988134B33F81400FFF715FE0028ED
:10143000E8D00446D7E700230193CDF80C800123C0
:10144000049305A901A801F0C5FF08B184B2CAE759
:10145000002200233946012001F04AFF08B984B276
:10146000C1E784B2BFE7AB24BDE700BF008001083D
:10147000008000081C000020B400002038B504469D
:101480000D46FFF7E9FD802800D038BD29462046EB
:10149000FFF790FFF9E7000010B5154B1B78032B01
:1014A0000DD0042B17D0134C01220221204602F04C
:1014B000D6F801220421204602F0D1F80AE00D4CB2
:1014C00000220221204602F0CAF80122042120460F
:1014D00002F0C5F810BD074C01220221204602F09F
:1014E000BEF800220421204602F0B9F8F2E700BF5E
:1014F000B8000020000801402DE9F04188B0002428
:1015000004940594069407943A4B9A6942F01002A9
:101510009A619A6902F010020092009A9A6942F068
:1015200020029A619A6902F020020192019A9A6956
:1015300042F004029A619A6902F004020292029A4D
:101540009A6942F008029A619B6903F008030393C9
:10155000039B294F22463E21384602F080F8274E51
:1015600022460221304602F07AF83E2304934FF0DF
:101570000108CDF8148006940225079504A9384681
:1015800001F07AFF402304930594069504A9384698
:1015900001F072FF40F601030493194B0593069581
:1015A00004A9304601F068FF0495CDF81480069434
:1015B000079504A9304601F05FFF4FF48063049360
:1015C0000594069504A9304601F056FF22460521F0
:1015D000062001F0B3FD062001F0E4FD22460521BE
:1015E000282001F0ABFD282001F0DCFD08B0BDE8AB
:1015F000F08100BF0010024000080140000C0140D3
:101600000000111008B5012003F0B6FBFBE7000055
:10161000F0B583B007460E46012400940C233D220A
:101620000021084600F074FE002304220621052054
:1016300000F05AFF03210C2000F02CFD214D002268
:101640002946384600F07AFD00940C234022002100
:10165000104600F05DFE0024009409234922032176
:10166000432000F07DFD00940923482204214320FB
:1016700000F076FD00940A2348220421422000F065
:101680006FFD0094032348220921422000F068FDE9
:101690000094042348220921432000F061FD0094B6
:1016A000042349220A21432000F05AFD03214C2043
:1016B00000F0F0FC22462946304600F03FFD03B022
:1016C000F0BD00BF100000202DE9F04784B01D469A
:1016D000052A27D8DFE802F0032965267D9A86B21D
:1016E000F71D8CB200950A2308222146384600F0E7
:1016F0000FFE00950C230822A11D384600F0C9FDFD
:1017000000950423162204F11001304600F000FE7B
:1017100006F10B00009504F11C03024604F10C01D4
:1017200000F01EFD04B0BDE8F08786B206F10209A4
:101730008CB204F1020806F1160704F1160A0095AE
:1017400053463A464146484600F00AFD0095534646
:101750004A464146384600F003FD06F10C07009565
:1017600004F118033A462146384600F0F9FC0C34DF
:101770000095234606F118022146304600F0F0FCA1
:101780003FB224B2B5FA85F35B09082221463846F8
:1017900000F0AAFE2B4606222146384600F0A4FEA1
:1017A000C0E786B28CB2009518231022214630463D
:1017B00000F06FFD05362B460222E11D304600F099
:1017C000F7FD2B46022204F10E01304600F08CFE9C
:1017D000A8E786B28CB2B21F92B2A71EBFB204F1C4
:1017E0000208B01E0295CDF8048000923B462146C7
:1017F00080B200F0BCFDB21D0295CDF804800092CD
:101800003B462146B01C00F0B2FD8BE786B28CB29D
:10181000321F92B2A71EBFB204F10208B01E029599
:10182000CDF8048000923B46214680B200F09FFD37
:10183000321D0295CDF8048000923B462146B01C33
:1018400000F095FD6EE7000070B590B000F030FF3D
:1018500000F0CAFB012500954023802200210846A4
:1018600000F056FD1421112000F014FC674C0022FA
:101870002146674800F062FC2721072000F00AFC9F
:101880002A462146634800F059FC00F0EDFE4FF473
:10189000FA6003F071FA002400944023802221466C
:1018A000204600F035FD2B46022222210C20FFF7B6
:1018B0000BFF2B46224622213520FFF705FF2B4642
:1018C0002A4622216020FFF7FFFE53495348FFF7C5
:1018D0009FFE00F0C9FE26461BE0514829E0514812
:1018E00034E00123022222210C20FFF7EDFE63E009
:1018F000002305223C214020FFF7E6FE01230422BD
:101900003C214020FFF7E0FE00F0AEFE962003F001
:1019100033FA002000900F238022122100F0F8FCFF
:101920001221092000F0B6FB3F4B1B78002BD4D0CE
:101930003E4801223E4900F001FC1221352000F012
:10194000A9FB3C4B1B78002BC9D03B48384D0122EA
:10195000294600F0F3FB3949394B5868FFF7CCF9B9
:10196000FFF71AFB0246374903A804F08DFF122146
:10197000602000F08FFB0122294603A800F0DEFB67
:101980002C4B1B7843B10134634204F0030403F091
:10199000030358BF5C42E4B2294B1A78D31EDBB272
:1019A000012B01D9002A9CD186F001063346022280
:1019B00022210C20FFF788FE032CA5D801A353F8A1
:1019C00024F000BFF1180008D5190008EF1900082D
:1019D000FD190008002304223C214020FFF774FE7B
:1019E000012305223C214020FFF76EFE8CE70023F7
:1019F00005223C214020FFF767FE85E701230522F1
:101A00003C214020FFF760FE7EE700BF0800002079
:101A1000B4990008C0990008CC990008D49900082E
:101A20009C990008AC9900081800002094990008BF
:101A300010000020C01E0020A49900080000C84229
:101A4000B8000020DC99000808B50FE0104B198A97
:101A5000104B59809888FFF711FDC82003F08CF9CE
:101A6000642003F089F90A4B00229A60084B9B68B6
:101A700053B1074B1B7B002BE8D1064A1378B3FA0E
:101A800083F35B091370EBE7642003F075F9EDE76E
:101A9000B800002018000020B0F5006F05D0012824
:101AA00009D1054B01221A7302E0034B00221A737D
:101AB000014B01229A607047B800002008B5026807
:101AC000034B9A4200D008BD01F038F8FBE700BF95
:101AD0000008004072B6FEE700B585B00023019310
:101AE000029303930F48104A0260836003730375E7
:101AF0004FF46022C26143600123036101F066FA82
:101B000060B90023019301220292039301A90548C1
:101B100001F0E2F820B905B05DF804FBFFF7DAFF49
:101B2000FFF7D8FF001E00200024014000B587B059
:101B300000230293039304930593009301931548A4
:101B4000154A026040F21F324260836042F20F7217
:101B5000C26003614361836102F000FF98B906A986
:101B60004FF4805341F8103D0A4802F02DFF60B950
:101B70000023009301936946064802F093FF30B9B1
:101B800007B05DF804FBFFF7A5FFFFF7A3FFFFF722
:101B9000A1FF00BF701E0020002C014008B50A48BC
:101BA0000A4B03604FF41653436000238360C36005
:101BB00003610C2242618361C36102F0F1FF00B94D
:101BC00008BDFFF787FF00BF301E0020003801402E
:101BD00008B50A480A4B03600A4B43600023836040
:101BE000C3604FF48042026143618361C361036259
:101BF00001F0A0FE00B908BDFFF76CFFA81D002092
:101C000000540040801A060000B595B0242200213F
:101C10000BA804F030FE0023059306930793089366
:101C20000993019302930393049302230A930123DC
:101C30000E9310230F930AA802F0F2F8A8B90F230D
:101C400005930021069107910891099105A802F0DA
:101C500027FB60B9022301930023039301A802F03C
:101C600017FC30B915B05DF804FBFFF733FFFFF741
:101C700031FFFFF72FFF000008B500F04DFFFFF721
:101C8000C3FF01F0E5FAFFF765FAFFF735FCFFF750
:101C900023FFFFF74BFFFFF781FFFFF799FF154B7E
:101CA000991C9888FFF734FA02F0AAFF124C2246DA
:101CB0000021124802F0ECFF114B186004F12402DD
:101CC0000021104802F0E4FF0F4B186004F14802B5
:101CD00000210E4802F0DCFF0D4B186004F16C028D
:101CE00000210C4802F0D4FF0B4B186002F0AAFF51
:101CF000FEE700BF18000020C4980008F11D00088E
:101D0000A41D002049180008B81E00200516000870
:101D1000BC1E0020491A0008FC1D002000B585B03B
:101D20000190012302930023039301A9044800F0CA
:101D3000D3FF10B905B05DF804FBFFF7CBFE00BF81
:101D4000001E00200000000010B5274801F060F8D8
:101D5000B0F5807F34D00020FFF7E0FF224C204612
:101D600001F098F86421204600F0FAFE18B3002430
:101D70001D4801F0B3F92046FEF72CFB12A3D3E96E
:101D80000023FEF7A1FB12A3D3E90023FEF7C6FC54
:101D9000FEF754FEFEF740FB02460B460EA1D1E9CA
:101DA0000001FEF7BBFC0EA3D3E90023FEF7D4F934
:101DB000FEF724FE10BD204600F08AFF0446D7E758
:101DC0000024D8E7AFF300806666666666660A4060
:101DD0000000000000FEAF4000000000001DE040D9
:101DE000000000000088C340001E0020000000002A
:101DF0002DE9F04100F0AEFE00261BE0744B586860
:101E0000FEF70AFB4FF001046DA3D3E90023FEF7B0
:101E1000CDFD08B94FF00004E4B242E0FFF73CFB0F
:101E20006C4B1B78002B55D00122694B1A70142083
:101E300002F0A2FFFFF788FF0546654C2061664966
:101E40006068FEF759FF0746644B5888FEF7FCFEB2
:101E500080462846FEF7F8FE01464046FFF700F8A8
:101E600001463846FEF740FE5D49FEF7F9FF606027
:101E70004FF480615B4801F0EBFB564B1870002873
:101E8000BCD06068FEF7C8FA4FF001044EA3D3E956
:101E90000023FEF7A9FD08B94FF00004E4B284F076
:101EA000010400F057FE801B494B1B78062BBED85F
:101EB00001A252F823F000BF891F0008D91E0008B4
:101EC000051F0008311F00085D1F00082F1E0008B5
:101ED0001D1E00080222A8E7FFF7DEFA3D4B1B7823
:101EE0001BB93B4B02221A70A1E73C4B1B78002B1D
:101EF0009DD0002C9BD100F02DFE0646344B0422D1
:101F00001A7094E7FFF7C8FA324B1B781BB1304BBD
:101F100001221A708BE7314B1B78002B87D0002CE5
:101F200085D000F017FE0646294B03221A707EE783
:101F3000284B1B781BB1264B01221A7077E7B0F5AE
:101F4000FA5F03D9224B00221A7070E741F28833FE
:101F500098427FF66CAFFFF79FFA68E71D4B1B783E
:101F60001BB91B4B02221A7061E7B0F5FA5F03D967
:101F7000174B00221A705AE741F2883398427FF6D5
:101F800056AFFFF789FA52E7FFF786FA134B1B7833
:101F90001BB90F4B06221A7049E70E4B1B7823B969
:101FA0001CB90B4B02221A7041E7002B3FF43FAFE4
:101FB000002C3FF43CAF064B01221A7037E700BFFC
:101FC000CDCCCCCCCCCCEC3F9A9999999999F13F56
:101FD000B8000020C01E002000009841180000201A
:101FE0000000A041000C0140094A5379B3FA83F381
:101FF0005B095371002306E0054A1A44117AC9436C
:10200000117201339BB2B3F5806FF5D3704700BFF7
:10201000D000002008B530B1FF214FF480620348A2
:1020200004F029FC08BD0021F7E700BFD80000201C
:102030007F281FD83F291DD8154B1B7913B1B2FA41
:1020400082F25209124B5B792BB1C0F17F0080B252
:10205000C1F13F0189B2012A0DD0CB0800EBC310BA
:1020600001F0070101228A40094B1844017A21EA54
:10207000020101727047CB0800EBC31001F00701A9
:102080008A40034B1844017A11430172704700BF24
:10209000D0000020014B188059807047D0000020EC
:1020A0002DE9F843244B1B880C7823447F2B3EDC1E
:1020B000214B5B884C7823443F2B3BDC90460D46FC
:1020C0008146002620E01C4B188859883144204462
:1020D000B8FA88F2520989B280B2FFF7A9FF013439
:1020E0002B78A3420FD907FA04F313F4004FEAD078
:1020F000114B1888598831442044424689B280B235
:10210000FFF796FFEBE701366A78B24208D96968B3
:10211000A9F1200302FB036331F813700024DFE709
:102120002B78054A11880B441380484600E00020B4
:10213000BDE8F8830020FBE7D000002070B504461E
:102140000E46154623784BB12A4631461846FFF70E
:10215000A7FF2378984201D10134F3E7184670BDF8
:102160002DE9F04F83B005460F4616461C469DF8F4
:10217000303000937F2800D97F257F2E00D97F261D
:102180003F2F00D93F273F2C00D93F24B54223D20F
:10219000A6EB05090FFA89F9A74222D2A4EB070A98
:1021A0000FFA8AFAB54221D20123A74221D24FF079
:1021B000010BD14520DD09EBD9784FEA6808B9F168
:1021C000000F2DD1A74202D823463C461F46B542F8
:1021D00000D82E4624B21EE0A5EB06090FFA89F9B5
:1021E000DAE7A7EB040A0FFA8AFADBE74FF0FF33CE
:1021F000DBE74FF0FF3BDCE7CAF1000808EBD878DB
:1022000048F34F08DBE7A4B2009A21463046FFF7B7
:102210000FFF013424B2BC42F5DD03B0BDE8F08FFE
:10222000BAF1000F2CD1A74200D83C46B54202D8E3
:1022300033462E461D4636B207E0B6B2009A214616
:102240003046FFF7F5FE013636B2AE42F5DDE4E783
:102250009846009A39462846FFF7EAFEB54212D062
:10226000C9F10003984512DDA8EB0A031BB225440F
:10227000ADB2D045ECDA4B441BB25F44BFB2E7E7E6
:1022800001941C46E5E7019B9F42E9D1C5E743461F
:10229000EFE72DE9F04182B09DF820807F2834D807
:1022A00006460F461D463F292FD883187F2B02DD97
:1022B000C0F1800292B27B193F2B02DDC7F14005CD
:1022C000ADB2324494B2CDF800803B462246394646
:1022D0003046FFF745FF3D44ADB2CDF800802B46B8
:1022E000224629463046FFF73BFFCDF800802B46BB
:1022F000324639463046FFF733FFCDF800802B4693
:10230000224639462046FFF72BFF02B0BDE8F08198
:102310002DE9F04383B09DF828907F2824D8054606
:102320000F4690461E463F291ED883187F2B03DD9B
:10233000C0F180081FFA88F8BB193F2B02DDC7F1F6
:102340004006B6B200240CE0394489B208EB05021D
:10235000CDF800900B4692B22846FFF701FF0134FA
:10236000E4B2A1B2B142EFD903B0BDE8F0832DE9E8
:10237000F04782B00746884691469A46BDF82850F5
:10238000BDF82C609DF830400094FFF7E9FE009402
:1023900033462A4651464846FFF7E2FE009443463C
:1023A0003A4631462846FFF7DBFE02B0BDE8F0872B
:1023B0002DE9F04F87B002921E46019395B2C5F108
:1023C000010424B2C5EBC53253001AB205921FFABC
:1023D00080FB1FFA81FA05EB0A01324689B25846A2
:1023E000FFF726FEAAEB0501324689B25846FFF7F1
:1023F0001FFE05EB0B003246514680B2FFF718FE78
:10240000ABEB05003246514680B2FFF711FE4FF0AC
:1024100000090123039353E009F10105ADB20FFA5E
:1024200085F9039B02339BB21AB203921C4424B277
:102430000BEB05039BB2BDF808600AEB06081FFA18
:1024400088F8019A414604931846FFF7F1FDABEB7B
:102450000507BFB2019A41463846FFF7E9FDAAEBEE
:1024600006081FFA88F8019A41460498FFF7E0FD34
:10247000019A41463846FFF7DBFD0BEB0607BFB27A
:102480000AEB05081FFA88F8019A41463846FFF71B
:10249000CFFDABEB0606B6B2019A41463046FFF7D8
:1024A000C7FDAAEB0505ADB2DDF80480424629461A
:1024B0003846FFF7BDFD424629463046FFF7B8FDD6
:1024C000029B99450DDA002CA6DB029B013B1BB257
:1024D0000293059B02339BB21AB205921C4424B2AC
:1024E0009AE707B0BDE8F08F2DE9F04F87B0029270
:1024F000984695B2C5F1010424B2C5EBC53253002C
:102500001BB205931FFA80FB8FB2E919424689B2CC
:102510005846FFF78DFD791B424689B25846FFF7B2
:1025200087FD05EB0B06B6B2424639463046FFF74B
:102530007FFDABEB0505ADB2424639462846FFF7B5
:1025400077FDCDF800803B46324639462846FFF7F6
:1025500007FE4FF0000A0123039340E00AF1010552
:10256000ADB20FFA85FA039B02339BB21AB2039203
:102570001C4424B2ABEB05091FFA89F9BDF80860C9
:10258000B91989B20BEB05039BB21A46CDF800804E
:102590000B4604924846FFF7E3FDB91B89B2CDF81C
:1025A00000800B464A460498FFF7DAFD0BEB06095C
:1025B0001FFA89F9791989B2ABEB0606B6B2CDF8E4
:1025C00000800B4632464846FFF7CAFD791B89B2A8
:1025D000CDF800800B4632464846FFF7C1FD029B0E
:1025E0009A450DDA002CB9DB029B013B1BB202932A
:1025F000059B02339BB21AB205921C4424B2ADE78C
:1026000007B0BDE8F08F000030B5C3B08DF80810FA
:10261000002104E04C1C555C02A90D55E1B28CB2BE
:102620009C42F7D301330A2200929BB202AA0146D0
:10263000024801F059FA43B030BD00BFA81D002088
:1026400000B585B08DF80C108DF80D200A2300938D
:10265000022303AA0146034801F046FA05B05DF8DB
:1026600004FB00BFA81D002010B500241AE0A4F14F
:102670005002D2B200217820FFF7E2FF002211467B
:102680007820FFF7DDFF102200217820FFF7D8FF28
:102690008023064A02EBC41240217820FFF7B4FFE2
:1026A0000134E4B2072CE2D910BD00BFD8000020ED
:1026B00008B544F6206301227821554801F0CEFA8E
:1026C000002840F0A38040F6C41300E0013B002B3B
:1026D000FCD1AE2200217820FFF7B2FF202200219A
:1026E0007820FFF7ADFF102200217820FFF7A8FF28
:1026F000B02200217820FFF7A3FFC8220021782014
:10270000FFF79EFF002211467820FFF799FF102265
:1027100000217820FFF794FF402200217820FFF766
:102720008FFF812200217820FFF78AFFFF220021FE
:102730007820FFF785FFA12200217820FFF780FF96
:10274000A62200217820FFF77BFFA8220021782015
:10275000FFF776FF3F2200217820FFF771FFA422C8
:1027600000217820FFF76CFFD32200217820FFF7AB
:1027700067FF002211467820FFF762FFD522002173
:102780007820FFF75DFFF02200217820FFF758FF47
:10279000D92200217820FFF753FF22220021782040
:1027A000FFF74EFFDA2200217820FFF749FF1222BF
:1027B00000217820FFF744FFDB2200217820FFF77B
:1027C0003FFF202200217820FFF73AFF8D220021D1
:1027D0007820FFF735FF142200217820FFF730FF23
:1027E000AF2200217820FFF72BFF2E220021782036
:1027F000FFF726FF0020FFF70DFCFFF735FF054B25
:1028000000221A805A800120987108BD0020FCE740
:10281000A81D0020D000002000B583B0114B9A699C
:1028200042F001029A619A6902F001020092009A54
:10283000DA6942F08052DA61DB6903F08053019378
:10284000019B00220F216FF0010000F077FC064A87
:10285000536823F0E06343F00073536003B05DF806
:1028600004FB00BF001002400000014000B587B02B
:10287000002302930393049305930268114B9A4239
:1028800002D007B05DF804FB03F56C439A6942F48B
:1028900000729A619A6902F400720092009A9A6931
:1028A00042F004029A619B6903F004030193019BC7
:1028B000012302930323039302A9034800F0DCFDE4
:1028C000DFE700BF002401400008014010B586B0DA
:1028D000002302930393049305930268154B9A42D5
:1028E00001D006B010BD144CA36943F00803A361E6
:1028F000A36903F008030093009B4FF44073029315
:10290000122303930323059302A90C4800F0B4FD9E
:102910000B4A536843F0E06343F002035360E369FA
:1029200043F40013E361E36903F400130193019B93
:10293000D7E700BF0054004000100240000C0140E7
:10294000000001400268124B9A4200D0704700B567
:1029500083B003F564439A6942F400629A619B690B
:1029600003F400630193019B00220521182000F06D
:10297000E5FB182000F016FC00220521192000F0CC
:10298000DDFB192000F00EFC03B05DF804FB00BF76
:10299000002C014010B586B00023029303930493EA
:1029A00005930268174B9A4201D006B010BD03F59B
:1029B00058439A6942F480429A619A6902F48042CB
:1029C0000092009A9A6942F004029A619B6903F0AE
:1029D00004030193019B4FF40073029302230393BA
:1029E00003230593084C02A9204600F045FD4FF44F
:1029F0008063029300230393049302A9204600F00E
:102A00003BFDD2E7003801400008014000B589B025
:102A1000002201461E2000F091FB1E2000F0C2FBA8
:102A2000144BDA6942F00402DA61DB6903F0040353
:102A30000193019B02A903A801F00CFD01F0EAFC3F
:102A40000D4BA3FB00239B0C013B0C480C4A02607E
:102A500040F2E732C260436000230361836001F00B
:102A60007DFF18B1012009B05DF804FB034801F0B7
:102A700045FEF8E70010024083DE1B43C41E002021
:102A800000080040FEE7FEE7FEE7FEE7FEE77047CE
:102A900008B5012000F0EAFD08BD000008B50248B5
:102AA00001F064FE08BD00BF701E002008B502489A
:102AB00001F05CFE08BD00BF701E002008B5024892
:102AC00001F054FE08BD00BFC41E002008B54FF43D
:102AD000006000F0CBFD08BD08B503460B4A126844
:102AE00042B10A4A106803446A46934206D8074A2C
:102AF000136008BD054A06491160F2E703F086FE3F
:102B00000C2303604FF0FF30F3E700BFD804002030
:102B1000781F00207047000008B5074A136843F08B
:102B200010031360032000F0F7FA0020FFF76EFF98
:102B3000FFF772FE002008BD00200240034A116822
:102B4000034B1B780B441360704700BF0C1F002021
:102B500028000020014B1868704700BF0C1F0020A0
:102B6000F0B583B005460C4600230193FFF7F2FF52
:102B70002B689A6812F4807F23D106465A6812F4B3
:102B8000807F03D1DB6A13F4700F24D04B4B1F6896
:102B9000022001F007FDB7FBF0F02B681969484AE5
:102BA00011422FD1D96802F15C4211422AD1196930
:102BB000444A114239D1DA68434B1A4237D02927A7
:102BC0003AE0AB6A43F02003AB62002385F824307F
:102BD000012003B0F0BD2B681B6813F0020F48D131
:102BE000B4F1FF3FF7D024B1FFF7B4FF801BA04240
:102BF000F1D9AB6A43F00403AB62002385F82430BB
:102C00000320E6E719692F4A114204D1D96802F17D
:102C10006E4211420DD019692C4A0A405AB9DA683D
:102C20002A4B13405BB1FC2706E0292704E0142758
:102C300002E0542700E0FC2707FB00F704E05427DC
:102C4000FAE7019B01330193019BBB4211D2B4F11E
:102C5000FF3FF6D024B1FFF77DFF801BA042F0D9E3
:102C6000AB6A43F00403AB62002385F824300320F1
:102C7000AFE72B686FF012021A60AB6A43F400737F
:102C8000AB622B689B6803F46023B3F5602F01D01F
:102C900000209EE72B7B6BB9AB6A23F48073AB6299
:102CA000AB6A13F4805F07D1AB6A43F00103AB62F8
:102CB00000208EE700208CE700208AE72400002017
:102CC00024499224922449129224490049922400D2
:102CD0000368D86C7047000030B482B000230193C1
:102CE00090F82430012B00F08B800246012380F8FD
:102CF00024304B68062B29D80568686B03EB8303E7
:102D0000053B1F249C4020EA04000C6804FA03F3EE
:102D100003436B630B68092B38D91568E86803EB2C
:102D200043031E3B07249C4020EA04008C6804FAFD
:102D300003F30343EB600B68103B012B34D90020F5
:102D4000002382F8243002B030BC70470C2B0ED820
:102D50000568286B03EB8303233B1F249C4020EA78
:102D600004000C6804FA03F303432B63D2E70568FD
:102D7000E86A03EB8303413B1F249C4020EA0400E4
:102D80000C6804FA03F30343EB62C3E71568286990
:102D900003EB430307249C4020EA04008C6804FAF8
:102DA00003F303432B61C6E713681648834205D03B
:102DB000936A43F0200393620120C1E7986810F4FE
:102DC000000F1BD1986840F4000098600B68102B2E
:102DD00001D00020B4E70C4B1B680C49A1FB031386
:102DE0009B0C03EB83035900019102E0019B013B23
:102DF0000193019B002BF9D10020A1E700209FE760
:102E00000220A0E7002401402400002083DE1B43B1
:102E1000806A704730B583B00023019303689A68D5
:102E200012F0010F2ED19A6842F001029A60174BFE
:102E30001B68174AA2FB03239B0C019302E0019B32
:102E4000013B0193019B002BF9D10446FFF782FE61
:102E5000054623689B6813F0010F11D1FFF77AFE36
:102E6000401B0228F5D9A36A43F01003A362E36A6A
:102E700043F00103E362002384F82430012002E0E0
:102E8000002000E0002003B030BD00BF240000207F
:102E900083DE1B4390F82430012B6AD010B5044622
:102EA000012380F82430FFF7B5FF024600285BD1EC
:102EB000A36A23F4407323F0010343F48073A362F5
:102EC00023682D498B4227D0A16A21F48011A16289
:102ED000596811F4806F05D0A16A21F4405141F482
:102EE0008051A162A16A11F4805F2BD0E16A21F0C8
:102EF0000601E162002184F824106FF002011960DC
:102F00002368996801F46021B1F5602F1DD099689C
:102F100041F4801199602AE0A1F58061496811F4BB
:102F2000702FD1D0A16A41F48011A1621349496880
:102F300011F4806FD6D0A16A21F4405141F4805140
:102F4000A162CFE70021E162D4E70B498B4204D0B4
:102F5000996841F4A001996009E0A1F58061496890
:102F600011F4702FD3D1F3E7002384F824301046F6
:102F700010BD022210467047002801400024014085
:102F800038B503689A6812F0010F01D1002038BDEE
:102F900004469A6822F001029A60FFF7DBFD0546BD
:102FA00023689B6813F0010F0ED0FFF7D3FD401B81
:102FB0000228F5D9A36A43F01003A362E36A43F041
:102FC0000103E3620120E2E70020E0E700287FD070
:102FD00038B50446836A002B33D02046FFF7D0FF74
:102FE000A36A13F010036DD100286BD1A26A22F4FA
:102FF000885222F0020242F00202A2626268E16993
:103000000A43257B42EA4502A168B1F5807F21D0C1
:1030100001291CD0217D01291FD02568696821F470
:1030200069410B436B6021688D682A4B2B40134329
:103030008B60A368B3F5807F20D0012B1ED00021C8
:103040001FE0C36280F82430FFF710FCC5E74FF49F
:103050008073DFE74FF48073DCE735B9A16901398C
:1030600043EA413343F40063D7E7A16A41F020010A
:10307000A162E16A41F00101E162CEE72369013B0F
:1030800019052568EB6A23F470030B43EB62236890
:103090009968114B0B409A420BD0A36A23F012039C
:1030A00043F01003A362E36A43F00103E3620120EB
:1030B0000DE00023E362A36A23F0030343F001035E
:1030C000A36204E0A36A43F01003A362012038BDA9
:1030D00001207047FDF7E1FFFE0E1FFF90F824303E
:1030E000012B15D010B50446012380F82430FFF7DA
:1030F00047FF024638B9A36A23F4885323F001033B
:1031000043F00103A362002384F82430104610BD6D
:103110000222104670470000074AD36823F4E06398
:103120001B041B0C000200F4E060184340F0BF6079
:1031300040F40030D060704700ED00E030B4174B31
:10314000DB68C3F30223C3F10704042C28BF042463
:103150001D1D062D18D9033B4FF0FF3505FA04F469
:1031600021EA0401994005FA03F322EA0303194313
:1031700000280BDB0901C9B200F1604000F5614095
:1031800080F8001330BC70470023E5E700F00F0023
:103190000901C9B2024B1954F4E700BF00ED00E089
:1031A00014ED00E0002807DB00F01F0240090123B6
:1031B0009340024A42F82030704700BF00E100E02F
:1031C000044B0022DA61044A136943F001031361DE
:1031D00001807047101F0020002002401A4BDB685E
:1031E00013F0100F27D0194AD36943F00203D361BB
:1031F0001023154AD26812F0040F06D01349CA6989
:1032000042F00102CA6143F004030F4AD26912F08E
:10321000010F09D00D49CA6942F00402CA610A4986
:10322000CA6922F00102CA6140F20112934204D03D
:10323000054AD36070470023DBE7034AD36923F0D4
:103240000103D361704700BF00200240101F00201F
:103250000A4B1B6913F0800F0DD0084B084A5A60C7
:1032600002F188325A601B6913F0800F01D00120EF
:103270007047002070470020704700BF00200240C8
:103280002301674538B50446FFF764FC0546174B34
:10329000DB6813F0010F0AD0B4F1FF3FF7D00CB395
:1032A000FFF758FC401BA042F1D9032019E00F4B57
:1032B000DB6813F0200F02D00C4B2022DA600B4B9E
:1032C000DB6813F0100F09D1084BDB6913F0010F15
:1032D00004D1064BDB6813F0040F05D0FFF77EFF27
:1032E000012038BD0320FCE70020FAE7002002405F
:1032F0002DE9F843234C247E012C41D01E469046F4
:103300000F4604461F4B01221A764CF25030FFF74D
:10331000B9FF034670BB012C29D0022C24D04FF0FA
:10332000040900244C4525D22101C1F12002A1F15C
:10333000200328FA01F106FA02F2114326FA03F3F8
:10334000194389B207EB4400FFF73AFF4CF25030C3
:10335000FFF798FF0C4B1D6925F001051D61034621
:1033600040B90134E4B2DDE74FF00209D9E74FF08C
:103370000109D6E7034A002111761846BDE8F88313
:103380000223FAE7101F002000200240064B002213
:10339000DA61064B1A6942F004021A611A6942F0B6
:1033A00040021A61704700BF101F00200020024039
:1033B000064B0022DA61064B1A6942F002021A61DA
:1033C00058611A6942F040021A617047101F0020CC
:1033D00000200240264B1B7E012B46D070B50E46C6
:1033E0000446234B01221A760368022B20D04CF2AC
:1033F0005030FFF747FF90BB4FF0FF333360A568B5
:103400000122E168A36803EB8123AB4228D9284657
:10341000FFF7CEFF4CF25030FFF734FF154A136927
:1034200023F0020313610246B8B905F58065E8E7A9
:103430004CF25030FFF726FF08B1012210E00120C6
:10344000FFF7A4FF4CF25030FFF71CFF024609497A
:103450000B6923F004030B6102E0356000E00122F8
:10346000034B00211976104670BD022210467047AA
:10347000101F002000200240F0B482B00026324627
:10348000A2E0002D5AD0012D00D1CE68FF2B69D8C3
:103490008446FF2B69D89500DCF800400F27AF4029
:1034A00024EA070406FA05F52C43CCF800404C68E2
:1034B00014F0805F00F087805F4CA56945F001053E
:1034C000A561A46904F001040194019C9508AF1C56
:1034D0005A4C54F8274002F00307BF004FF00F0C7E
:1034E0000CFA07FC24EA0C0C554CA04243D004F51E
:1034F0008064A04200F0818004F58064A0427ED008
:1035000004F58064A04234D0042435E04D4FBD4220
:1035100014D00BD94C4FBD4210D007F58037BD42B7
:103520000CD0A7F58017BD42B0D107E0A7F58017F2
:10353000BD4203D007F58037BD42A7D18D687DB16C
:10354000012D08D044610826A0E7CE6808369DE723
:10355000CE680C369AE70461082697E7002695E7BF
:10356000042693E700F1040C93E7A2F10805AD00EF
:1035700092E7032400E00024BC4044EA0C04023536
:103580002E4F47F825404C6814F4803F39D02F4D1A
:103590002C681C432C604C6814F4003F37D02B4D32
:1035A0006C681C436C604C6814F4801F35D0274D48
:1035B000AC681C43AC604C6814F4001F33D0234D3E
:1035C000EC682343EB6001320B6833FA02F430D02D
:1035D0000124944023409C42F5D14D68122DB7D070
:1035E00094D8022DB1D07FF64CAF032DB6D0112D5B
:1035F0007FF44CAFCE68043648E70124BCE70224D0
:10360000BAE7124D2C6824EA03042C60C3E70F4D7F
:103610006C6824EA03046C60C5E70C4DAC6824EACE
:103620000304AC60C7E7094DEC6824EA0303EB60D0
:10363000C9E702B0F0BC7047001002400000014032
:10364000000801400000211000003110000401407A
:103650008368194201D1002070470120704712B9D8
:1036600009040161704701617047000008B5054B0E
:103670005B69034200D108BD024B5861FEF70CFAAA
:10368000F9E700BF0004014003685A6912F4806F33
:1036900011D06FF480625A6100230363202280F806
:1036A0003D2080F83E30026C42F00402026480F853
:1036B0003C300120704700207047F8B506460C46A4
:1036C00017461D4622E0FFF745FA069BC01AA8429E
:1036D00000D8DDB900233363202286F83D2086F828
:1036E0003E30326C42F02002326486F83C300120D9
:1036F0001AE033685B6924EA03039BB2B3FA83F3ED
:103700005B099F420FD1B5F1FF3FDCD1C4F3074302
:10371000012BEED033689B6924EA03039BB2B3FA12
:1037200083F35B09EDE70020F8BDF8B504460D46CC
:1037300016461F463CE01A6842F400721A6023687D
:103740006FF480625A6100232363202284F83D20B5
:1037500084F83E30226C42F00402226484F83C304B
:10376000012033E0FFF7F6F9C01BB04200D8FEB9E4
:1037700000232363202284F83D2084F83E30226C0D
:1037800042F02002226484F83C3001201EE02368CD
:103790005B6925EA03039BB2003318BF0123A3B181
:1037A00023685A6912F4806FC5D1B6F1FF3FD9D1B1
:1037B000C5F30743012BEAD023689B6925EA03037D
:1037C0009BB2003318BF0123E9E70020F8BD0000D9
:1037D000F0B583B004460F4615461E46C36A082B53
:1037E0000DD0012B0BD013F5803F08D0036B122BAB
:1037F0000AD10268136843F48073136004E02268FE
:10380000136843F48073136000962B4600224FF038
:1038100001112046FFF751FF58B123681B6813F4CC
:10382000807F2BD04FF4007323640323184603B02A
:10383000F0BD2369B3F5804F0ED1236807F0FE0772
:103840001F6133462A460F492046FFF76EFF0346A5
:103850000028EBD00123E9E7FB11226803F00603FF
:1038600043F0F003136133462A4607492046FFF729
:103870005CFF28B92368FFB21F61E2E70323D5E7A5
:103880000123D3E7020001000800010070B50446DF
:103890000D46164623685B6913F0800F1CD1204645
:1038A000FFF7F2FED0B9B5F1FF3FF3D0FFF752F9C1
:1038B000801BA84201D8002DECD1002323632022D5
:1038C00084F83D2084F83E30226C42F020022264CD
:1038D00084F83C30012000E0002070BD0120FCE7AE
:1038E00070B504460D46164623685B6913F0040F55
:1038F0001CD12046FFF7C8FED0B9B5F1FF3FF3D089
:10390000FFF728F9801BA84201D8002DECD1002335
:103910002363202284F83D2084F83E30226C42F05C
:103920002002226484F83C30012000E0002070BDB9
:103930000120FCE7002800F0C880F8B5044690F8A4
:103940003D30002B75D0242384F83D302268136865
:1039500023F0010313602268136843F400431360EB
:103960002268136823F40043136000F053FD62687B
:10397000584B9A4262D8584B98428CBF002301237F
:10398000002B40F0A480554BA3FB00239B0C216827
:103990004A6822F03F021A434A6025682A6A22F0E8
:1039A0003F0266684B498E424ED8013313432B6267
:1039B0002568E96921F44F4121F0FF016368454A18
:1039C00093424BD801385B00B0FBF3F30133C3F3F0
:1039D0000B03042B38BF04230B43EB6121680B68F6
:1039E00023F0C003E269206A024313430B6021689D
:1039F0008B6823F4034323F0FF032269E06802434A
:103A000013438B602168CB6823F0FF036269A069D0
:103A100002431343CB602268136843F00103136031
:103A200000202064202384F83D30206384F83E0089
:103A3000F8BD80F83C30FEF749FF84E7284B9842F8
:103A40008CBF002301239BE74FF4967101FB03F326
:103A50002449A1FB03139B090133A7E7A268BAB964
:103A6000461E03EB4307B6FBF7F60136C6F30B061B
:103A7000B6FA86F6760936BBC2B9013803EB4303C2
:103A8000B0FBF3F30133C3F30B0242F40043A3E7AB
:103A9000461E03EB830707EB8707B6FBF7F60136F5
:103AA000C6F30B06B6FA86F67609E4E7013803EBAF
:103AB000830303EB8303B0FBF3F20132C2F30B0287
:103AC00042F4404388E7012386E701207047012044
:103AD000AEE700BFA08601007F841E0083DE1B438B
:103AE000FF083D00D34D62102DE9F04184B004463B
:103AF0000E4690461F46FFF72DF894F83D30DBB296
:103B0000202B04D00226304604B0BDE8F0810546E3
:103B10000090192301224F492046FFF7CEFD0028CF
:103B200040F0918094F83C30012B00F08E8001230E
:103B300084F83C3023681A6812F0010F03D11A6828
:103B400042F001021A602268136823F400631360D4
:103B5000212384F83D30102384F83E300023236471
:103B6000C4F824806785638D23853B4BE3622B4635
:103B70000A9A31462046FFF72BFE0646002866D1FA
:103B80000023039323685A6903929B690393039B61
:103B900012E0236C042B01D00126B4E722681368DD
:103BA00043F4007313600126ADE72A460A992046C4
:103BB000FFF796FE00282CD1238D002B35D02A4606
:103BC0000A992046FFF762FE0028E2D1626A236864
:103BD00012781A61616A4B1C6362638D013B9BB270
:103BE0006385238D013B9BB223852268506910F0C9
:103BF000040FDAD0002BD8D04B781361636A0133FD
:103C00006362638D013B9BB26385238D013B2385FA
:103C1000CBE7236C042B01D0012674E722681368DC
:103C200043F40073136001266DE72268136843F4C0
:103C300000731360202384F83D30002384F83E3065
:103C400084F83C305FE702265DE702265BE7012649
:103C500059E700BF020010000000FFFF2DE9F0430C
:103C600085B00446884691461D46FEF773FF94F8DA
:103C70003D30DBB2202B04D00223184605B0BDE84E
:103C8000F083064600901923012259492046FFF788
:103C900014FD002840F0A18094F83C30012B00F086
:103CA0009E80012384F83C3023681A6812F0010FCB
:103CB00003D11A6842F001021A602268136823F4E3
:103CC00000631360242384F83D3000232364A3F5AC
:103CD0008033E36201273EE023681B6813F4807F92
:103CE0007FD04FF4007323640323C6E7A02384F836
:103CF0003D3023685A69C2F340025969C1F38021FB
:103D000094F83D30DBB2A02B09D042B939B9FEF7A7
:103D100021FF801BA842E9D8002DEAD1E6E7202345
:103D200084F83D3023685A6912F0020F31D11A68C5
:103D300042F400721A6023686FF480625A61009640
:103D4000192301222A492046FFF7B7FC00284CD14D
:103D500001374F4539D22268136843F480731360EA
:103D600000962B4600224FF001112046FFF7A5FCDC
:103D70000028B1D1236808F0FE021A61FEF7EAFEBE
:103D8000064623685A69C2F340025969C1F380218B
:103D9000B6E71A6842F400721A600023039323689E
:103DA0005A6903929B690393039B0096192301228E
:103DB0000F492046FFF781FC0346A0B9202284F872
:103DC0003D20002284F83C2057E7202384F83D3032
:103DD000002384F83C3001234FE702234DE7022300
:103DE0004BE7032349E7012347E7012345E700BFEA
:103DF0000200100082B0084B1B68084AA2FB032394
:103E00005B0A00FB03F0019000BF019B5A1E019268
:103E1000002BF9D102B0704724000020D34D62106E
:103E2000002800F0F58170B582B00446036813F0F5
:103E3000010F2CD0AB4B5B6803F00C03042B1DD09F
:103E4000A84B5B6803F00C03082B12D06368B3F532
:103E5000803F41D0002B55D103F1804303F504335B
:103E60001A6822F480321A601A6822F480221A60DA
:103E700037E09C4B5B6813F4803FE7D0994B1B689D
:103E800013F4003F03D06368002B00F0C381236864
:103E900013F0020F76D0934B5B6813F00C0F5FD0DA
:103EA000904B5B6803F00C03082B54D02369002B64
:103EB00000F08A808C4B01221A60FEF74BFE05460B
:103EC000884B1B6813F0020F75D1FEF743FE401BB1
:103ED0000228F5D90320A0E1824A136843F4803315
:103EE0001360636843B3FEF735FE05467D4B1B68E0
:103EF00013F4003FCBD1FEF72DFE401B6428F5D90B
:103F000003208AE1B3F5A02F09D0764B1A6822F47A
:103F100080321A601A6822F480221A60E1E703F105
:103F20008043A3F53C331A6842F480221A601A6871
:103F300042F480321A60D4E7FEF70CFE0546694B66
:103F40001B6813F4003FA2D0FEF704FE401B642858
:103F5000F5D9032061E1634B5B6813F4803FA5D181
:103F6000604B1B6813F0020F04D02369012B01D0B2
:103F7000012052E15B4A136823F0F803616943EAC8
:103F8000C1031360236813F0080F32D0A369002B1C
:103F90005BD0564B01221A60FEF7DCFD0546514B03
:103FA0005B6A13F0020F21D1FEF7D4FD401B0228FB
:103FB000F5D9032031E14B4A136823F0F803616916
:103FC00043EAC1031360DDE7474B00221A60FEF7A6
:103FD000C1FD0546434B1B6813F0020FD2D0FEF71C
:103FE000B9FD401B0228F5D9032016E10120FFF797
:103FF00001FF236813F0040F00F09880394BDB6950
:1040000013F0805F33D1374BDA6942F08052DA61C6
:10401000DB6903F080530193019B0125344B1B683E
:1040200013F4807F25D0E368012B36D0002B4CD1D0
:1040300003F1804303F504331A6A22F001021A6285
:104040001A6A22F004021A622CE0284B00221A603D
:10405000FEF780FD0546234B5B6A13F0020FC8D0C4
:10406000FEF778FD401B0228F5D90320D5E0002596
:10407000D4E71F4A136843F480731360FEF76AFDA8
:1040800006461B4B1B6813F4807FCCD1FEF762FD04
:10409000801B6428F5D90320BFE0124A136A43F05D
:1040A00001031362E3687BB3FEF754FD06460D4B34
:1040B0001B6A13F0020F38D1FEF74CFD801B41F252
:1040C00088339842F3D90320A7E0052B12D0054B83
:1040D0001A6A22F001021A621A6A22F004021A62B3
:1040E000E0E700BF0010024000004242800442426C
:1040F000007000404C4B1A6A42F004021A621A6ABD
:1041000042F001021A62CDE7FEF724FD0646464B57
:104110001B6A13F0020F08D0FEF71CFD801B41F252
:1041200088339842F3D9032077E0E5B9E369002B9F
:1041300072D03D4A526802F00C02082A56D0022B77
:1041400017D03A4B00221A60FEF704FD0446364BA6
:104150001B6813F0007F47D0FEF7FCFC001B022811
:10416000F5D9032059E0304AD36923F08053D36155
:10417000DCE72E4B00221A60FEF7ECFC05462A4BCA
:104180001B6813F0007F06D0FEF7E4FC401B0228FA
:10419000F5D9032041E0236AB3F5803F1AD02249C4
:1041A0004B6823F47413226A606A024313434B6022
:1041B0001E4B01221A60FEF7CDFC04461A4B1B6809
:1041C00013F0007F0ED1FEF7C5FC001B0228F5D9C5
:1041D000032022E0144A536823F40033A1680B4300
:1041E0005360DCE7002018E0002016E0012B16D019
:1041F0000D4B5B6803F48031226A914201D00120AB
:104200000BE003F47013626A93420AD0012004E0C9
:1042100001207047012000E0002002B070BD0120A5
:10422000FBE70020F9E700BF0010024060004242B7
:1042300010B487B0164C94E80F000DF1180C0CE97F
:104240000F00238AADF80430124B5B6803F00C02B8
:10425000082A1AD1C3F38342624412F8102C13F4D3
:10426000803F05D10C4800FB02F007B010BC70473E
:10427000084B5B68C3F34043634413F8143C07489E
:1042800000FB02F0B0FBF3F0EFE70448EDE700BFFE
:104290006C9900080010024000093D0000127A00ED
:1042A000002800F0A38070B50446524B1B6803F051
:1042B00007038B420CD24F4A136823F007030B43CA
:1042C0001360136803F007038B4201D0012070BD17
:1042D000236813F0020F17D013F0040F04D0464ADE
:1042E000536843F4E0635360236813F0080F04D06D
:1042F000414A536843F4605353603F4A536823F084
:10430000F003A068034353600D46236813F0010FC8
:1043100031D06368012B20D0022B25D0364A126899
:1043200012F0020F64D034494A6822F003021343AA
:104330004B60FEF70FFC06462F4B5B6803F00C0347
:104340006268B3EB820F16D0FEF704FC801B41F2CB
:1043500088339842F0D90320B9E7274A126812F44B
:10436000003FE0D10120B2E7234A126812F0007F3B
:10437000D9D10120ABE71F4B1B6803F00703AB4209
:104380000CD91C4A136823F007032B4313601368EE
:1043900003F00703AB4201D0012098E7236813F034
:1043A000040F06D0144A536823F4E063E1680B431A
:1043B0005360236813F0080F07D00F4A536823F4A3
:1043C0006053216943EAC1035360FFF731FF0A4B91
:1043D0005B68C3F30313094AD35CD840084B1860E9
:1043E000084B1868FEF712FB002070E701207047A9
:1043F00001206CE7002002400010024054990008A0
:10440000240000202C000020014B1868704700BFDA
:104410002400002008B5FFF7F7FF044B5B68C3F3E7
:104420000223034AD35CD84008BD00BF00100240FD
:104430006499000808B5FFF7E7FF044B5B68C3F316
:10444000C223034AD35CD84008BD00BF001002401D
:10445000649900080F2303600B4B5A6802F00302B3
:1044600042605A6802F0F00282605A6802F4E06228
:10447000C2605B68DB0803F4E0630361034B1B6805
:1044800003F007030B607047001002400020024059
:1044900070B582B00446036813F0010F34D03E4B70
:1044A000DB6913F0805F48D13B4BDA6942F0805200
:1044B000DA61DB6903F080530193019B0125374BDF
:1044C0001B6813F4807F3AD0334B1B6A13F440739C
:1044D00011D0626802F440729A420CD02E4A136ADC
:1044E00023F440702E4901260E6000260E601062F3
:1044F00013F0010F37D1284A136A23F4407361681F
:104500000B431362002D3FD1236813F0020F06D036
:10451000214A536823F44043A1680B435360236846
:1045200013F0100F35D01C4A536823F48003E16860
:104530000B435360002002B070BD0025BFE7174A4F
:10454000136843F480731360FEF704FB0646134BB5
:104550001B6813F4807FB7D1FEF7FCFA801B642838
:10456000F5D90320E7E7FEF7F5FA06460A4B1B6A82
:1045700013F0020FBFD1FEF7EDFA801B41F2883332
:104580009842F3D90320D6E7D36923F08053D3614F
:10459000BAE70020CFE700BF0010024000700040E3
:1045A0004004424230B587B00546384C94E80F00CD
:1045B0000DF1180C0CE90F00238AADF80430022D20
:1045C00050D0102D03D0012D2BD0002054E0304BC3
:1045D0005A681B6813F0807F50D0C2F3834306A94A
:1045E0000B4413F8100C12F4803F16D0284B5B6874
:1045F000C3F340430B4413F8142C264BB3FBF2F3E4
:1046000000FB03F0224B5B6813F4800F34D14000B1
:10461000214BA3FB003040082EE0204B03FB00F0B1
:10462000F0E71B4B1B6A40F202321A40B2F5817F61
:1046300026D003F44073B3F5007F04D0B3F5407F78
:1046400009D0002018E0124A526A12F0020FF5D089
:1046500049F6404010E00E4B1B6813F4003F12D1A6
:10466000002009E0FFF7E6FE094B5B68C3F38133E6
:1046700001335B00B0FBF3F007B030BD0020FBE777
:104680004FF40040F8E74FF22440F5E78099000826
:104690000010024000127A00ABAAAAAA00093D004D
:1046A00010B4036A046A24F001040462846924F0EB
:1046B000F00444EA021223F00A030B43826103620E
:1046C00010BC704710B4036A23F0100303628469BE
:1046D000036A24F4704444EA023223F0A00343EA5C
:1046E00001138261036210BC7047836823F070037A
:1046F000194341F0070181607047000090F83D3098
:10470000DBB2012B01D001207047022380F83D303D
:104710000268D36843F00103D3600368104A9342F0
:1047200010D0B3F1804F0DD0A2F59432934209D04E
:1047300002F58062934205D01A6842F001021A60C5
:10474000002070479A6802F00702062A05D01A680E
:1047500042F001021A60002070470020704700BF3D
:10476000002C0140704770477047704710B50446F1
:1047700003681A6912F0020F11D0DA6812F0020F02
:104780000DD06FF002021A610123037703689B6961
:1047900013F0030F70D0FFF7E6FF002323772368A1
:1047A0001A6912F0040F12D0DA6812F0040F0ED05A
:1047B0006FF004021A610223237723689B6913F4C4
:1047C000407F5FD02046FFF7CEFF0023237723688A
:1047D0001A6912F0080F12D0DA6812F0080F0ED022
:1047E0006FF008021A61042323772368DB6913F052
:1047F000030F4ED02046FFF7B6FF00232377236830
:104800001A6912F0100F12D0DA6812F0100F0ED0E1
:104810006FF010021A61082323772368DB6913F411
:10482000407F3DD02046FFF79EFF0023237723687B
:104830001A6912F0010F03D0DA6812F0010F36D1B5
:1048400023681A6912F0800F03D0DA6812F0800F23
:1048500034D123681A6912F0400F03D0DA6812F0DD
:10486000400F32D123681A6912F0200F03D0DA68A2
:1048700012F0200F30D110BDFFF774FF2046FFF774
:1048800073FF8AE72046FFF76DFF2046FFF76CFFB6
:104890009BE72046FFF766FF2046FFF765FFACE782
:1048A0002046FFF75FFF2046FFF75EFFBDE76FF092
:1048B00001021A612046FDF701F9C1E76FF080029D
:1048C0001A61204600F023F9C3E76FF040021A6135
:1048D0002046FFF74AFFC5E76FF020021A61204625
:1048E00000F014F9C7E7000003681B4A90420AD0A1
:1048F000B0F1804F07D0A2F59432904203D002F578
:104900008062904203D123F070034A681343124A35
:1049100090420AD0B0F1804F07D0A2F59432904275
:1049200003D002F58062904203D123F44073CA6839
:10493000134323F080034A69134303608B68C36207
:104940000B688362044B984202D001234361704795
:104950000B690363F9E700BF002C014038B310B5C1
:10496000044690F83D30EBB1022384F83D30211D20
:104970002068FFF7B9FF012384F8463084F83E3001
:1049800084F83F3084F8403084F8413084F8423075
:1049900084F8433084F8443084F8453084F83D305E
:1049A000002010BD80F83C30FDF7CCFFDCE7012093
:1049B000704710B4846824F47F4442EA03230B4315
:1049C0002343836010BC704790F83C30012B66D0C5
:1049D00010B50446012380F83C30022380F83D30B6
:1049E0000268936823F47F4323F0770393600B6896
:1049F000402B4AD013D9602B3DD01ED9702B28D024
:104A0000B3F5005F30D1CB684A6889680068FFF76A
:104A1000D0FF2268936843F48043936024E0102B16
:104A200006D004D9202B03D0302B01D01CE0DBB9F9
:104A300019462068FFF759FE16E0502B14D1CA68BA
:104A400049680068FFF72CFE50212068FFF74DFEF3
:104A50000AE0CB684A6889680068FFF7AAFF226805
:104A6000936843F077039360012384F83D3000207E
:104A700084F83C0010BDCA6849680068FFF722FE50
:104A800060212068FFF731FEEEE7CA6849680068D8
:104A9000FFF706FE40212068FFF727FEE4E702202B
:104AA0007047000090F83C30012B2BD030B401232C
:104AB00080F83C30022380F83D3003685C689D68D4
:104AC00024F070040A6822435A6003680E4A934235
:104AD0000AD0B3F1804F07D0A2F59432934203D0AD
:104AE00002F58062934204D125F080054A6815439F
:104AF0009D60012380F83D30002380F83C3018464B
:104B000030BC704702207047002C0140704770474E
:104B100038B504460268136923F44053C1680B4357
:104B2000136183680269134342691A430168CB68C1
:104B300023F4B05323F00C031343CB600268536992
:104B400023F4407381690B4353610268124B9A420C
:104B50001FD0FFF75FFC00EB800000EB8000636874
:104B60009B00B0FBF3F00D4DA5FB00325109642210
:104B700002FB110213013233A5FB03235B0903F08F
:104B8000F00202EB011203F00F03216813448B6063
:104B900038BDFFF74FFCDEE7003801401F85EB51C1
:104BA00058B310B5044690F839300BB3242384F879
:104BB00039302268D36823F40053D3602046FFF7CE
:104BC000A7FF2268136923F4904313612268536995
:104BD00023F02A0353612268D36843F40053D3605F
:104BE0000020E063202384F8393084F83A3010BD87
:104BF00080F83830FDF7CEFED8E70120704700007E
:104C0000EFF305839BB9EFF310839BB90C4B1B6843
:104C1000022B05D08BB90A4B01221A600020704785
:104C2000EFF31182002AF5D06FF0050070476FF0A6
:104C3000050070476FF0050070474FF0FF30704778
:104C4000E004002008B5EFF30583B3B9EFF3108358
:104C5000B3B90E4B1B68022B08D0012B13D10B4BA1
:104C600002221A6000F02AFE002008BDEFF3118234
:104C7000002AF2D06FF00500F7E76FF00500F4E7C7
:104C80006FF00500F1E74FF0FF30EEE7E0040020A1
:104C9000F0B587B000240494EFF305844CBBEFF328
:104CA000108333BB334B1B68022B25D008B3002382
:104CB0008DF8173092B316681EB3946904B918249E
:104CC000631E372B52D8536813F0010F50D155692A
:104CD000D5B14FEA950C93682BB1D7685B2F02D9F9
:104CE000176907B10DBB93B14FF0FF35012D23D0EC
:104CF00075B3049807B0F0BDEFF31183002BF8D122
:104D0000D4E70DF11706D8E74FF0800CE3E7D3683E
:104D10006BB9136973B14FF0FF35E7E7002518242D
:104D20004FF0800C0DF11706E0E70125DEE74FF0AC
:104D3000FF35DBE70025D9E71369926802920193FA
:104D400000940B466246314600F04CFD0490D0E7DB
:104D500004AA019200940B461FFA8CF2314600F02F
:104D60007AFD0128C5D000230493C2E70020C1E7E3
:104D70000020BFE7E004002008B5EFF30583A3B9E6
:104D8000EFF31083A3B90C4B1B68022B02D040B980
:104D9000002008BDEFF31183002BF8D06FF0050061
:104DA000F7E700F0DFFE0020F3E76FF00500F0E723
:104DB0006FF00500EDE700BFE004002010B4044BE5
:104DC0001C1D046060330B608023136010BC7047AF
:104DD000E004002010B4064B03F51874046003F5DA
:104DE0002F730B604FF48073136010BC704700BFCB
:104DF000E004002000F1080343604FF0FF328260BE
:104E0000C3600361002303607047002303617047A0
:104E100043684B609A688A609A685160996008613B
:104E2000036801330360704730B40D68B5F1FF3F8C
:104E300002D000F1080202E0026904E01A46536859
:104E40001C68AC42FAD953684B6099608A60516023
:104E5000086103680133036030BC7047036942682E
:104E6000816891608268416851605A68824206D0C8
:104E7000002202611A68013A1A6018687047826855
:104E80005A60F5E710B5044601F06CFAA26BE36BCB
:104E90009A4204D0002401F087FA204610BD012474
:104EA000F9E710B5044601F05DFAA36B23B10024C5
:104EB00001F07AFA204610BD0124F9E770B50446E6
:104EC0001646856B026C5AB903681BB10020013588
:104ED000A56370BD406800F091FF00236360F6E7B2
:104EE0006EB9806801F0BCFC226CA3681344A36017
:104EF0006268934219D32368A3600020E7E7C06883
:104F000001F0AEFC226C5242E3681344E360216876
:104F10008B4202D263681A44E260022E01D0002064
:104F2000D5E725B1013D0020D1E70020CFE70020E3
:104F3000CDE7026C72B110B5C3681344C360446816
:104F4000A34201D30368C3600C46C168204601F048
:104F500087FC10BD704738B5054601F003FA95F897
:104F6000454064B203E000F031FF013C64B2002C24
:104F700008DD6B6A33B105F1240000F099FE0028CA
:104F8000F3D0F0E7FF2385F8453001F00DFA01F08A
:104F9000E9F995F8444064B203E000F017FF013CE2
:104FA00064B2002C08DD2B6933B105F1100000F06C
:104FB0007FFE0028F3D0F0E7FF2385F8443001F0AE
:104FC000F3F938BD38B540B94FF0500383F3118879
:104FD000BFF36F8FBFF34F8FFEE704460D4601F01E
:104FE000C1F92168E26B236C03FB021060600020B2
:104FF000A063A160013A02FB0313E360FF2384F87E
:10500000443084F84530A5B923691BB901F0CCF9C7
:10501000012038BD04F1100000F04AFE0028F5D050
:10502000084B4FF080521A60BFF34F8FBFF36F8F62
:10503000ECE704F11000FFF7DDFE04F12400FFF7B8
:10504000D9FEE3E704ED00E038B51D46049C0B46AD
:1050500049B12260E063236401212046FFF7B2FFDB
:1050600084F84C5038BD2460F4E740B94FF0500349
:1050700083F31188BFF36F8FBFF34F8FFEE710B537
:1050800084B0044653B192B189B94FF0500383F311
:105090001188BFF36F8FBFF34F8FFEE74FF05003C0
:1050A00083F31188BFF36F8FBFF34F8FFEE74AB9C9
:1050B00041B14FF0500383F31188BFF36F8FBFF3FB
:1050C0004F8FFEE7502003900398502808D04FF0F0
:1050D000500383F31188BFF36F8FBFF34F8FFEE749
:1050E00020461C46012384F8463000949DF8183071
:1050F000FFF7AAFF204604B010BD0000F0B585B050
:10510000019260B1044699B9026C8AB14FF0500324
:1051100083F31188BFF36F8FBFF34F8FFEE74FF01C
:10512000500383F31188BFF36F8FBFF34F8FFEE7F8
:10513000022B0BD1E26B012A08D04FF0500383F30E
:105140001188BFF36F8FBFF34F8FFEE71E460F46E8
:1051500000F044FE50B9019B53B14FF0500383F36C
:105160001188BFF36F8FBFF34F8FFEE700253AE042
:10517000002538E0324639462046FFF79FFE636A35
:105180004BB9A8B13B4B4FF080521A60BFF34F8F21
:10519000BFF36F8F0CE004F1240000F089FD38B1FB
:1051A000344B4FF080521A60BFF34F8FBFF36F8FB5
:1051B00001F0FAF8012005B0F0BD01F0F5F800208B
:1051C000F9E702A800F0B8FD012519E0002384F8F2
:1051D000443021E0002384F8453023E02046FFF7E7
:1051E000BAFE00F047FC01F0BDF8A26BE36B9A42F7
:1051F000C0D3022EBED0019B002BDED0002DE0D00C
:1052000001F0D2F800F0A0FB01F0ACF894F84430C3
:105210005BB2B3F1FF3FD9D094F845305BB2B3F144
:10522000FF3FD7D001F0C0F801A902A800F08EFD21
:10523000C8B92046FFF726FE0028CFD0019904F117
:10524000100000F0FDFC2046FFF785FE00F012FC88
:105250000028C8D1074B4FF080521A60BFF34F8F20
:10526000BFF36F8FBFE72046FFF775FE00F002FC2B
:105270000020A0E704ED00E02DE9F84360B104460A
:1052800099B9006C88B14FF0500383F31188BFF3D4
:105290006F8FBFF34F8FFEE74FF0500383F31188FA
:1052A000BFF36F8FBFF34F8FFEE7022B0BD1E06B85
:1052B000012808D04FF0500383F31188BFF36F8F9C
:1052C000BFF34F8FFEE71F469046894601F036F93F
:1052D000EFF311864FF0500383F31188BFF36F8F04
:1052E000BFF34F8FA26BE36B9A4203D3022F01D01F
:1052F00000200FE094F845506DB23A4649462046EA
:10530000FFF7DCFDB5F1FF3F08D06B1C5BB284F802
:105310004530012086F31188BDE8F883636A5BB1EC
:1053200004F1240000F0C4FC40B1B8F1000F07D034
:105330000120C8F80000EDE70120EBE70120E9E7D4
:105340000120E7E7F0B585B0019260B1044699B954
:10535000036C8BB14FF0500383F31188BFF36F8F51
:10536000BFF34F8FFEE74FF0500383F31188BFF375
:105370006F8FBFF34F8FFEE70F4600F02FFD50B940
:10538000019B53B14FF0500383F31188BFF36F8F2C
:10539000BFF34F8FFEE700263EE000263CE0394693
:1053A0002046FFF7C6FD013DA563236923B900F040
:1053B000FBFF012005B0F0BD04F1100000F078FC07
:1053C0000028F4D0344B4FF080521A60BFF34F8F57
:1053D000BFF36F8FEBE700F0E7FF0020EAE702A8DA
:1053E00000F0AAFC012621E0002384F8443029E0E3
:1053F000002384F845302BE02046FFF7ACFD00F099
:1054000039FB09E02046FFF7A6FD00F033FB2046FC
:10541000FFF747FD00283DD100F0A4FFA56B002D4C
:10542000BDD1019B002BD6D0002ED8D000F0BCFF00
:1054300000F08AFA00F096FF94F844305BB2B3F1C2
:10544000FF3FD1D094F845305BB2B3F1FF3FCFD0EE
:1054500000F0AAFF01A902A800F078FC0028D1D131
:105460002046FFF71EFD0028C6D0019904F1240054
:1054700000F0E6FB2046FFF76EFD00F0FBFA002887
:10548000CAD1054B4FF080521A60BFF34F8FBFF364
:105490006F8FC1E700208DE704ED00E00023072BAC
:1054A0000CD8074A52F833200AB10133F7E7044A0F
:1054B00042F8331002EBC30358607047704700BFD7
:1054C000301F002070B504460D46164600F04AFF16
:1054D00094F844305BB2B3F1FF3F0DD094F84530FF
:1054E0005BB2B3F1FF3F0BD000F05EFFA36B5BB18B
:1054F0002046FFF730FD70BD002384F84430EDE70F
:10550000002384F84530EFE73246294604F12400B1
:1055100000F0B0FBECE70000074B9B6A1B6833B15F
:10552000054B9A6AD268D2685268DA627047024BB9
:105530004FF0FF32DA6270479C0B00202DE9F047F4
:1055400081460D4617469A46089EDDF824800A9C3F
:105550009200A521206B01F08EF9236B07F18042A8
:10556000013A03EB820727F0070700230F2B07D828
:10557000E95CE21882F83410EA5C0AB10133F5E71D
:10558000002384F84330372E00D93726E662E664DC
:1055900000252565201DFFF738FC04F11800FFF7F2
:1055A00034FC2461C6F13806A6616462656584F83E
:1055B000585052464946384600F0AEFE2060B8F1D9
:1055C000000F01D0C8F80040BDE8F08770B5002496
:1055D00007E004EB8402930010481844FFF70AFC2C
:1055E0000134372CF5D90E4C04F592663046FFF79E
:1055F00001FC04F2A4452846FFF7FCFB04F114006B
:10560000FFF7F8FB04F59760FFF7F4FB2046FFF780
:10561000F1FBA662C4F8CC5470BD00BFCC0B0020D7
:105620009C0B002038B5044600F09CFE274BD3F8B5
:10563000D0240132C3F8D024D3F8D43473B1234B2F
:10564000D3F8D8348BB9214BD3F8D434DA6AE36A6F
:105650009A420AD81D4BC3F8D44406E01B4BC3F84A
:10566000D444D3F8D034012B2CD0184AD2F8DC34EF
:105670000133C2F8DC346364E36AD2F8E024934275
:1056800002D9124AC2F8E034104D05F1300003EBA4
:1056900083039A00211D1044FFF7BAFB00F084FE3B
:1056A000D5F8D8346BB1D5F8D434DA6AE36A9A42C3
:1056B00007D2074B4FF080521A60BFF34F8FBFF3F2
:1056C0006F8F38BDFFF782FFCFE700BF9C0B002034
:1056D00004ED00E010B5044690F8593033B9006B82
:1056E00001F036F8204601F033F810BD012B0AD046
:1056F000022BFAD04FF0500383F31188BFF36F8F62
:10570000BFF34F8FFEE701F023F8EEE738B517E05F
:1057100000F028FE0D4CD4F8C434DD68281DFFF7D6
:105720009DFBD4F8D034013BC4F8D034D4F8E43431
:10573000013BC4F8E43400F037FE2846FFF7CAFF07
:10574000024BD3F8E434002BE2D138BD9C0B00208F
:1057500008B5FFF7DBFF064B1B6B012BF9D9054B97
:105760004FF080521A60BFF34F8FBFF36F8FF0E797
:105770009C0B002004ED00E070B504460E46184B6B
:10578000D3F8E854D3F8D4040430FFF767FBB4F13E
:10579000FF3F12D02C44124BD3F8D4345C60A542A6
:1057A00014D80F4DA86AD5F8D4140431FFF73CFB88
:1057B000EB6AA34212D9EC6210E0002EEAD008484E
:1057C000D0F8D4140431FFF723FB07E0044BD3F8DF
:1057D000CC04D3F8D4140431FFF726FB70BD00BF0E
:1057E0009C0B002070B586B00B9D0C9C45B94FF00A
:1057F000500383F31188BFF36F8FBFF34F8FFEE722
:1058000044B94FF0500383F31188BFF36F8FBFF398
:105810004F8FFEE75C260496049E5C2E08D04FF066
:10582000500383F31188BFF36F8FBFF34F8FFEE7F1
:105830002563022584F8595000250395029405AD8F
:1058400001950A9D0095FFF779FE2046FFF7EAFED5
:10585000059806B070BD2DE9F04385B0074688462F
:1058600015469946900000F0EDFE08B306465C2010
:1058700000F0E8FE0446B8B10663E4B1002384F802
:105880005930039302940D9B01930C9B00934B465C
:105890002A4641463846FFF751FE2046FFF7C2FE32
:1058A000012005B0BDE8F083304600F051FFE4E789
:1058B0004FF0FF30F5E74FF0FF30F2E710B588B05A
:1058C00000240594069407AA06A905A8FFF776FA0E
:1058D000059B0293069B019300942346079A174960
:1058E0001748FFF77FFF40B100F030FB012806D0DA
:1058F000B0F1FF3F18D008B010BD0020F6E74FF020
:10590000500383F31188BFF36F8FBFF34F8F0D4B9D
:105910004FF0FF32DA620122C3F8D8240022C3F824
:10592000E82400F0B1FDE6E74FF0500383F311885F
:10593000BFF36F8FBFF34F8FFEE700BF189A0008C9
:10594000515700089C0B0020034AD2F8EC34013375
:10595000C2F8EC34704700BF9C0B0020014BD3F819
:10596000E80470479C0B00202DE9F041404BD3F830
:10597000EC34002B6DD13E4BD3F8E8540135C3F81D
:10598000E854CDB99B6A1B6843B14FF0500383F3D1
:105990001188BFF36F8FBFF34F8FFEE7344B9A6AC6
:1059A000D3F8CC149962C3F8CC24D3F8F024013294
:1059B000C3F8F024FFF7B0FD2D4BDB6AAB423ED9B4
:1059C00000242B4AD2F8D434DB6A03EB830399001A
:1059D0000A44136B012B43D9012441E00124244BD9
:1059E0009B6A1B686BB3224B9B6ADB68DE6873683B
:1059F0009D422BD306F104084046FFF72FFAB36A05
:105A00001BB106F11800FFF729FAF36A184AD2F819
:105A1000E024934202D9164AC2F8E034144F07F149
:105A2000300003EB83039A0041461044FFF7F0F97E
:105A3000F26AD7F8D434DB6A9A42CFD2CFE7002497
:105A4000CDE70B4B4FF0FF32DA62BAE7084AD36278
:105A5000B7E7074AD2F8F4340133C2F8F43400242B
:105A6000034BD3F8F83403B101242046BDE8F0819C
:105A70009C0B0020394BD3F8EC3443B94FF0500362
:105A800083F31188BFF36F8FBFF34F8FFEE770B5BD
:105A900000F068FC314BD3F8EC24013AC3F8EC2455
:105AA000D3F8EC34002B54D12C4BD3F8D03423B999
:105AB000002400F079FC204670BD0024274B5B6970
:105AC0002BB3264D2B6ADC6804F11800FFF7C6F9EA
:105AD000261D3046FFF7C2F9E36AD5F8E024934269
