:020000040800F2
:1000000000500020DD460008A5250008A7250008AF
:10001000A9250008AB250008AD2500080000000058
:10002000000000000000000000000000AF250008F4
:10003000B125000800000000B3250008B525000820
:1000400025470008254700082547000825470008E0
:1000500025470008254700082547000825470008D0
:1000600025470008254700082547000825470008C0
:1000700025470008254700082547000825470008B0
:1000800025470008254700082547000825470008A0
:100090002547000825470008254700082547000890
:1000A000BD250008CD250008254700082547000884
:1000B0002547000825470008254700082547000870
:1000C0002547000825470008254700082547000860
:1000D0002547000825470008254700082547000850
:1000E00025470008254700082547000800000000B4
:1000F0000000000000000000000000000000000000
:0C01000000000000000000005FF808F1A3
:1001100010B5054C237833B9044B13B10448AFF341
:1001200000800123237010BD90000020000000001B
:10013000B04F000808B5034B1BB103490348AFF3A8
:10014000008008BD0000000094000020B04F0008AF
:1001500081F0004102E000BF83F0004330B54FEA78
:1001600041044FEA430594EA050F08BF90EA020FE5
:100170001FBF54EA000C55EA020C7FEA645C7FEA78
:10018000655C00F0E2804FEA5454D4EB5555B8BF9B
:100190006D420CDD2C4480EA020281EA030382EA0C
:1001A000000083EA010180EA020281EA0303362D9E
:1001B00088BF30BD11F0004F4FEA01314FF4801C71
:1001C0004CEA113102D0404261EB410113F0004F83
:1001D0004FEA03334CEA133302D0524263EB43033A
:1001E00094EA050F00F0A780A4F10104D5F1200ED8
:1001F0000DDB02FA0EFC22FA05F2801841F1000133
:1002000003FA0EF2801843FA05F359410EE0A5F106
:1002100020050EF1200E012A03FA0EFC28BF4CF037
:10022000020C43FA05F3C01851EBE37101F00045ED
:1002300007D54FF0000EDCF1000C7EEB00006EEBFA
:100240000101B1F5801F1BD3B1F5001F0CD3490884
:100250005FEA30004FEA3C0C04F101044FEA4452DB
:1002600012F5800F80F09A80BCF1004F08BF5FEA62
:10027000500C50F1000041EB045141EA050130BD42
:100280005FEA4C0C404141EB010111F4801FA4F1E5
:100290000104E9D191F0000F04BF01460020B1FA3A
:1002A00081F308BF2033A3F10B03B3F120020CDA72
:1002B0000C3208DD02F1140CC2F10C0201FA0CF050
:1002C00021FA02F10CE002F11402D8BFC2F1200CB5
:1002D00001FA02F120FA0CFCDCBF41EA0C0190406B
:1002E000E41AA2BF01EB0451294330BD6FEA0404B4
:1002F0001F3C1CDA0C340EDC04F11404C4F120029F
:1003000020FA04F001FA02F340EA030021FA04F3B0
:1003100045EA030130BDC4F10C04C4F1200220FA07
:1003200002F001FA04F340EA0300294630BD21FA45
:1003300004F0294630BD94F0000F83F4801306BF0B
:1003400081F480110134013D4EE77FEA645C18BFFF
:100350007FEA655C29D094EA050F08BF90EA020F96
:1003600005D054EA000C04BF1946104630BD91EA8E
:10037000030F1EBF0021002030BD5FEA545C05D191
:100380004000494128BF41F0004130BD14F58004D0
:100390003CBF01F5801130BD01F0004545F0FE4144
:1003A00041F470014FF0000030BD7FEA645C1ABF79
:1003B000194610467FEA655C1CBF0B46024650EAB0
:1003C000013406BF52EA033591EA030F41F40021DC
:1003D00030BD00BF90F0000F04BF0021704730B562
:1003E0004FF4806404F132044FF000054FF0000137
:1003F00050E700BF90F0000F04BF0021704730B5F8
:100400004FF4806404F1320410F0004548BF4042CC
:100410004FF000013EE700BF42004FEAE2014FEA21
:1004200031014FEA02701FBF12F07F4393F07F4FFC
:1004300081F06051704732F07F4208BF704793F0FF
:100440007F4F04BF41F40021704730B54FF4607412
:1004500001F0004521F000411CE700BF50EA010215
:1004600008BF704730B54FF000050AE050EA0102BE
:1004700008BF704730B511F0004502D5404261EB2E
:1004800041014FF4806404F132045FEA915C3FF46F
:10049000D8AE4FF003025FEADC0C18BF03325FEA0C
:1004A000DC0C18BF033202EBDC02C2F1200300FABD
:1004B00003FC20FA02F001FA03FE40EA0E0021FAE2
:1004C00002F11444BDE600BF70B54FF0FF0C4CF4D0
:1004D000E06C1CEA11541DBF1CEA135594EA0C0F82
:1004E00095EA0C0F00F0DEF82C4481EA030621EABD
:1004F0004C5123EA4C5350EA013518BF52EA0335F8
:1005000041F4801143F4801338D0A0FB02CE4FF0A9
:100510000005E1FB02E506F00042E0FB03E54FF0D9
:100520000006E1FB03569CF0000F18BF4EF0010ED1
:10053000A4F1FF04B6F5007F64F5407404D25FEACD
:100540004E0E6D4146EB060642EAC62141EA555180
:100550004FEAC52040EA5E504FEACE2EB4F1FD0CC2
:1005600088BFBCF5E06F1ED8BEF1004F08BF5FEA40
:10057000500E50F1000041EB045170BD06F00046F2
:1005800046EA010140EA020081EA0301B4EB5C049F
:10059000C2BFD4EB0C0541EA045170BD41F4801197
:1005A0004FF0000E013C00F3AB8014F1360FDEBFBC
:1005B000002001F0004170BDC4F10004203C35DA98
:1005C0000C341BDC04F11404C4F1200500FA05F31B
:1005D00020FA04F001FA05F240EA020001F00042BC
:1005E00021F0004110EBD37021FA04F642EB060132
:1005F0005EEA430E08BF20EAD37070BDC4F10C045C
:10060000C4F1200500FA04F320FA05F001FA04F21F
:1006100040EA020001F0004110EBD37041F100010B
:100620005EEA430E08BF20EAD37070BDC4F1200516
:1006300000FA05F24EEA020E20FA04F301FA05F27E
:1006400043EA020321FA04F001F0004121FA04F226
:1006500020EA020000EBD3705EEA430E08BF20EAF6
:10066000D37070BD94F0000F0FD101F00046400030
:1006700041EB010111F4801F08BF013CF7D041EAB2
:10068000060195F0000F18BF704703F000465200B6
:1006900043EB030313F4801F08BF013DF7D043EA87
:1006A0000603704794EA0C0F0CEA135518BF95EA3D
:1006B0000C0F0CD050EA410618BF52EA4306D1D1C4
:1006C00081EA030101F000414FF0000070BD50EAE3
:1006D000410606BF1046194652EA430619D094EA6D
:1006E0000C0F02D150EA013613D195EA0C0F05D157
:1006F00052EA03361CBF104619460AD181EA0301AB
:1007000001F0004141F0FE4141F470014FF0000062
:1007100070BD41F0FE4141F4780170BD70B54FF0FD
:10072000FF0C4CF4E06C1CEA11541DBF1CEA13557D
:1007300094EA0C0F95EA0C0F00F0A7F8A4EB05045F
:1007400081EA030E52EA03354FEA013100F0888056
:100750004FEA03334FF0805545EA131343EA12631F
:100760004FEA022245EA111545EA10654FEA0026D4
:100770000EF000419D4208BF964244F1FD0404F58D
:10078000407402D25B084FEA3202B61A65EB0305E9
:100790005B084FEA32024FF480104FF4002CB6EBA6
:1007A000020E75EB030E22BFB61A754640EA0C0026
:1007B0005B084FEA3202B6EB020E75EB030E22BF66
:1007C000B61A754640EA5C005B084FEA3202B6EBA7
:1007D000020E75EB030E22BFB61A754640EA9C0066
:1007E0005B084FEA3202B6EB020E75EB030E22BF36
:1007F000B61A754640EADC0055EA060E18D04FEAF4
:10080000051545EA16754FEA06164FEAC30343EA93
:1008100052734FEAC2025FEA1C1CC0D111F4801F60
:100820000BD141EA00014FF000004FF0004CB6E759
:1008300011F4801F04BF01430020B4F1FD0C88BFF8
:10084000BCF5E06F3FF6AFAEB5EB030C04BFB6EB03
:10085000020C5FEA500C50F1000041EB045170BDF6
:100860000EF0004E4EEA113114EB5C04C2BFD4EB23
:100870000C0541EA045170BD41F480114FF0000EA7
:10088000013C90E645EA060E8DE60CEA135594EA23
:100890000C0F08BF95EA0C0F3FF43BAF94EA0C0F26
:1008A0000AD150EA01347FF434AF95EA0C0F7FF49B
:1008B00025AF104619462CE795EA0C0F06D152EAEF
:1008C00003353FF4FDAE1046194622E750EA4106D3
:1008D00018BF52EA43067FF4C5AE50EA41047FF4E4
:1008E0000DAF52EA43057FF4EBAE12E74A0011D296
:1008F00012F5001211D20DD56FF47873B3EB62527A
:100900000ED44FEAC12343F0004343EA505323FA85
:1009100002F070474FF00000704750EA013002D1FA
:100920004FF0FF3070474FF0000070474FEA410230
:10093000B2F1E04324BFB3F5001CDCF1FE5C0DD93D
:1009400001F0004C4FEAC0024CEA5070B2F1004F87
:1009500040EB830008BF20F00100704711F0804F8A
:1009600021D113F13872BCBF01F00040704741F44F
:1009700080114FEA5252C2F11802C2F1200C10FA53
:100980000CF320FA02F018BF40F001004FEAC12337
:100990004FEAD32303FA0CFC40EA0C0023FA02F3DB
:1009A0004FEA4303CCE77FEA625307D150EA0133B1
:1009B0001EBF4FF0FE4040F44000704701F0004081
:1009C00040F0FE4040F40000704700BF80F000405F
:1009D00002E000BF81F0004142001FBF5FEA410317
:1009E00092EA030F7FEA226C7FEA236C6AD04FEA17
:1009F0001262D2EB1363C1BFD2184140484041405C
:100A0000B8BF5B42192B88BF704710F0004F40F40D
:100A1000000020F07F4018BF404211F0004F41F429
:100A2000000121F07F4118BF494292EA030F3FD0F5
:100A3000A2F1010241FA03FC10EB0C00C3F1200308
:100A400001FA03F100F0004302D5494260EB400097
:100A5000B0F5000F13D3B0F1807F06D340084FEA02
:100A6000310102F10102FE2A51D2B1F1004F40EBF7
:100A7000C25008BF20F0010040EA0300704749005F
:100A800040EB000010F4000FA2F10102EDD1B0FA2A
:100A900080FCACF1080CB2EB0C0200FA0CF0AABF1F
:100AA00000EBC25052421843BCBFD04018437047BD
:100AB00092F0000F81F4000106BF80F400000132C3
:100AC000013BB5E74FEA41037FEA226C18BF7FEA9A
:100AD000236C21D092EA030F04D092F0000F08BFDC
:100AE0000846704790EA010F1CBF0020704712F0C3
:100AF0007F4F04D1400028BF40F00040704712F102
:100B000000723CBF00F50000704700F0004343F066
:100B1000FE4040F4000070477FEA226216BF08469C
:100B20007FEA23630146420206BF5FEA412390EA5F
:100B3000010F40F4800070474FF0000304E000BF55
:100B400010F0004348BF40425FEA000C08BF704706
:100B500043F0964301464FF000001CE050EA0102CA
:100B600008BF70474FF000030AE000BF50EA0102DF
:100B700008BF704711F0004302D5404261EB4101CC
:100B80005FEA010C02BF84460146002043F0B643F1
:100B900008BFA3F18053A3F50003BCFA8CF2083A16
:100BA000A3EBC25310DB01FA02FC634400FA02FC1F
:100BB000C2F12002BCF1004F20FA02F243EB020026
:100BC00008BF20F00100704702F1200201FA02FC88
:100BD000C2F1200250EA4C0021FA02F243EB02007B
:100BE00008BF20EADC7070474FF0FF0C1CEAD052BF
:100BF0001EBF1CEAD15392EA0C0F93EA0C0F6FD080
:100C00001A4480EA010C400218BF5FEA41211ED05D
:100C10004FF0006343EA501043EA5111A0FB013149
:100C20000CF00040B1F5000F3EBF490041EAD3711E
:100C30005B0040EA010062F17F02FD2A1DD8B3F19A
:100C4000004F40EBC25008BF20F00100704790F009
:100C5000000F0CF0004C08BF49024CEA502040EA5B
:100C600051207F3AC2BFD2F1FF0340EAC250704721
:100C700040F400004FF00003013A5DDC12F1190F5F
:100C8000DCBF00F000407047C2F10002410021FAD1
:100C900002F1C2F1200200FA02FC5FEA310040F1E9
:100CA000000053EA4C0308BF20EADC70704792F062
:100CB000000F00F0004C02BF400010F4000F013A9A
:100CC000F9D040EA0C0093F0000F01F0004C02BF95
:100CD000490011F4000F013BF9D041EA0C018FE704
:100CE0000CEAD15392EA0C0F18BF93EA0C0F0AD00A
:100CF00030F0004C18BF31F0004CD8D180EA010030
:100D000000F00040704790F0000F17BF90F0004FC8
:100D1000084691F0000F91F0004F14D092EA0C0FAA
:100D200001D142020FD193EA0C0F03D14B0218BF3D
:100D3000084608D180EA010000F0004040F0FE4083
:100D400040F40000704740F0FE4040F4400070471F
:100D50004FF0FF0C1CEAD0521EBF1CEAD15392EA9E
:100D60000C0F93EA0C0F69D0A2EB030280EA010C8E
:100D700049024FEA402037D04FF0805343EA111127
:100D800043EA10130CF000408B4238BF5B0042F185
:100D90007D024FF4000C8B4224BF5B1A40EA0C002A
:100DA000B3EB510F24BFA3EB510340EA5C00B3EB5C
:100DB000910F24BFA3EB910340EA9C00B3EBD10F4A
:100DC00024BFA3EBD10340EADC001B0118BF5FEA9C
:100DD0001C1CE0D1FD2A3FF650AF8B4240EBC250C5
:100DE00008BF20F0010070470CF0004C4CEA502086
:100DF0007F32C2BFD2F1FF0340EAC250704740F4D5
:100E000000004FF00003013A37E792F0000F00F0C6
:100E1000004C02BF400010F4000F013AF9D040EA44
:100E20000C0093F0000F01F0004C02BF490011F4D8
:100E3000000F013BF9D041EA0C0195E70CEAD153D0
:100E400092EA0C0F08D142027FF47DAF93EA0C0FB7
:100E50007FF470AF084676E793EA0C0F04D14B029B
:100E60003FF44CAF08466EE730F0004C18BF31F04D
:100E7000004CCAD130F000427FF45CAF31F0004347
:100E80007FF43CAF5FE700BF4FF0FF3C06E000BFE0
:100E90004FF0010C02E000BF4FF0010C4DF804CD03
:100EA0004FEA40024FEA41037FEA226C18BF7FEA13
:100EB000236C11D001B052EA530C18BF90EA010F15
:100EC00058BFB2EB030088BFC81738BF6FEAE170A4
:100ED00018BF40F0010070477FEA226C02D15FEA40
:100EE000402C05D17FEA236CE4D15FEA412CE1D0AC
:100EF0005DF8040B704700BF844608466146FFE773
:100F00000FB5FFF7C9FF002848BF10F1000F0FBD54
:100F10004DF808EDFFF7F4FF0CBF012000205DF84D
:100F200008FB00BF4DF808EDFFF7EAFF34BF0120D2
:100F300000205DF808FB00BF4DF808EDFFF7E0FF6B
:100F400094BF012000205DF808FB00BF4DF808EDBC
:100F5000FFF7D2FF94BF012000205DF808FB00BF1F
:100F60004DF808EDFFF7C8FF34BF012000205DF801
:100F700008FB00BF4FEA4002B2F1FE4F0FD34FF023
:100F80009E03B3EB12620DD94FEA002343F00043F6
:100F900010F0004F23FA02F018BF404270474FF0A4
:100FA0000000704712F1610F01D1420205D110F02B
:100FB000004008BF6FF0004070474FF000007047DE
:100FC000074B984207D803889BB24FF6FF729342B3
:100FD00003D10430F4E7012070470020704700BFC0
:100FE000FF830008114B1B889BB2114A128892B2F2
:100FF00078B1012811D12AB94EF6EE618B420FD19A
:1010000013460BE073B94EF6EE618A4206D14023D7
:1010100004E01BB142B9402300E0002318467047AA
:101020004023FBE7AB23F9E7AB23F7E70080000899
:101030000080010870B505460E460120FFF7D2FF7B
:10104000AB2821D000F500342034A402431C0F4803
:1010500000EB8320844216D22368B3F1FF3F01D016
:101060000434F7E7B2B200232146012001F010FF5B
:1010700008B180B208E0AAB20023A11C012001F04F
:1010800007FF80B200E0802070BD00BFFF7F000836
:1010900010B586B0002305930193124803900123F5
:1010A0000493FFF78DFF28B905A901A801F062FF9D
:1010B000044638B9002200230A49012001F0E8FE65
:1010C000044610B1204606B010BD07480390FFF754
:1010D00077FF0028F6D105A901A801F04BFF0446CF
:1010E000F0E700BF008000080080010838B5044622
:1010F0000D460020FFF776FFAB2816D000F5003232
:1011000020329202431C094800EB8320931C834247
:101110000AD203889BB2A34201D00438F6E730F824
:10112000023C2B80002000E0012038BDFE7F00083B
:10113000F0B587B0002205928F4B1E88B6B28F495A
:101140000C88A4B201920393012304934EF6EE633C
:101150009E4240D04FF6FF739E420BD0002E00F00F
:101160009D80FFF795FF002800F0048184B220469F
:1011700007B0F0BD54B14EF6EE639C4215D0FFF7B8
:1011800087FF002800F0EE8084B2F0E77A48FFF78E
:1011900017FF05460028EAD105A901A801F0EAFEDB
:1011A000002800F0DB8084B2E1E77348FFF708FF16
:1011B00020B905A901A801F0DDFE50B900220023E5
:1011C0006E49012001F064FE002800F0C98084B25D
:1011D000CDE784B2CBE75CB34FF6FF739C4247D0B8
:1011E000FFF756FF002800F0C38084B2BFE72FB29C
:1011F0000CE00135ADB2022D1ED8614B1B889BB2AD
:101200002E46604A32F815008342F0D0BE42F0D03C
:101210005D49FFF76BFF0128EBD05B4B1988594BF9
:1012200033F81600FFF706FF0028E2D004469EE7D9
:1012300025464FF0FF37DEE7002200234E4901200C
:1012400001F026FE08B184B291E7002301934B48D8
:10125000039001230493FFF7B3FE0546002886D1CF
:1012600005A901A801F086FE00287DD084B27EE7A2
:1012700042480390FFF7A4FE20B905A901A801F098
:1012800079FE48B9002200233B49012001F000FE0D
:1012900000286BD084B26AE784B268E73CB14FF6AD
:1012A000FF739C420AD035464FF0FF371BE0FFF733
:1012B000EFFE00283FF45BAF84B258E72F4803905D
:1012C000FFF77EFE044608B1344650E705A901A8A1
:1012D00001F050FE00283FF44AAF84B247E72FB236
:1012E0000CE00135ADB2022D1AD8284B1B889BB2F9
:1012F0002C46244A32F815008342F0D0BC42F0D08C
:101300002149FFF7F3FE0128EBD01F4B19881D4B35
:1013100033F81400FFF78EFE04460028E1D026E7DC
:10132000002200231549012001F0B2FD08B184B26A
:101330001DE7002301931048039001230493FFF756
:101340003FFE044608B1344611E705A901A801F0A3
:1013500011FE00283FF40BAF84B208E72C4606E7E5
:10136000002404E7002402E72C4600E70024FEE600
:101370000024FCE60024FAE6008000080080010852
:101380000680000818000020AC000020068001083C
:101390002DE9F04186B006460D4600200590FFF786
:1013A00021FE402811D000284BD1DFF8A080264F25
:1013B0004EF6EE6200233946012001F069FD40B18E
:1013C00084B2204606B0BDE8F081DFF87C801F4F74
:1013D000EEE729463046FFF72DFE044610B1F0E750
:1013E0000134A4B2022C14D8194B33F81400B042C3
:1013F000F6D01849FFF77AFE0128F1D0154B19886D
:10140000134B33F81400FFF715FE0028E8D004460C
:10141000D7E700230193CDF80C800123049305A99D
:1014200001A801F0A7FD08B184B2CAE70022002399
:101430003946012001F02CFD08B984B2C1E784B21D
:10144000BFE7AB24BDE700BF0080010800800008B3
:1014500018000020AC00002038B504460D46FFF708
:10146000E9FD802800D038BD29462046FFF790FFCF
:10147000F9E700002DE9F04188B0002404940594B8
:10148000069407942D4B9A6942F010029A619A696A
:1014900002F010020092009A9A6942F020029A61CA
:1014A0009A6902F020020192019A9A6942F00402BC
:1014B0009A619A6902F004020292029A9A6942F0D1
:1014C00008029A619B6903F008030393039B1C4F76
:1014D00022463E21384601F092FE1A4E2246022153
:1014E000304601F08CFE3E2304934FF00108CDF806
:1014F000148006940225079504A9384601F08CFD56
:10150000402304930594069504A9384601F084FD10
:1015100040F6014304930594069504A9304601F072
:101520007BFD0495CDF814800694079504A93046F8
:1015300001F072FD08B0BDE8F08100BF001002406C
:1015400000080140000C014072B6FEE700B585B00E
:1015500000230193029303930F48104A02608360B3
:10156000037303754FF46022C2614360012303617A
:1015700001F0E6FA60B9002301930122029203937D
:1015800001A9054801F062F920B905B05DF804FB36
:10159000FFF7DAFFFFF7D8FF1C0500200024014009
:1015A00000B587B00023029303930493059300933F
:1015B00001931548154A026040F21F324260836071
:1015C00042F20F72C26003614361836102F034FF33
:1015D00098B906A94FF4805341F8103D0A4802F02B
:1015E00061FF60B90023009301936946064802F049
:1015F000C7FF30B907B05DF804FBFFF7A5FFFFF7A1
:10160000A3FFFFF7A1FF00BF8C050020002C0140C5
:1016100008B50A480A4B03604FF416534360002391
:101620008360C36003610C2242618361C36103F084
:1016300025F800B908BDFFF787FF00BF4C05002063
:101640000038014008B50A480A4B03600A4B436062
:1016500000238360C3604FF4804202614361836171
:10166000C361036201F026FF00B908BDFFF76CFFFC
:10167000C804002000540040801A060000B585B060
:101680000190012302930023039301A9044801F070
:10169000DDF810B905B05DF804FBFFF755FF00BF9A
:1016A0001C0500200000000010B5274801F06AF971
:1016B000B0F5807F34D00020FFF7E0FF224C2046B9
:1016C00001F0A2F96421204601F004F818B30024C7
:1016D0001D4801F0BDFA2046FEF77CFE12A3D3E9B7
:1016E0000023FEF7F1FE12A3D3E90023FFF716F85B
:1016F000FFF71CF9FEF790FE02460B460EA1D1E95A
:101700000001FFF70BF80EA3D3E90023FEF724FD39
:10171000FFF7ECF810BD204601F094F80446D7E737
:101720000024D8E7AFF300806666666666660A4006
:101730000000000000FEAF4000000000001DE0407F
:10174000000000000088C3401C05002000B595B0D3
:10175000242200210BA803F011F80023059306931F
:10176000079308930993019302930393049302232D
:101770000A9301230E9310230F930AA802F010F985
:10178000A8B90F23059300210691079108910991AB
:1017900005A802F045FB60B90223019300230393DF
:1017A00001A802F017FC30B915B05DF804FBFFF793
:1017B000CBFEFFF7C9FEFFF7C7FE00002DE9F04F93
:1017C00097B016AE41F2883326F8023D00F068FF6C
:1017D000834600F065FF074600F044FFFFF7B6FFC1
:1017E00001F006FBFFF7A4FCFFF744FEFFF7AEFE97
:1017F000FFF7D6FEFFF70CFFFFF724FF00F02CFDEC
:1018000001240094402380220021084600F0F0FBD0
:1018100000F0FEFC4FF4FA7000F048FF0025009540
:10182000402380222946284600F0E2FB00940C2346
:101830000A222946062000F0DBFB00940C230A2232
:101840000621084600F095FB00940623162210217D
:10185000284600F0CDFB00941E230B220C211046DD
:1018600000F0EEFA02944FF01E08CDF80480052235
:1018700000921A231C21092000F0E9FB0294CDF804
:101880000480112200921A231C210D2000F0DFFB9E
:1018900000941B2340220321282000F0D1FA009459
:1018A0001B2328220321402000F0CAFA00941B23A6
:1018B00034220321104600F0C3FA00940F23402283
:1018C0001946282000F0BCFA2B4608220F213420AC
:1018D00000F0DEFB234606220F21342000F0D8FB67
:1018E00000F096FC3146C84B1888FFF7FFFB0695C1
:1018F0000794062400E00224FFF7D6FE8046BDF8D8
:101900005600FFF719F905464046FFF715F901465D
:101910002846FFF71DFA0590DFF8F0924FF480613A
:10192000484601F065FC054600F0BAFE00F0B8FE3E
:10193000A0EB0B0A00F0B4FEC61B0121484601F0E3
:1019400057FC28BB4FF40061B04801F051FC90BB3C
:10195000BAF1C80F3FD8062CCED801A353F824F013
:10196000D11C0008311C0008631C0008951C0008ED
:10197000B31C0008F9180008FD1B00080224BBE78F
:101980000124B9E70124B7E70224B5E70624B3E749
:101990001FFA88F1ADF856109B4B1888FFF75CFDD5
:1019A0004FF4967000F082FE0121984801F020FC6F
:1019B0000028F9D1CCE7079B83F0010307934FF48C
:1019C000967000F073FE4FF40061904801F010FC37
:1019D0000028F8D1BCE700F063FE8346069B013384
:1019E0005A4203F0030302F0030258BF5342DBB232
:1019F0000693032B76D8DFE803F0027AADC84FF0E8
:101A0000000ACDF808A04FF01E09CDF80490072277
:101A100000921A231C21092000F019FBCDF808A020
:101A2000CDF804900F2200921A231C210D2000F003
:101A30000EFB01230293CDF80490052200921A2395
:101A40001C21092000F003FB01230293CDF8049030
:101A5000112200921A231C210D2000F0F8FACDF873
:101A600000A0182380222821504600F0C1FA282126
:101A7000504600F07FF9002D37D06548DFF8AC9173
:101A80000122494600F0CAF962490598FFF7ACF80F
:101A9000FFF770FA0246604909A802F077FE282194
:101AA000084600F067F90122494609A800F0B6F996
:101AB0005A4AA2FB083293094FF47A7101FB13834F
:101AC0005749A1FB03135B099209564909A802F083
:101AD0005DFE3421282000F04DF90122494609A875
:101AE00000F09CF900F094FB35E74F48C6E74FF053
:101AF0000009CDF808904FF01E08CDF804800522AB
:101B000000921A231C21092000F0A1FACDF80890B8
:101B1000CDF80480112200921A231C210D2000F020
:101B200096FA4FF00109CDF80890CDF8048007220D
:101B300000921A231C21092000F089FACDF80890A0
:101B4000CDF804800F2200921A231C210D2000F0F2
:101B50007EFAC7E74FF00009CDF808904FF01E0855
:101B6000CDF80480072200921A231C21092000F0DE
:101B70006EFACDF80890CDF804800F2200921A2357
:101B80001C210D2000F063FAACE74FF00008CDF8FF
:101B900008804FF01E0ACDF804A04FF00709CDF8D9
:101BA00000901A234A461C21092000F050FACDF873
:101BB0000880CDF804A04FF00F08CDF800801A235C
:101BC00042461C210D2000F042FA01230293CDF879
:101BD00004A0CDF800901A234A461C21092000F0E9
:101BE00036FA01230293CDF804A0CDF800801A2321
:101BF00042461C210D2000F02AFA73E7002D3FF425
:101C00007AAE012478E600BF18000020000C0140E5
:101C10001C7800080000C8422C780008D34D6210E0
:101C20001F85EB513478000824780008100000204C
:101C300000220221334801F0E2FA002D3FF49EAE6B
:101C4000079B002B3FF458AE4FF07E510598FFF7ED
:101C500069F900287FF450AE00F022FD0746042405
:101C60004AE600220421274801F0C9FA002D7FF43A
:101C700087AE079B002B3FF43FAE4FF07E51059897
:101C8000FFF750F900283FF437AE00F009FD074692
:101C9000032431E6012202211A4801F0B0FA002D96
:101CA0007FF470AE40F6B8339E427FF625AE002436
:101CB00022E601220421134801F0A1FA002D3FF48D
:101CC00063AE40F6B8339E427FF616AE002413E6AC
:101CD000079B002B3FF45AAE3DB94FF07E5105985B
:101CE000FFF720F908B9022406E6002D3FF404AE00
:101CF0004FF07E510598FFF715F900283FF4FCAD31
:101D00000124F9E50008014008B530B1FF214FF486
:101D10008062034802F032FD08BD0021F7E700BFF2
:101D2000B80000207F2816D83F2914D8104B1B7903
:101D300013B1B2FA82F25209012A0DD0CB0800EB9E
:101D4000C31001F0070101228A40094B1844017AAF
:101D500021EA020101727047CB0800EBC31001F0C9
:101D600007018A40024B1844017A114301727047FF
:101D7000B0000020014B188059807047B00000204F
:101D80002DE9F843244B1B880C7823447F2B3EDC41
:101D9000214B5B884C7823443F2B3BDC90460D461F
:101DA0008146002620E01C4B188859883144204485
:101DB000B8FA88F2520989B280B2FFF7B3FF013452
:101DC0002B78A3420FD907FA04F313F4004FEAD09B
:101DD000114B1888598831442044424689B280B258
:101DE000FFF7A0FFEBE701366A78B24208D96968CD
:101DF000A9F1200302FB036331F813700024DFE72D
:101E00002B78054A11880B441380484600E00020D7
:101E1000BDE8F8830020FBE7B000002070B5044661
:101E20000E46154623784BB12A4631461846FFF731
:101E3000A7FF2378984201D10134F3E7184670BD1B
:101E40002DE9F04F83B005460F4616461C469DF817
:101E5000303000937F2800D97F257F2E00D97F2640
:101E60003F2F00D93F273F2C00D93F24B54223D232
:101E7000A6EB05090FFA89F9A74222D2A4EB070ABB
:101E80000FFA8AFAB54221D20123A74221D24FF09C
:101E9000010BD14520DD09EBD9784FEA6808B9F18B
:101EA000000F2DD1A74202D823463C461F46B5421B
:101EB00000D82E4624B21EE0A5EB06090FFA89F9D8
:101EC000DAE7A7EB040A0FFA8AFADBE74FF0FF33F1
:101ED000DBE74FF0FF3BDCE7CAF1000808EBD878FE
:101EE00048F34F08DBE7A4B2009A21463046FFF7DB
:101EF00019FF013424B2BC42F5DD03B0BDE8F08F18
:101F0000BAF1000F2CD1A74200D83C46B54202D806
:101F100033462E461D4636B207E0B6B2009A214639
:101F20003046FFF7FFFE013636B2AE42F5DDE4E79C
:101F30009846009A39462846FFF7F4FEB54212D07B
:101F4000C9F10003984512DDA8EB0A031BB2254432
:101F5000ADB2D045ECDA4B441BB25F44BFB2E7E709
:101F600001941C46E5E7019B9F42E9D1C5E7434642
:101F7000EFE72DE9F04182B09DF820807F2834D82A
:101F800006460F461D463F292FD883187F2B02DDBA
:101F9000C0F1800292B27B193F2B02DDC7F14005F0
:101FA000ADB2324494B2CDF800803B462246394669
:101FB0003046FFF745FF3D44ADB2CDF800802B46DB
:101FC000224629463046FFF73BFFCDF800802B46DE
:101FD000324639463046FFF733FFCDF800802B46B6
:101FE000224639462046FFF72BFF02B0BDE8F081BC
:101FF0002DE9F04383B09DF828907F2824D805462A
:102000000F4690461E463F291ED883187F2B03DDBE
:10201000C0F180081FFA88F8BB193F2B02DDC7F119
:102020004006B6B200240CE0394489B208EB050240
:10203000CDF800900B4692B22846FFF701FF01341D
:10204000E4B2A1B2B142EFD903B0BDE8F0832DE90B
:10205000F04782B00746884691469A46BDF8285018
:10206000BDF82C609DF830400094FFF7E9FE009425
:1020700033462A4651464846FFF7E2FE009443465F
:102080003A4631462846FFF7DBFE02B0BDE8F0874E
:102090002DE9F04F87B00292984695B2C5F1010440
:1020A00024B2C5EBC53253001BB205931FFA80FB67
:1020B0008FB2E919424689B25846FFF733FE791BC1
:1020C000424689B25846FFF72DFE05EB0B06B6B225
:1020D000424639463046FFF725FEABEB0505ADB26B
:1020E000424639462846FFF71DFECDF800803B46A4
:1020F000324639462846FFF7A3FE4FF0000A012377
:10210000039340E00AF10105ADB20FFA85FA039B93
:1021100002339BB21AB203921C4424B2ABEB050902
:102120001FFA89F9BDF80860B91989B20BEB0503EC
:102130009BB21A46CDF800800B4604924846FFF742
:102140007FFEB91B89B2CDF800800B464A46049841
:10215000FFF776FE0BEB06091FFA89F9791989B2A8
:10216000ABEB0606B6B2CDF800800B4632464846C9
:10217000FFF766FE791B89B2CDF800800B46324628
:102180004846FFF75DFE029B9A450DDA002CB9DB4D
:10219000029B013B1BB20293059B02339BB21AB216
:1021A00005921C4424B2ADE707B0BDE8F08F0000F3
:1021B00030B5C3B08DF80810002104E04C1C555C0C
:1021C00002A90D55E1B28CB29C42F7D301330A2229
:1021D00000929BB202AA0146024801F045FA43B0C0
:1021E00030BD00BFC804002000B585B08DF80C10CC
:1021F0008DF80D200A230093022303AA0146034809
:1022000001F032FA05B05DF804FB00BFC8040020FD
:1022100010B500241AE0A4F15002D2B200217820B7
:10222000FFF7E2FF002211467820FFF7DDFF1022C2
:1022300000217820FFF7D8FF8023064A02EBC41262
:1022400040217820FFF7B4FF0134E4B2072CE2D933
:1022500010BD00BFB800002008B544F6206301227D
:102260007821554801F0BAFA002840F0A38040F6E2
:10227000C41300E0013B002BFCD1AE2200217820EA
:10228000FFF7B2FF202200217820FFF7ADFF1022D8
:1022900000217820FFF7A8FFB02200217820FFF767
:1022A000A3FFC82200217820FFF79EFF00221146DD
:1022B0007820FFF799FF102200217820FFF794FF84
:1022C000402200217820FFF78FFF81220021782013
:1022D000FFF78AFFFF2200217820FFF785FFA12268
:1022E00000217820FFF780FFA62200217820FFF749
:1022F0007BFFA82200217820FFF776FF3F220021F4
:102300007820FFF771FFA42200217820FFF76CFFEF
:10231000D32200217820FFF767FF002211467820A2
:10232000FFF762FFD52200217820FFF75DFFF02242
:1023300000217820FFF758FFD92200217820FFF7ED
:1023400053FF222200217820FFF74EFFDA220021DE
:102350007820FFF749FF122200217820FFF744FF81
:10236000DB2200217820FFF73FFF20220021782088
:10237000FFF73AFF8D2200217820FFF735FF142266
:1023800000217820FFF730FFAF2200217820FFF7EF
:102390002BFF2E2200217820FFF726FF0020FFF7D9
:1023A000B3FCFFF735FF054B00221A805A8001204D
:1023B000587108BD0020FCE7C8040020B0000020D0
:1023C00082B00E4B9A6942F001029A619A6902F05A
:1023D00001020092009ADA6942F08052DA61DB6908
:1023E00003F080530193019B054A536823F0E06397
:1023F00043F00073536002B0704700BF001002400A
:102400000000014000B587B00023029303930493BA
:1024100005930268114B9A4202D007B05DF804FBA5
:1024200003F56C439A6942F400729A619A6902F466
:1024300000720092009A9A6942F004029A619B69C4
:1024400003F004030193019B0123029303230393ED
:1024500002A9034800F0E0FDDFE700BF00240140CF
:102460000008014010B586B0002302930393049343
:1024700005930268154B9A4201D006B010BD144C6A
:10248000A36943F00803A361A36903F00803009361
:10249000009B4FF44073029312230393032305938D
:1024A00002A90C4800F0B8FD0B4A536843F0E06302
:1024B00043F002035360E36943F40013E361E3690B
:1024C00003F400130193019BD7E700BF00540040C1
:1024D00000100240000C0140000001400268124B55
:1024E0009A4200D0704700B583B003F564439A69FF
:1024F00042F400629A619B6903F400630193019BBB
:1025000000221146182000F0D3FB182000F004FC34
:1025100000221146192000F0CBFB192000F0FCFB33
:1025200003B05DF804FB00BF002C014010B586B07D
:10253000002302930393049305930268174B9A4276
:1025400001D006B010BD03F558439A6942F48042A9
:102550009A619A6902F480420092009A9A6942F064
:1025600004029A619B6903F004030193019B4FF4F9
:10257000007302930223039303230593084C02A9DB
:10258000204600F049FD4FF480630293002303933B
:10259000049302A9204600F03FFDD2E70038014035
:1025A00000080140FEE7FEE7FEE7FEE7FEE77047B2
:1025B0007047704708B500F067F808BD08B50248D5
:1025C00001F042FE08BD00BF8C05002008B502489E
:1025D00001F03AFE08BD00BF8C05002008B5034697
:1025E0000B4A126842B10A4A106803446A46934291
:1025F00006D8074A136008BD054A06491160F2E78C
:1026000002F092F80C2303604FF0FF30F3E700BFB5
:10261000B8040020000600207047000010B50446F2
:102620000E4B18784FF47A73B3FBF0F30C4A106832
:10263000B0FBF3F000F07EFB68B90F2C01D901204C
:102640000AE0002221464FF0FF3000F031FB034B3F
:102650005C60002000E0012010BD00BF24000020CD
:102660002000002008B5074A136843F010031360E8
:10267000032000F00BFB0020FFF7D0FFFFF7A0FEC8
:10268000002008BD00200240034A1168034B1B785C
:102690000B441360704700BFD405002024000020C5
:1026A000014B1868704700BFD405002038B50446B8
:1026B000FFF7F6FF0546B4F1FF3F02D0044B1B784D
:1026C0001C44FFF7EDFF401BA042FAD338BD00BF0A
:1026D00024000020F0B583B005460C46002301938A
:1026E000FFF7DEFF2B689A6812F4807F23D106463D
:1026F0005A6812F4807F03D1DB6A13F4700F24D080
:102700004B4B1F68022001F0EFFCB7FBF0F02B6889
:102710001969484A11422FD1D96802F15C4211422D
:102720002AD11969444A114239D1DA68434B1A4215
:1027300037D029273AE0AB6A43F02003AB6200238D
:1027400085F82430012003B0F0BD2B681B6813F01E
:10275000020F48D1B4F1FF3FF7D024B1FFF7A0FF3B
:10276000801BA042F1D9AB6A43F00403AB620023A3
:1027700085F824300320E6E719692F4A114204D175
:10278000D96802F16E4211420DD019692C4A0A40F3
:102790005AB9DA682A4B13405BB1FC2706E02927B7
:1027A00004E0142702E0542700E0FC2707FB00F7B1
:1027B00004E05427FAE7019B01330193019BBB42DC
:1027C00011D2B4F1FF3FF6D024B1FFF769FF801BAF
:1027D000A042F0D9AB6A43F00403AB62002385F852
:1027E00024300320AFE72B686FF012021A60AB6A47
:1027F00043F40073AB622B689B6803F46023B3F56A
:10280000602F01D000209EE72B7B6BB9AB6A23F4CD
:102810008073AB62AB6A13F4805F07D1AB6A43F09D
:102820000103AB6200208EE700208CE700208AE7DE
:102830002000002024499224922449129224490025
:10284000499224000368D86C7047000030B482B00D
:102850000023019390F82430012B00F08B80024676
:10286000012380F824304B68062B29D80568686B53
:1028700003EB8303053B1F249C4020EA04000C6803
:1028800004FA03F303436B630B68092B38D915680B
:10289000E86803EB43031E3B07249C4020EA040046
:1028A0008C6804FA03F30343EB600B68103B012BC5
:1028B00034D90020002382F8243002B030BC7047A5
:1028C0000C2B0ED80568286B03EB8303233B1F24D6
:1028D0009C4020EA04000C6804FA03F303432B63D2
:1028E000D2E70568E86A03EB8303413B1F249C4061
:1028F00020EA04000C6804FA03F30343EB62C3E725
:102900001568286903EB430307249C4020EA040070
:102910008C6804FA03F303432B61C6E71368164877
:10292000834205D0936A43F0200393620120C1E7FC
:10293000986810F4000F1BD1986840F4000098606C
:102940000B68102B01D00020B4E70C4B1B680C491E
:10295000A1FB03139B0C03EB83035900019102E0DD
:10296000019B013B0193019B002BF9D10020A1E7C2
:1029700000209FE70220A0E7002401402000002063
:1029800083DE1B43806A704730B583B00023019318
:1029900003689A6812F0010F2ED19A6842F0010282
:1029A0009A60174B1B68174AA2FB03239B0C0193E9
:1029B00002E0019B013B0193019B002BF9D10446EE
:1029C000FFF76EFE054623689B6813F0010F11D1D7
:1029D000FFF766FE401B0228F5D9A36A43F01003F7
:1029E000A362E36A43F00103E362002384F8243026
:1029F000012002E0002000E0002003B030BD00BF55
:102A00002000002083DE1B4390F82430012B6AD085
:102A100010B50446012380F82430FFF7B5FF0246C5
:102A200000285BD1A36A23F4407323F0010343F42D
:102A30008073A36223682D498B4227D0A16A21F4B9
:102A40008011A162596811F4806F05D0A16A21F448
:102A5000405141F48051A162A16A11F4805F2BD0F2
:102A6000E16A21F00601E162002184F824106FF090
:102A7000020119602368996801F46021B1F5602FA3
:102A80001DD0996841F4801199602AE0A1F5806118
:102A9000496811F4702FD1D0A16A41F48011A1626C
:102AA0001349496811F4806FD6D0A16A21F44051CE
:102AB00041F48051A162CFE70021E162D4E70B49E4
:102AC0008B4204D0996841F4A001996009E0A1F516
:102AD0008061496811F4702FD3D1F3E7002384F8A3
:102AE0002430104610BD02221046704700280140D5
:102AF0000024014038B503689A6812F0010F01D133
:102B0000002038BD04469A6822F001029A60FFF75F
:102B1000C7FD054623689B6813F0010F0ED0FFF731
:102B2000BFFD401B0228F5D9A36A43F01003A3623E
:102B3000E36A43F00103E3620120E2E70020E0E7FB
:102B400000287FD038B50446836A002B33D0204656
:102B5000FFF7D0FFA36A13F010036DD100286BD1EB
:102B6000A26A22F4885222F0020242F00202A26219
:102B70006268E1690A43257B42EA4502A168B1F532
:102B8000807F21D001291CD0217D01291FD02568FB
:102B9000696821F469410B436B6021688D682A4B99
:102BA0002B4013438B60A368B3F5807F20D0012BAB
:102BB0001ED000211FE0C36280F82430FFF722FC02
:102BC000C5E74FF48073DFE74FF48073DCE735B976
:102BD000A169013943EA413343F40063D7E7A16AAD
:102BE00041F02001A162E16A41F00101E162CEE71A
:102BF0002369013B19052568EB6A23F470030B4335
:102C0000EB6223689968114B0B409A420BD0A36A80
:102C100023F0120343F01003A362E36A43F00103BD
:102C2000E36201200DE00023E362A36A23F00303C3
:102C300043F00103A36204E0A36A43F01003A3621C
:102C4000012038BD01207047FDF7E1FFFE0E1FFF98
:102C500090F82430012B15D010B50446012380F8DC
:102C60002430FFF747FF024638B9A36A23F488539C
:102C700023F0010343F00103A362002384F824300E
:102C8000104610BD0222104670470000074AD36864
:102C900023F4E0631B041B0C000200F4E060184303
:102CA00040F0BF6040F40030D060704700ED00E0BD
:102CB00030B4174BDB68C3F30223C3F10704042CC1
:102CC00028BF04241D1D062D18D9033B4FF0FF35E6
:102CD00005FA04F421EA0401994005FA03F322EA13
:102CE0000303194300280BDB0901C9B200F160405E
:102CF00000F5614080F8001330BC70470023E5E721
:102D000000F00F000901C9B2024B1954F4E700BFEB
:102D100000ED00E014ED00E0002807DB00F01F02EA
:102D2000400901239340024A42F82030704700BF17
:102D300000E100E00138B0F1807F0AD2064B586014
:102D4000064AF02182F823100020986007221A60BA
:102D500070470120704700BF10E000E000ED00E088
:102D6000044B0022DA61044A136943F00103136142
:102D700001807047D8050020002002401A4BDB6814
:102D800013F0100F27D0194AD36943F00203D3611F
:102D90001023154AD26812F0040F06D01349CA69ED
:102DA00042F00102CA6143F004030F4AD26912F0F3
:102DB000010F09D00D49CA6942F00402CA610A49EB
:102DC000CA6922F00102CA6140F20112934204D0A2
:102DD000054AD36070470023DBE7034AD36923F039
:102DE0000103D361704700BF00200240D8050020D6
:102DF0000A4B1B6913F0800F0DD0084B084A5A602C
:102E000002F188325A601B6913F0800F01D0012053
:102E10007047002070470020704700BF002002402C
:102E20002301674538B50446FFF73AFC0546174BC2
:102E3000DB6813F0010F0AD0B4F1FF3FF7D00CB3F9
:102E4000FFF72EFC401BA042F1D9032019E00F4BE5
:102E5000DB6813F0200F02D00C4B2022DA600B4B02
:102E6000DB6813F0100F09D1084BDB6913F0010F79
:102E700004D1064BDB6813F0040F05D0FFF77EFF8B
:102E8000012038BD0320FCE70020FAE700200240C3
:102E90002DE9F843234C247E012C41D01E46904658
:102EA0000F4604461F4B01221A764CF25030FFF7B2
:102EB000B9FF034670BB012C29D0022C24D04FF05F
:102EC000040900244C4525D22101C1F12002A1F1C1
:102ED000200328FA01F106FA02F2114326FA03F35D
:102EE000194389B207EB4400FFF73AFF4CF2503028
:102EF000FFF798FF0C4B1D6925F001051D61034686
:102F000040B90134E4B2DDE74FF00209D9E74FF0F0
:102F10000109D6E7034A002111761846BDE8F88377
:102F20000223FAE7D805002000200240064B0022C9
:102F3000DA61064B1A6942F004021A611A6942F01A
:102F400040021A61704700BFD805002000200240EF
:102F5000064B0022DA61064B1A6942F002021A613E
:102F600058611A6942F040021A617047D805002082
:102F700000200240264B1B7E012B46D070B50E462A
:102F80000446234B01221A760368022B20D04CF210
:102F90005030FFF747FF90BB4FF0FF333360A56819
:102FA0000122E168A36803EB8123AB4228D92846BC
:102FB000FFF7CEFF4CF25030FFF734FF154A13698C
:102FC00023F0020313610246B8B905F58065E8E70E
:102FD0004CF25030FFF726FF08B1012210E001202B
:102FE000FFF7A4FF4CF25030FFF71CFF02460949DF
:102FF0000B6923F004030B6102E0356000E001225D
:10300000034B00211976104670BD0222104670470E
:10301000D805002000200240F0B482B000263246DD
:10302000A2E0002D5AD0012D00D1CE68FF2B69D827
:103030008446FF2B69D89500DCF800400F27AF408D
:1030400024EA070406FA05F52C43CCF800404C6846
:1030500014F0805F00F087805F4CA56945F00105A2
:10306000A561A46904F001040194019C9508AF1CBA
:103070005A4C54F8274002F00307BF004FF00F0CE2
:103080000CFA07FC24EA0C0C554CA04243D004F582
:103090008064A04200F0818004F58064A0427ED06C
:1030A00004F58064A04234D0042435E04D4FBD4285
:1030B00014D00BD94C4FBD4210D007F58037BD421C
:1030C0000CD0A7F58017BD42B0D107E0A7F5801757
:1030D000BD4203D007F58037BD42A7D18D687DB1D1
:1030E000012D08D044610826A0E7CE6808369DE788
:1030F000CE680C369AE70461082697E7002695E724
:10310000042693E700F1040C93E7A2F10805AD0053
:1031100092E7032400E00024BC4044EA0C0402359A
:103120002E4F47F825404C6814F4803F39D02F4D7E
:103130002C681C432C604C6814F4003F37D02B4D96
:103140006C681C436C604C6814F4801F35D0274DAC
:10315000AC681C43AC604C6814F4001F33D0234DA2
:10316000EC682343EB6001320B6833FA02F430D091
:103170000124944023409C42F5D14D68122DB7D0D4
:1031800094D8022DB1D07FF64CAF032DB6D0112DBF
:103190007FF44CAFCE68043648E70124BCE7022434
:1031A000BAE7124D2C6824EA03042C60C3E70F4DE4
:1031B0006C6824EA03046C60C5E70C4DAC6824EA33
:1031C0000304AC60C7E7094DEC6824EA0303EB6035
:1031D000C9E702B0F0BC7047001002400000014097
:1031E00000080140000021100000311000040140DF
:1031F0008368194201D1002070470120704712B93D
:103200000904016170470161704703685A6912F44B
:10321000806F11D06FF480625A6100230363202213
:1032200080F83D2080F83E30026C42F004020264D7
:1032300080F83C300120704700207047F8B5064602
:103240000C4617461D4622E0FFF72AFA069BC01AD5
:10325000A84200D8DDB900233363202286F83D2040
:1032600086F83E30326C42F02002326486F83C3000
:1032700001201AE033685B6924EA03039BB2B3FAC6
:1032800083F35B099F420FD1B5F1FF3FDCD1C4F35B
:103290000743012BEED033689B6924EA03039BB2FA
:1032A000B3FA83F35B09EDE70020F8BDF8B50446F7
:1032B0000D4616461F463CE01A6842F400721A603A
:1032C00023686FF480625A6100232363202284F80C
:1032D0003D2084F83E30226C42F00402226484F8DF
:1032E0003C30012033E0FFF7DBF9C01BB04200D8CF
:1032F000FEB900232363202284F83D2084F83E3069
:10330000226C42F02002226484F83C3001201EE04E
:1033100023685B6925EA03039BB2003318BF0123CE
:10332000A3B123685A6912F4806FC5D1B6F1FF3F8B
:10333000D9D1C5F30743012BEAD023689B6925EA5D
:1033400003039BB2003318BF0123E9E70020F8BD57
:10335000F0B583B004460F4615461E46C36A082BD7
:103360000DD0012B0BD013F5803F08D0036B122B2F
:103370000AD10268136843F48073136004E0226882
:10338000136843F48073136000962B4600224FF0BD
:1033900001112046FFF752FF58B123681B6813F450
:1033A000807F2BD04FF4007323640323184603B0AF
:1033B000F0BD2369B3F5804F0ED1236807F0FE07F7
:1033C0001F6133462A460F492046FFF76FFF034629
:1033D0000028EBD00123E9E7FB11226803F0060384
:1033E00043F0F003136133462A4607492046FFF7AE
:1033F0005DFF28B92368FFB21F61E2E70323D5E729
:103400000123D3E7020001000800010070B5044663
:103410000D46164623685B6913F0800F1CD12046C9
:10342000FFF7F3FED0B9B5F1FF3FF3D0FFF738F95E
:10343000801BA84201D8002DECD100232363202259
:1034400084F83D2084F83E30226C42F02002226451
:1034500084F83C30012000E0002070BD0120FCE732
:1034600070B504460D46164623685B6913F0040FD9
:103470001CD12046FFF7C9FED0B9B5F1FF3FF3D00C
:10348000FFF70EF9801BA84201D8002DECD10023D4
:103490002363202284F83D2084F83E30226C42F0E1
:1034A0002002226484F83C30012000E0002070BD3E
:1034B0000120FCE7002800F0C880F8B5044690F829
:1034C0003D30002B75D0242384F83D3022681368EA
:1034D00023F0010313602268136843F40043136070
:1034E0002268136823F40043136000F053FD626800
:1034F000584B9A4262D8584B98428CBF0023012304
:10350000002B40F0A480554BA3FB00239B0C2168AB
:103510004A6822F03F021A434A6025682A6A22F06C
:103520003F0266684B498E424ED8013313432B62EB
:103530002568E96921F44F4121F0FF016368454A9C
:1035400093424BD801385B00B0FBF3F30133C3F374
:103550000B03042B38BF04230B43EB6121680B687A
:1035600023F0C003E269206A024313430B60216821
:103570008B6823F4034323F0FF032269E0680243CE
:1035800013438B602168CB6823F0FF036269A06955
:1035900002431343CB602268136843F001031360B6
:1035A00000202064202384F83D30206384F83E000E
:1035B000F8BD80F83C30FEF755FF84E7284B984271
:1035C0008CBF002301239BE74FF4967101FB03F3AB
:1035D0002449A1FB03139B090133A7E7A268BAB9E9
:1035E000461E03EB4307B6FBF7F60136C6F30B06A0
:1035F000B6FA86F6760936BBC2B9013803EB430347
:10360000B0FBF3F30133C3F30B0242F40043A3E72F
:10361000461E03EB830707EB8707B6FBF7F6013679
:10362000C6F30B06B6FA86F67609E4E7013803EB33
:10363000830303EB8303B0FBF3F20132C2F30B020B
:1036400042F4404388E7012386E7012070470120C8
:10365000AEE700BFA08601007F841E0083DE1B430F
:10366000FF083D00D34D62102DE9F04184B00446BF
:103670000E4690461F46FFF713F894F83D30DBB234
:10368000202B04D00226304604B0BDE8F081054668
:103690000090192301224F492046FFF7CFFD002853
:1036A00040F0918094F83C30012B00F08E80012393
:1036B00084F83C3023681A6812F0010F03D11A68AD
:1036C00042F001021A602268136823F40063136059
:1036D000212384F83D30102384F83E3000232364F6
:1036E000C4F824806785638D23853B4BE3622B46BA
:1036F0000A9A31462046FFF72BFE0646002866D17F
:103700000023039323685A6903929B690393039BE5
:1037100012E0236C042B01D00126B4E72268136861
:1037200043F4007313600126ADE72A460A99204648
:10373000FFF796FE00282CD1238D002B35D02A468A
:103740000A992046FFF762FE0028E2D1626A2368E8
:1037500012781A61616A4B1C6362638D013B9BB2F4
:103760006385238D013B9BB223852268506910F04D
:10377000040FDAD0002BD8D04B781361636A013381
:103780006362638D013B9BB26385238D013B23857F
:10379000CBE7236C042B01D0012674E72268136861
:1037A00043F40073136001266DE72268136843F445
:1037B00000731360202384F83D30002384F83E30EA
:1037C00084F83C305FE702265DE702265BE70126CE
:1037D00059E700BF020010000000FFFF2DE9F04391
:1037E00085B00446884691461D46FEF759FF94F879
:1037F0003D30DBB2202B04D00223184605B0BDE8D3
:10380000F083064600901923012259492046FFF70C
:1038100015FD002840F0A18094F83C30012B00F009
:103820009E80012384F83C3023681A6812F0010F4F
:1038300003D11A6842F001021A602268136823F467
:1038400000631360242384F83D3000232364A3F530
:103850008033E36201273EE023681B6813F4807F16
:103860007FD04FF4007323640323C6E7A02384F8BA
:103870003D3023685A69C2F340025969C1F380217F
:1038800094F83D30DBB2A02B09D042B939B9FEF72C
:1038900007FF801BA842E9D8002DEAD1E6E72023E4
:1038A00084F83D3023685A6912F0020F31D11A684A
:1038B00042F400721A6023686FF480625A610096C5
:1038C000192301222A492046FFF7B8FC00284CD1D1
:1038D00001374F4539D22268136843F4807313606F
:1038E00000962B4600224FF001112046FFF7A6FC60
:1038F0000028B1D1236808F0FE021A61FEF7D0FE5D
:10390000064623685A69C2F340025969C1F380210F
:10391000B6E71A6842F400721A6000230393236822
:103920005A6903929B690393039B00961923012212
:103930000F492046FFF782FC0346A0B9202284F8F5
:103940003D20002284F83C2057E7202384F83D30B6
:10395000002384F83C3001234FE702234DE7022384
:103960004BE7032349E7012347E7012345E700BF6E
:103970000200100082B0084B1B68084AA2FB032318
:103980005B0A00FB03F0019000BF019B5A1E0192ED
:10399000002BF9D102B0704720000020D34D6210F7
:1039A000002800F0F58170B582B00446036813F07A
:1039B000010F2CD0AB4B5B6803F00C03042B1DD024
:1039C000A84B5B6803F00C03082B12D06368B3F5B7
:1039D000803F41D0002B55D103F1804303F50433E0
:1039E0001A6822F480321A601A6822F480221A605F
:1039F00037E09C4B5B6813F4803FE7D0994B1B6822
:103A000013F4003F03D06368002B00F0C3812368E8
:103A100013F0020F76D0934B5B6813F00C0F5FD05E
:103A2000904B5B6803F00C03082B54D02369002BE8
:103A300000F08A808C4B01221A60FEF731FE0546A9
:103A4000884B1B6813F0020F75D1FEF729FE401B4F
:103A50000228F5D90320A0E1824A136843F4803399
:103A60001360636843B3FEF71BFE05467D4B1B687E
:103A700013F4003FCBD1FEF713FE401B6428F5D9A9
:103A800003208AE1B3F5A02F09D0764B1A6822F4FF
:103A900080321A601A6822F480221A60E1E703F18A
:103AA0008043A3F53C331A6842F480221A601A68F6
:103AB00042F480321A60D4E7FEF7F2FD0546694B06
:103AC0001B6813F4003FA2D0FEF7EAFD401B6428F8
:103AD000F5D9032061E1634B5B6813F4803FA5D106
:103AE000604B1B6813F0020F04D02369012B01D037
:103AF000012052E15B4A136823F0F803616943EA4D
:103B0000C1031360236813F0080F32D0A369002BA0
:103B10005BD0564B01221A60FEF7C2FD0546514BA1
:103B20005B6A13F0020F21D1FEF7BAFD401B022899
:103B3000F5D9032031E14B4A136823F0F80361699A
:103B400043EAC1031360DDE7474B00221A60FEF72A
:103B5000A7FD0546434B1B6813F0020FD2D0FEF7BA
:103B60009FFD401B0228F5D9032016E10120FFF735
:103B700001FF236813F0040F00F09880394BDB69D4
:103B800013F0805F33D1374BDA6942F08052DA614B
:103B9000DB6903F080530193019B0125344B1B68C3
:103BA00013F4807F25D0E368012B36D0002B4CD155
:103BB00003F1804303F504331A6A22F001021A620A
:103BC0001A6A22F004021A622CE0284B00221A60C2
:103BD000FEF766FD0546234B5B6A13F0020FC8D063
:103BE000FEF75EFD401B0228F5D90320D5E0002535
:103BF000D4E71F4A136843F480731360FEF750FD47
:103C000006461B4B1B6813F4807FCCD1FEF748FDA2
:103C1000801B6428F5D90320BFE0124A136A43F0E1
:103C200001031362E3687BB3FEF73AFD06460D4BD2
:103C30001B6A13F0020F38D1FEF732FD801B41F2F0
:103C400088339842F3D90320A7E0052B12D0054B07
:103C50001A6A22F001021A621A6A22F004021A6237
:103C6000E0E700BF001002400000424280044242F0
:103C7000007000404C4B1A6A42F004021A621A6A41
:103C800042F001021A62CDE7FEF70AFD0646464BF6
:103C90001B6A13F0020F08D0FEF702FD801B41F2F1
:103CA00088339842F3D9032077E0E5B9E369002B24
:103CB00072D03D4A526802F00C02082A56D0022BFC
:103CC00017D03A4B00221A60FEF7EAFC0446364B46
:103CD0001B6813F0007F47D0FEF7E2FC001B0228B0
:103CE000F5D9032059E0304AD36923F08053D361DA
:103CF000DCE72E4B00221A60FEF7D2FC05462A4B69
:103D00001B6813F0007F06D0FEF7CAFC401B022898
:103D1000F5D9032041E0236AB3F5803F1AD0224948
:103D20004B6823F47413226A606A024313434B60A6
:103D30001E4B01221A60FEF7B3FC04461A4B1B68A7
:103D400013F0007F0ED1FEF7ABFC001B0228F5D963
:103D5000032022E0144A536823F40033A1680B4384
:103D60005360DCE7002018E0002016E0012B16D09D
:103D70000D4B5B6803F48031226A914201D001202F
:103D80000BE003F47013626A93420AD0012004E04E
:103D900001207047012000E0002002B070BD01202A
:103DA000FBE70020F9E700BF00100240600042423C
:103DB00010B487B0164C94E80F000DF1180C0CE904
:103DC0000F00238AADF80430124B5B6803F00C023D
:103DD000082A1AD1C3F38342624412F8102C13F458
:103DE000803F05D10C4800FB02F007B010BC7047C3
:103DF000084B5B68C3F34043634413F8143C074823
:103E000000FB02F0B0FBF3F0EFE70448EDE700BF82
:103E1000F47700080010024000093D0000127A000B
:103E2000002800F0A38070B50446524B1B6803F0D5
:103E300007038B420CD24F4A136823F007030B434E
:103E40001360136803F007038B4201D0012070BD9B
:103E5000236813F0020F17D013F0040F04D0464A62
:103E6000536843F4E0635360236813F0080F04D0F1
:103E7000414A536843F4605353603F4A536823F008
:103E8000F003A068034353600D46236813F0010F4D
:103E900031D06368012B20D0022B25D0364A12681E
:103EA00012F0020F64D034494A6822F0030213432F
:103EB0004B60FEF7F5FB06462F4B5B6803F00C03E7
:103EC0006268B3EB820F16D0FEF7EAFB801B41F26B
:103ED00088339842F0D90320B9E7274A126812F4D0
:103EE000003FE0D10120B2E7234A126812F0007FC0
:103EF000D9D10120ABE71F4B1B6803F00703AB428E
:103F00000CD91C4A136823F007032B431360136872
:103F100003F00703AB4201D0012098E7236813F0B8
:103F2000040F06D0144A536823F4E063E1680B439E
:103F30005360236813F0080F07D00F4A536823F427
:103F40006053216943EAC1035360FFF731FF0A4B15
:103F50005B68C3F30313094AD35CD840084B18606D
:103F6000084B1868FEF75AFB002070E701207047E5
:103F700001206CE70020024000100240DC770008BE
:103F80002000002028000020014B1868704700BF67
:103F90002000002008B5FFF7F7FF044B5B68C3F370
:103FA0000223034AD35CD84008BD00BF0010024082
:103FB000EC77000808B5FFF7E7FF044B5B68C3F335
:103FC000C223034AD35CD84008BD00BF00100240A2
:103FD000EC77000870B582B00446036813F0010F57
:103FE00034D03E4BDB6913F0805F48D13B4BDA693C
:103FF00042F08052DA61DB6903F080530193019B48
:104000000125374B1B6813F4807F3AD0334B1B6A72
:1040100013F4407311D0626802F440729A420CD0DB
:104020002E4A136A23F440702E4901260E600026A2
:104030000E60106213F0010F37D1284A136A23F47F
:10404000407361680B431362002D3FD1236813F066
:10405000020F06D0214A536823F44043A1680B4362
:104060005360236813F0100F35D01C4A536823F4B3
:104070008003E1680B435360002002B070BD00254F
:10408000BFE7174A136843F480731360FEF708FB19
:104090000646134B1B6813F4807FB7D1FEF700FB75
:1040A000801B6428F5D90320E7E7FEF7F9FA0646F6
:1040B0000A4B1B6A13F0020FBFD1FEF7F1FA801B07
:1040C00041F288339842F3D90320D6E7D36923F02D
:1040D0008053D361BAE70020CFE700BF0010024051
:1040E000007000404004424230B587B00546384C6D
:1040F00094E80F000DF1180C0CE90F00238AADF8BD
:104100000430022D50D0102D03D0012D2BD00020D3
:1041100054E0304B5A681B6813F0807F50D0C2F3D4
:10412000834306A90B4413F8100C12F4803F16D0F9
:10413000284B5B68C3F340430B4413F8142C264B05
:10414000B3FBF2F300FB03F0224B5B6813F4800F28
:1041500034D14000214BA3FB003040082EE0204B1F
:1041600003FB00F0F0E71B4B1B6A40F202321A40DF
:10417000B2F5817F26D003F44073B3F5007F04D0FD
:10418000B3F5407F09D0002018E0124A526A12F0BD
:10419000020FF5D049F6404010E00E4B1B6813F4B7
:1041A000003F12D1002009E0FFF704FF094B5B68D4
:1041B000C3F3813301335B00B0FBF3F007B030BDD4
:1041C0000020FBE74FF40040F8E74FF22440F5E70A
:1041D000087800080010024000127A00ABAAAAAAD0
:1041E00000093D0010B4036A046A24F0010404626B
:1041F000846924F0F00444EA021223F00A030B431A
:104200008261036210BC704710B4036A23F010038C
:1042100003628469036A24F4704444EA023223F09E
:10422000A00343EA01138261036210BC70478368F4
:1042300023F07003194341F0070181607047704714
:10424000704770477047704710B5044603681A6995
:1042500012F0020F11D0DA6812F0020F0DD06FF0D9
:1042600002021A610123037703689B6913F0030FAD
:1042700070D0FFF7E6FF0023237723681A6912F056
:10428000040F12D0DA6812F0040F0ED06FF004029F
:104290001A610223237723689B6913F4407F5FD060
:1042A0002046FFF7CEFF0023237723681A6912F018
:1042B000080F12D0DA6812F0080F0ED06FF0080263
:1042C0001A61042323772368DB6913F0030F4ED0B0
:1042D0002046FFF7B6FF0023237723681A6912F000
:1042E000100F12D0DA6812F0100F0ED06FF010021B
:1042F0001A61082323772368DB6913F4407F3DD0DC
:104300002046FFF79EFF0023237723681A6912F0E7
:10431000010F03D0DA6812F0010F36D123681A6951
:1043200012F0800F03D0DA6812F0800F34D12368C6
:104330001A6912F0400F03D0DA6812F0400F32D140
:1043400023681A6912F0200F03D0DA6812F0200FE8
:1043500030D110BDFFF774FF2046FFF773FF8AE7E7
:104360002046FFF76DFF2046FFF76CFF9BE72046D6
:10437000FFF766FF2046FFF765FFACE72046FFF733
:104380005FFF2046FFF75EFFBDE76FF001021A6195
:104390002046FFF754FFC1E76FF080021A61204604
:1043A00000F023F9C3E76FF040021A612046FFF7DF
:1043B0004AFFC5E76FF020021A61204600F014F9A9
:1043C000C7E7000003681B4A90420AD0B0F1804F53
:1043D00007D0A2F59432904203D002F58062904259
:1043E00003D123F070034A681343124A90420AD063
:1043F000B0F1804F07D0A2F59432904203D002F57D
:104400008062904203D123F44073CA68134323F0BF
:1044100080034A69134303608B68C3620B6883623D
:10442000044B984202D00123436170470B69036338
:10443000F9E700BF002C014038B310B5044690F8EE
:104440003D30EBB1022384F83D30211D2068FFF799
:10445000B9FF012384F8463084F83E3084F83F30B9
:1044600084F8403084F8413084F8423084F8433096
:1044700084F8443084F8453084F83D30002010BD85
:1044800080F83C30FEF72AF8DCE70120704710B4D2
:10449000846824F47F4442EA03230B43234383606C
:1044A00010BC704790F83C30012B66D010B5044624
:1044B000012380F83C30022380F83D300268936885
:1044C00023F47F4323F0770393600B68402B4AD09B
:1044D00013D9602B3DD01ED9702B28D0B3F5005FC7
:1044E00030D1CB684A6889680068FFF7D0FF22683E
:1044F000936843F48043936024E0102B06D004D9E2
:10450000202B03D0302B01D01CE0DBB919462068EA
:10451000FFF78DFE16E0502B14D1CA684968006879
:10452000FFF760FE50212068FFF781FE0AE0CB68AC
:104530004A6889680068FFF7AAFF2268936843F019
:1045400077039360012384F83D30002084F83C0019
:1045500010BDCA6849680068FFF756FE60212068F0
:10456000FFF765FEEEE7CA6849680068FFF73AFEA4
:1045700040212068FFF75BFEE4E70220704700005F
:1045800090F83C30012B2BD030B4012380F83C3024
:10459000022380F83D3003685C689D6824F0700455
:1045A0000A6822435A6003680E4A93420AD0B3F164
:1045B000804F07D0A2F59432934203D002F5806277
:1045C000934204D125F080054A6815439D6001237C
:1045D00080F83D30002380F83C30184630BC7047EE
:1045E00002207047002C01407047704738B50446E0
:1045F0000268136923F44053C1680B431361836855
:104600000269134342691A430168CB6823F4B0532B
:1046100023F00C031343CB600268536923F4407307
:1046200081690B4353610268124B9A421FD0FFF716
:10463000B1FC00EB800000EB800063689B00B0FBE6
:10464000F3F00D4DA5FB00325109642202FB11026B
:1046500013013233A5FB03235B0903F0F00202EBE5
:10466000011203F00F03216813448B6038BDFFF77C
:10467000A1FCDEE7003801401F85EB5158B310B5AF
:10468000044690F839300BB3242384F8393022687B
:10469000D36823F40053D3602046FFF7A7FF2268B6
:1046A000136923F4904313612268536923F02A03AA
:1046B00053612268D36843F40053D3600020E06361
:1046C000202384F8393084F83A3010BD80F838302F
:1046D000FDF72CFFD8E7012070470000002103E020
:1046E0000B4B5B58435004310A480B4B42189A421B
:1046F000F6D30A4A02E0002342F8043B084B9A42F0
:10470000F9D3FDF789FF00F015F8FDF757F870476A
:104710007878000800000020900000209000002021
:10472000FC050020FEE70000014B1868704700BF41
:104730002C00002070B500250C4E0D4CA41BA410BD
:10474000A54209D100F034FC00250A4E0A4CA41BF6
:10475000A410A54205D170BD56F825309847013503
:10476000EEE756F8253098470135F2E770780008F3
:1047700070780008707800087478000803460244D6
:10478000934200D1704703F8011BF9E70EB46FF0B4
:10479000004100B59CB01DAB0290069007910491BA
:1047A0000848094953F8042B0591006802A90193B0
:1047B00000F066F80022029B1A701CB05DF804EB52
:1047C00003B070472C0000200802FFFF2DE9F047DE
:1047D0008E6882469E420C469046994637D88A8912
:1047E00012F4906F31D00223256809696F1A656948
:1047F00005EB450595FBF3F509F101033B449D42AB
:1048000038BF1D46530530D5294600F037FB064614
:1048100050B90C234FF0FF30CAF80030A38943F0A1
:104820004003A381BDE8F0873A46216900F0B6FA5B
:10483000A38923F4906343F08003A38126613E445F
:1048400026604E466561ED1BA5604E4500D94E467B
:1048500032464146206800F0ACFAA36800209B1B5A
:10486000A36023681E442660DCE72A4600F060FB54
:1048700006460028E2D12169504600F0B3FAC8E7A5
:104880002DE9F04F1D468B899DB01F0680460C46D2
:1048900016460FD50B696BB9402100F0EFFA206086
:1048A000206128B90C23C8F800304FF0FF30C8E071
:1048B000402363610023099320238DF8293030239E
:1048C0004FF0010B8DF82A30039537463D4615F819
:1048D000013B0BB1252B3ED1B7EB060A0BD053465B
:1048E000324621464046FFF771FF013000F0A480B8
:1048F000099B534409933B78002B00F09D800023D3
:104900004FF0FF32CDE90523049307938DF8533020
:104910001A932F46052217F8011B504800F030FA71
:10492000049BD0B9D90644BF20228DF853201A0722
:1049300044BF2B228DF853202A782A2A15D02F46DF
:1049400000200A25079A394611F8013B303B092B14
:104950004DD9B8B10FE02F46B8E7404A3D46801A1E
:104960000BFA00F018430490D3E7039A111D126864
:104970000391002A01DB079204E0524243F0020354
:10498000079204933B782E2B0CD17B782A2B33D1C2
:10499000039B02371A1D1B680392002BB8BF4FF010
:1049A000FF3305932E4D03223978284600F0E8F9AD
:1049B00038B14023401B03FA00F0049B0137034346
:1049C00004933978062227487E1C8DF8281000F0C1
:1049D000D7F9002838D0244B13BB039B073323F0AF
:1049E000070308330393099B4B4409936DE705FBC9
:1049F000023201200F46A6E700230A251946013797
:104A00000593384610F8012B303A092A03D9002BB8
:104A1000C8D00591C6E705FB012101230746F0E751
:104A200003AB00932246114B04A94046AFF300802C
:104A3000B0F1FF3F8146D6D1A3895B063FF535AF84
:104A400009981DB0BDE8F08F03AB00932246074BD9
:104A500004A9404600F082F8EAE700BF3C7800086D
:104A6000427800084678000800000000CD470008A2
:104A70002DE9F04791461F468A680B690646934226
:104A8000B8BF1346C9F8003091F843200C46DDF852
:104A9000208012B10133C9F800302368990642BF63
:104AA000D9F800300233C9F80030256815F0060542
:104AB00007D104F1190AE368D9F800209B1AAB4228
:104AC00029DC94F843302268003318BF0123920692
:104AD0002ED404F1430239463046C047013021D07C
:104AE0002368E56803F00603042B18BF0025D9F8F6
:104AF00000204FF0000908BFAD1AA368226908BF63
:104B000025EAE5759342C4BF9B1AED181A344D454A
:104B10001AD1002008E00123524639463046C047EA
:104B2000013003D14FF0FF30BDE8F0870135C2E717
:104B30003020E11881F843005A1C94F845102244B3
:104B4000023382F84310C4E7012322463946304637
:104B5000C0470130E6D009F10109D8E72DE9F0435B
:104B600001F1430C0C46097E85B06E2917460646B6
:104B700098460C9A00F0B38022D8632936D00AD820
:104B8000002900F0B980582900F0838004F1420523
:104B900084F8421032E0642901D06929F6D12068F6
:104BA0001368050603F104012AD51B681160002B68
:104BB00003DA2D225B4284F843206F480A2239E051
:104BC000732900F09D8008D86F2920D07029DDD18D
:104BD000236843F02003236003E0752917D0782968
:104BE000D4D17823654884F8453055E0136804F142
:104BF0004205191D1B68116084F8423001238CE0C6
:104C00001B6810F0400F116018BF1BB2CFE713688C
:104C10002568181D1060280601D51B6802E068068B
:104C2000FBD51B886F2914BF0A2208225248002195
:104C300084F843106568002DA560C0F29580216856
:104C400021F004012160002B3DD1002D40F08E8029
:104C50006546082A0BD12368DB0708D523696268FB
:104C60009A42DEBF302305F8013C05F1FF35ACEB7D
:104C700005032361CDF800803B4603AA2146304658
:104C8000FFF7F6FE01304DD14FF0FF3005B0BDE823
:104C9000F083394884F84510136821681D1D1B688E
:104CA00015600A060BD5CA0744BF41F020012160F8
:104CB0001BB9226822F0200222601022B7E74D06BD
:104CC00048BF9BB2EFE76546B3FBF2F102FB11333D
:104CD000C35C05F8013D0B460029F5D1B9E713681F
:104CE0002568181D6169106028061B6801D51960C8
:104CF00002E06A06FBD51980002365462361B9E707
:104D00001368191D11601D6862680021284600F0B3
:104D100037F808B1401B606063682361002384F8A2
:104D20004330A7E723692A4639463046C047013059
:104D3000AAD023689B0713D4E068039B9842B8BFAE
:104D40001846A3E701234A4639463046C04701309A
:104D50009AD00135E368039A9B1AAB42F2DCEBE789
:104D6000002504F11909F5E7002BACD1037804F113
:104D7000420584F842306CE74D7800085E78000800
:104D800010B5C9B202449042034601D1002303E0AA
:104D90001C7801308C42F6D1184610BD10B5431E68
:104DA0000A44914200D110BD11F8014B03F8014FA4
:104DB000F7E7884210B501EB020307D8421E99427B
:104DC0000AD011F8014B02F8014FF8E78342F5D9F8
:104DD0008118D21AD34200D110BD13F8014D01F849
:104DE000014DF7E738B50546002943D051F8043C9A
:104DF0000C1F002BB8BFE41800F0D0F81E4A13684F
:104E0000104633B9636014602846BDE8384000F0AE
:104E1000C6B8A3420BD921686218934201BF1A6831
:104E20005B685218226063600460EDE713465A68BD
:104E30000AB1A242FAD919685818A0420BD12068C9
:104E40000144581882421960DED11068526801444A
:104E500019605A60D8E702D90C232B60D4E7206888
:104E600021188A4201BF11685268091821606260E6
:104E70005C60C9E738BD00BFC004002070B5CD1C20
:104E800025F0030508350C2D38BF0C25002D0646EE
:104E900001DBA94203D90C233360002070BD00F070
:104EA0007DF8214A1468214691B9204C23681BB92A
:104EB000304600F063F820602946304600F05EF886
:104EC000431C24D10C233046336000F068F8E4E73B
:104ED0000B685B1B18D40B2B0FD90B60CC18CD5073
:104EE000304600F05CF804F10B00231D20F00700B1
:104EF000C31AD3D05A42E250D0E74B688C4216BF57
:104F0000636013600C46EBE70C464968CCE7C41CB1
:104F100024F00304A04205D0211A304600F02EF8F8
:104F20000130CFD02560DBE7C0040020C40400209E
:104F3000F8B5074614460E4621B9BDE8F8401146BB
:104F4000FFF79CBF22B9FFF74DFF25462846F8BD65
:104F500000F026F8A0420FD221463846FFF78EFF18
:104F600005460028F2D031462246FFF717FF3146AA
:104F70003846FFF737FFE9E73546E7E738B500235E
:104F8000054C054608462360FDF728FB431C02D16B
:104F9000236803B12B6038BDF805002070477047C7
:104FA00051F8043C181F002BBCBF0B58C0187047A9
:104FB000F8B500BFF8BC08BC9E467047F8B500BF06
:084FC000F8BC08BC9E467047D6
:104FC80000000000000000000000000000000000D9
:104FD80000000000000000000000000000000000C9
:104FE80000000000000000000000000000000000B9
:104FF80000000000E003E003E003E003E003E00357
:10500800E003E003C003C003C001C001C001C00148
:10501800C001000000000000E003E003E00300001E
:1050280000000000000000003C1E3C1E3C1E3C1E10
:105038003C1E3C1E3C1E000000000000000000005A
:105048000000000000000000000000000000000058
:10505800000000000000000000000000CE01CE03A8
:10506800DE039E039C039C07FF3FFF7F3807380F32
:10507800780F780F780EFFFFFFFFF01EF01CE01C82
:10508800E03CE03DE03900000000000000000000C6
:10509800FC03FE0FEE1FE01EE01EE01EE01EE01FF8
:1050A800E00FE007F003FC01FE01FE01FE01FE0136
:1050B800FE01FE01FE3DFC3FF00FE001E0010000B3
:1050C80000000000033E07F78FE78EE79EE3BCE38E
:1050D800B8E7F8E7F0F7E03FC001FF03FF07F30781
:1050E800F30FF31EF33CF338F3787FF03FE0000052
:1050F8000000000000000000E007F80F780F781F9C
:10510800781F781F780FF00FE00F801FC37FC3FB55
:10511800E7F3F7F1F7F0FFF07FF03EF87F7CFF3F11
:10512800EF1F00000000000000000000E003E003A3
:10513800E003E003E003C003C0010000000000003A
:105148000000000000000000000000000000000057
:105158000000000000000000000000000000000047
:105168003F007C00F001E001C003C0078007800712
:10517800800F000F000F000F000F000F000F800FAF
:1051880080078007C007C003E001F0017C003F00F2
:105198000F000000007E001FC007C003E001F001FF
:1051A800F000F000F80078007800780078007800C7
:1051B8007800F800F000F000F001E001C003C0073B
:1051C800001F007E00780000E003C003C001CE3954
:1051D800FF3F7F3F20037003F807780F3C1F380616
:1051E80000000000000000000000000000000000B7
:1051F80000000000000000000000000000000000A7
:105208000000000000000000C001C001C001C00192
:10521800C001C001C001FFFFFFFFC001C001C00104
:10522800C001C001C0010000000000000000000033
:105238000000000000000000000000000000000066
:105248000000000000000000000000000000000056
:105258000000E003E003E003E003E001E001E00117
:10526800C0018003000000000000000000000000F2
:1052780000000000000000000000FE3FFE3F0000AC
:105288000000000000000000000000000000000016
:105298000000000000000000000000000000000006
:1052A80000000000000000000000000000000000F6
:1052B80000000000000000000000E003E003E0033D
:1052C800E003000000000000000000000F000F00D5
:1052D8001E001E003C003C0078007800F000F00042
:1052E800E001E001C003C00380078007000F000F42
:1052F800001E001E003C003C0078007800F0000012
:10530800F007F80F7C1F3E3E1E3C1F7C1F7C0F7869
:105318000F780F780F780F780F780F781F7C1F7C25
:105328001E3C3E3E7C1FF80FF00700000000000006
:1053380000000000F000F007F03FF03FF001F0013E
:10534800F001F001F001F001F001F001F001F001CD
:10535800F001F001F001F001F001FF3FFF3F000014
:105368000000000000000000E00FF83F7C3C3C001B
:105378003E003E003E003C003C007C00F800F0018E
:10538800E003C0078007000F001E003E003CFE3F00
:10539800FE3F00000000000000000000F00FF81FB2
:1053A8007C1C3E003E003E003C003C00F800F00F34
:1053B800F80F7C003E001E001E001E001E003E006E
:1053C8007C1CF81FE01F0000000000000000000027
:1053D8007800F800F800F801F803F807F807780FE4
:1053E800781E781E783C78787878FFFFFFFF780081
:1053F800780078007800780078000000000000004D
:1054080000000000FC1FFC1FFC1F001E001E001EE9
:10541800001E001EE01FF81FFC007C003E003E003E
:105428001E003E003E003C007C1CF81FE01F0000F0
:105438000000000000000000FC01FE078E0F001FA6
:10544800001E003E003C003CF83DFC3F3E7F1F7EB6
:105458000F3C0F3C0F3C0F3C0F3E1F1E3E1FFC0F26
:10546800F00300000000000000000000FF3FFF3FC5
:10547800FF3F0F001E001E003C0038007800F000BF
:10548800F000E001E001C003C0038007800F800F37
:10549800000F001F001F00000000000000000000B7
:1054A800F807FC0F3E1F1E1E1E3E1E3E1E1E3C1F02
:1054B800F80FF007F80FFC1E3E3E1F3C1F7C0F7CC8
:1054C8000F7C1F3C3E3FFC1FF0070000000000005F
:1054D80000000000F007F80F7C1E3E3C1E3C1F7CBD
:1054E8001F7C1F7C1F7C1F3C3F3EFF1FEF071F00D8
:1054F8001E001E003E003C00F838F03FE01F000090
:105508000000000000000000000000000000000093
:1055180000000000E003E003E003E00300000000F7
:1055280000000000000000000000E003E003E003CA
:10553800E003000000000000000000000000000080
:105548000000000000000000E003E003E003E003C7
:105558000000000000000000000000000000E00360
:10556800E003E003E003E001E001E001C0038003A1
:1055780000000000000000000000000003000F0011
:105588003F00FC00F003C00F003F00FE003FC00FCB
:10559800F003FC003F000F000300000000000000C3
:1055A80000000000000000000000000000000000F3
:1055B8000000000000000000FFFFFFFF00000000E7
:1055C8000000FFFFFFFF00000000000000000000D7
:1055D80000000000000000000000000000000000C3
:1055E8000000000000E000F8007E801FE007F801DE
:1055F8007E001F007E00F801E007801F007E00F893
:1056080000E000000000000000000000F01FFC3F68
:105618003E381F381F381E001E003C007800F0007E
:10562800E001C003C003C007C0070000000000007D
:10563800C007C007C007000000000000000000000D
:10564800F803FE0F1E1F0F3E7F3CFF78EF79C773EC
:10565800C7F38FF38FF38FF39FF39FF3FF73FF7BF2
:10566800F779003C1C1FFC0FF80300000000000045
:1056780000000000000000000000E003E003F00765
:10568800F007F007780F780F7C0E3C1E3C1E3E3C5E
:10569800FE3FFF3F1F780F780FF007F007F000007C
:1056A8000000000000000000000000000000F83FBB
:1056B800FC3F3E3C1E3C1E3C1E3C3E3C7C3CF03FBE
:1056C800F83F7E3C1F3C1F3C0F3C0F3C1F3CFE3FFD
:1056D800F83F00000000000000000000000000008B
:1056E8000000FF01FF07871F003E003C007C007898
:1056F8000078007800780078007C007C003E003F4D
:10570800831FFF07FF0100000000000000000000E9
:10571800000000000000F07FFC7F7E781F781F7873
:105728000F780F780F780F780F780F780F780F7839
:105738001F781E787E78F87FE07F00000000000068
:1057480000000000000000000000FF3FFF3F003E97
:10575800003E003E003E003E003EFE3FFE3F003E53
:10576800003E003E003E003E003EFF3FFF3F00007F
:105778000000000000000000000000000000FF1F03
:10578800FF1F001E001E001E001E001E001EFF1F21
:10579800FF1F001E001E001E001E001E001E001E11
:1057A800001E0000000000000000000000000000D3
:1057B8000000FE03FF0F871F003E007C007C00787E
:1057C80000F800F87FF87FF80F780F7C0F7C0F3E09
:1057D8008F1FFF0FFE030000000000000000000004
:1057E8000000000000001F7C1F7C1F7C1F7C1F7CAA
:1057F8001F7C1F7C1F7CFF7FFF7F1F7C1F7C1F7C03
:105808001F7C1F7C1F7C1F7C1F7C00000000000089
:1058180000000000000000000000FF3FFF3FE00321
:10582800E003E003E003E003E003E003E003E00358
:10583800E003E003E003E003E003FF3FFF3F000075
:105848000000000000000000000000000000FC1F35
:10585800FC1F7C007C007C007C007C007C007C00C1
:105868007C007C007C007C0078007800F838F03FF1
:10587800C03F000000000000000000000000000021
:1058880000001F3C1E3C3C3C783CF03CE03DE03FC7
:10589800C03F803FC03FE03FF03DF03C783C7C3C5F
:1058A8003E3C1F3C0F3C00000000000000000000D0
:1058B800000000000000003E003E003E003E003EAA
:1058C800003E003E003E003E003E003E003E003EE0
:1058D800003E003E003EFF3FFF3F0000000000008A
:1058E800000000000000000000001FF81FFC1FFC63
:1058F8003FFE3FFE3FFE7FFF77FF77FFF7F7E7F7B3
:10590800E7F3E7F3C7F307F007F007F007F0000045
:1059180000000000000000000000000000000F7CF4
:105928000F7C0F7E0F7F0F7F8F7F8F7FCF7FEF7B67
:10593800EF79FF79FF78FF787F783F783F781F7895
:105948001F780000000000000000000000000000B8
:105958000000F007FC1F3E3E1F7C0F780F780FF801
:105968000FF80FF80FF80FF80FF80F780F781F7C63
:105978003E3EFC1FF0070000000000000000000091
:10598800000000000000FC3FFF3F1F3E0F3E0F3E9F
:105998000F3E0F3E1F3E3F3EFC3FF03F003E003EA5
:1059A800003E003E003E003E003E000000000000B9
:1059B80000000000000000000000F007FC1F3E3E51
:1059C8001F7C0F780F780FF80FF80FF80FF80FF803
:1059D8000FF80F780F781F7C3E3EFC1FF8077C00FD
:1059E8003F000F0003000000000000000000F03F2F
:1059F800FC3F7E3C3E3C1E3C1E3C3E3C3C3CFC3C52
:105A0800F03FE03FF03DF83C7C3C3E3C1E3C1F3CF8
:105A18000F3C000000000000000000000000000033
:105A28000000FC07FE1F0E3E003C003C003C003E10
:105A3800C01FF80FFE037F001F000F000F001F207C
:105A48003E3CFC3FF01F000000000000000000008A
:105A5800000000000000FFFFFFFFE003E003E00399
:105A6800E003E003E003E003E003E003E003E00316
:105A7800E003E003E003E003E003000000000000AF
:105A8800000000000000000000000F7C0F7C0F7C6D
:105A98000F7C0F7C0F7C0F7C0F7C0F7C0F7C0F7CA6
:105AA8000F7C0F7C1E3C1E3C3E3EFC1FF007000096
:105AB800000000000000000000000000000007F0E7
:105AC80007F007F80F780F7C1E3C1E3C1E3E3C1E5C
